{"abi":[{"type":"constructor","inputs":[],"stateMutability":"nonpayable"},{"type":"function","name":"MIN_SIGNATURE_THRESHOLD","inputs":[],"outputs":[{"name":"","type":"uint256","internalType":"uint256"}],"stateMutability":"view"},{"type":"function","name":"UPGRADE_INTERFACE_VERSION","inputs":[],"outputs":[{"name":"","type":"string","internalType":"string"}],"stateMutability":"view"},{"type":"function","name":"acceptOwnership","inputs":[],"outputs":[],"stateMutability":"nonpayable"},{"type":"function","name":"attesterValidUntilBlock","inputs":[{"name":"attester","type":"address","internalType":"address"}],"outputs":[{"name":"","type":"uint256","internalType":"uint256"}],"stateMutability":"view"},{"type":"function","name":"disableAttester","inputs":[{"name":"attester","type":"address","internalType":"address"}],"outputs":[],"stateMutability":"nonpayable"},{"type":"function","name":"domainManager","inputs":[],"outputs":[{"name":"","type":"address","internalType":"address"}],"stateMutability":"view"},{"type":"function","name":"domainPauser","inputs":[],"outputs":[{"name":"","type":"address","internalType":"address"}],"stateMutability":"view"},{"type":"function","name":"enableAttester","inputs":[{"name":"newAttester","type":"address","internalType":"address"}],"outputs":[],"stateMutability":"nonpayable"},{"type":"function","name":"initialize","inputs":[{"name":"domainManager_","type":"address","internalType":"address"},{"name":"domainPauser_","type":"address","internalType":"address"},{"name":"attesters_","type":"address[]","internalType":"address[]"},{"name":"signatureThreshold_","type":"uint256","internalType":"uint256"},{"name":"persistentSignatureBufferDelayBlocks_","type":"uint256","internalType":"uint256"}],"outputs":[],"stateMutability":"nonpayable"},{"type":"function","name":"isAttesterEnabled","inputs":[{"name":"attester","type":"address","internalType":"address"}],"outputs":[{"name":"","type":"bool","internalType":"bool"}],"stateMutability":"view"},{"type":"function","name":"isValidPersistentSignature","inputs":[{"name":"hash","type":"bytes32","internalType":"bytes32"},{"name":"signature","type":"bytes","internalType":"bytes"}],"outputs":[{"name":"magicValue","type":"bytes4","internalType":"bytes4"}],"stateMutability":"view"},{"type":"function","name":"isValidSignature","inputs":[{"name":"hash","type":"bytes32","internalType":"bytes32"},{"name":"signature","type":"bytes","internalType":"bytes"}],"outputs":[{"name":"magicValue","type":"bytes4","internalType":"bytes4"}],"stateMutability":"view"},{"type":"function","name":"nextSignatureThreshold","inputs":[],"outputs":[{"name":"","type":"uint256","internalType":"uint256"}],"stateMutability":"view"},{"type":"function","name":"numPersistentEnabledAttesters","inputs":[],"outputs":[{"name":"","type":"uint256","internalType":"uint256"}],"stateMutability":"view"},{"type":"function","name":"owner","inputs":[],"outputs":[{"name":"","type":"address","internalType":"address"}],"stateMutability":"view"},{"type":"function","name":"pendingOwner","inputs":[],"outputs":[{"name":"","type":"address","internalType":"address"}],"stateMutability":"view"},{"type":"function","name":"persistentEnabledAttesters","inputs":[],"outputs":[{"name":"","type":"address[]","internalType":"address[]"}],"stateMutability":"view"},{"type":"function","name":"persistentSignatureBufferDelayBlocks","inputs":[],"outputs":[{"name":"","type":"uint256","internalType":"uint256"}],"stateMutability":"view"},{"type":"function","name":"proxiableUUID","inputs":[],"outputs":[{"name":"","type":"bytes32","internalType":"bytes32"}],"stateMutability":"view"},{"type":"function","name":"renounceOwnership","inputs":[],"outputs":[],"stateMutability":"nonpayable"},{"type":"function","name":"setPersistentSignatureBufferDelay","inputs":[{"name":"newDelay","type":"uint256","internalType":"uint256"}],"outputs":[],"stateMutability":"nonpayable"},{"type":"function","name":"setSignatureThreshold","inputs":[{"name":"newSignatureThreshold","type":"uint256","internalType":"uint256"}],"outputs":[],"stateMutability":"nonpayable"},{"type":"function","name":"signatureThreshold","inputs":[],"outputs":[{"name":"","type":"uint256","internalType":"uint256"}],"stateMutability":"view"},{"type":"function","name":"signatureThresholdValidUntilBlock","inputs":[],"outputs":[{"name":"","type":"uint256","internalType":"uint256"}],"stateMutability":"view"},{"type":"function","name":"transferOwnership","inputs":[{"name":"newOwner","type":"address","internalType":"address"}],"outputs":[],"stateMutability":"nonpayable"},{"type":"function","name":"updateDomainManager","inputs":[{"name":"domainManager_","type":"address","internalType":"address"}],"outputs":[],"stateMutability":"nonpayable"},{"type":"function","name":"updateDomainPauser","inputs":[{"name":"domainPauser_","type":"address","internalType":"address"}],"outputs":[],"stateMutability":"nonpayable"},{"type":"function","name":"upgradeToAndCall","inputs":[{"name":"newImplementation","type":"address","internalType":"address"},{"name":"data","type":"bytes","internalType":"bytes"}],"outputs":[],"stateMutability":"payable"},{"type":"event","name":"AttesterDisabled","inputs":[{"name":"attester","type":"address","indexed":true,"internalType":"address"},{"name":"validUntilBlock","type":"uint256","indexed":false,"internalType":"uint256"}],"anonymous":false},{"type":"event","name":"AttesterEnabled","inputs":[{"name":"attester","type":"address","indexed":true,"internalType":"address"}],"anonymous":false},{"type":"event","name":"DomainManagerUpdated","inputs":[{"name":"oldDomainManager","type":"address","indexed":true,"internalType":"address"},{"name":"newDomainManager","type":"address","indexed":true,"internalType":"address"}],"anonymous":false},{"type":"event","name":"DomainPauserUpdated","inputs":[{"name":"oldDomainPauser","type":"address","indexed":true,"internalType":"address"},{"name":"newDomainPauser","type":"address","indexed":true,"internalType":"address"}],"anonymous":false},{"type":"event","name":"Initialized","inputs":[{"name":"version","type":"uint64","indexed":false,"internalType":"uint64"}],"anonymous":false},{"type":"event","name":"OwnershipTransferStarted","inputs":[{"name":"previousOwner","type":"address","indexed":true,"internalType":"address"},{"name":"newOwner","type":"address","indexed":true,"internalType":"address"}],"anonymous":false},{"type":"event","name":"OwnershipTransferred","inputs":[{"name":"previousOwner","type":"address","indexed":true,"internalType":"address"},{"name":"newOwner","type":"address","indexed":true,"internalType":"address"}],"anonymous":false},{"type":"event","name":"PersistentSignatureBufferDelayUpdated","inputs":[{"name":"oldDelay","type":"uint256","indexed":false,"internalType":"uint256"},{"name":"newDelay","type":"uint256","indexed":false,"internalType":"uint256"}],"anonymous":false},{"type":"event","name":"SignatureThresholdUpdated","inputs":[{"name":"oldSignatureThreshold","type":"uint256","indexed":false,"internalType":"uint256"},{"name":"newSignatureThreshold","type":"uint256","indexed":false,"internalType":"uint256"}],"anonymous":false},{"type":"event","name":"Upgraded","inputs":[{"name":"implementation","type":"address","indexed":true,"internalType":"address"}],"anonymous":false},{"type":"error","name":"AddressEmptyCode","inputs":[{"name":"target","type":"address","internalType":"address"}]},{"type":"error","name":"AttesterAlreadyDisabled","inputs":[{"name":"attester","type":"address","internalType":"address"}]},{"type":"error","name":"AttesterAlreadyEnabled","inputs":[{"name":"attester","type":"address","internalType":"address"}]},{"type":"error","name":"ECDSAInvalidSignature","inputs":[]},{"type":"error","name":"ECDSAInvalidSignatureLength","inputs":[{"name":"length","type":"uint256","internalType":"uint256"}]},{"type":"error","name":"ECDSAInvalidSignatureS","inputs":[{"name":"s","type":"bytes32","internalType":"bytes32"}]},{"type":"error","name":"ERC1967InvalidImplementation","inputs":[{"name":"implementation","type":"address","internalType":"address"}]},{"type":"error","name":"ERC1967NonPayable","inputs":[]},{"type":"error","name":"FailedInnerCall","inputs":[]},{"type":"error","name":"InvalidInitialization","inputs":[]},{"type":"error","name":"NotEnoughAttestersForSigThreshold","inputs":[{"name":"currentCount","type":"uint256","internalType":"uint256"},{"name":"required","type":"uint256","internalType":"uint256"}]},{"type":"error","name":"NotInitializing","inputs":[]},{"type":"error","name":"OwnableInvalidOwner","inputs":[{"name":"owner","type":"address","internalType":"address"}]},{"type":"error","name":"OwnableUnauthorizedAccount","inputs":[{"name":"account","type":"address","internalType":"address"}]},{"type":"error","name":"PersistentSignatureBufferDelayAlreadySet","inputs":[{"name":"currentDelay","type":"uint256","internalType":"uint256"}]},{"type":"error","name":"PersistentSignatureBufferDelayZero","inputs":[]},{"type":"error","name":"SignatureThresholdAlreadySet","inputs":[{"name":"currentThreshold","type":"uint256","internalType":"uint256"}]},{"type":"error","name":"SignatureThresholdBelowMinimum","inputs":[{"name":"threshold","type":"uint256","internalType":"uint256"},{"name":"minThreshold","type":"uint256","internalType":"uint256"}]},{"type":"error","name":"SignatureThresholdTooHigh","inputs":[{"name":"threshold","type":"uint256","internalType":"uint256"},{"name":"maxAllowed","type":"uint256","internalType":"uint256"}]},{"type":"error","name":"SignatureThresholdUpdateInProgress","inputs":[{"name":"pendingThreshold","type":"uint256","internalType":"uint256"},{"name":"validUntilBlock","type":"uint256","internalType":"uint256"}]},{"type":"error","name":"SignatureThresholdZero","inputs":[]},{"type":"error","name":"UUPSUnauthorizedCallContext","inputs":[]},{"type":"error","name":"UUPSUnsupportedProxiableUUID","inputs":[{"name":"slot","type":"bytes32","internalType":"bytes32"}]},{"type":"error","name":"UnauthorizedCaller","inputs":[]},{"type":"error","name":"ZeroAddress","inputs":[]}],"bytecode":{"object":"0x60a080604052346100c257306080525f5160206122785f395f51905f525460ff8160401c166100b3576002600160401b03196001600160401b03821601610060575b6040516121b190816100c78239608051818181610ebc0152610fb00152f35b6001600160401b0319166001600160401b039081175f5160206122785f395f51905f525581527fc7f505b2f371ae2175ee4913f4499e1f2633a7b5936321eed1cdaeb6115181d290602090a15f80610041565b63f92ee8a960e01b5f5260045ffd5b5f80fdfe6080806040526004361015610012575f80fd5b5f3560e01c9081630f0be1951461144c575080631626ba7e146114055780632d025080146112435780633b6c7b85146112075780634f1ef28614610f3457806352d1902d14610ea25780635559267514610ae05780636e4379ac14610a26578063715018a61461094157806371af29cd146108ee57806372fe3bfe146108d357806379ba50971461085d57806382806767146108345780638bd40d30146107a25780638da5cb5b1461075d578063a07d72d514610734578063a82f2e26146106a6578063ad3cb1cc14610630578063b475f0c3146105eb578063bbde537414610407578063d376dd4c146103cb578063d5aef7431461038f578063d7e696271461036b578063e30c397814610326578063e516de82146102f9578063f2fde38b1461022e578063fae36879146101b15763fd5853c114610150575f80fd5b346101ad5760203660031901126101ad5760206101a461016e6114e2565b6001600160a01b03165f527ff768becf40f8e6bd7b813400353588b273b55b0c5234b97c0139dfec16834f0560205260405f2090565b54604051908152f35b5f80fd5b346101ad5760203660031901126101ad576101ca6114e2565b6001600160a01b037f6f2597a7d01bcf835242df16a0d751446053c991498e57422670c735c6c29600541633036102065761020490611b2a565b005b7f5c427cd9000000000000000000000000000000000000000000000000000000005f5260045ffd5b346101ad5760203660031901126101ad576001600160a01b0361024f6114e2565b610257611811565b16806001600160a01b03197f237e158222e3e6968b72b9db0d8043aacf074ad9f650f0d1606b4d82ee432c005416177f237e158222e3e6968b72b9db0d8043aacf074ad9f650f0d1606b4d82ee432c00556001600160a01b037f9016d09d72d40fdae2fd8ceac6b6234c7706214fd39c1cd1e609a0528c19930054167f38d16b8cac22d99fc7c124b9cd0de2d3fa1faef420bfe791d8c362d765e227005f80a3005b346101ad5760203660031901126101ad57602061031c6103176114e2565b611557565b6040519015158152f35b346101ad575f3660031901126101ad5760206001600160a01b037f237e158222e3e6968b72b9db0d8043aacf074ad9f650f0d1606b4d82ee432c005416604051908152f35b346101ad5760203660031901126101ad57610384611811565b610204600435611a51565b346101ad575f3660031901126101ad5760207ff768becf40f8e6bd7b813400353588b273b55b0c5234b97c0139dfec16834f0254604051908152f35b346101ad575f3660031901126101ad5760207ff768becf40f8e6bd7b813400353588b273b55b0c5234b97c0139dfec16834f0654604051908152f35b346101ad5760203660031901126101ad576004356001600160a01b037f6f2597a7d01bcf835242df16a0d751446053c991498e57422670c735c6c29600541633036102065761045581611e0c565b7ff768becf40f8e6bd7b813400353588b273b55b0c5234b97c0139dfec16834f01548043111561059b57507ff768becf40f8e6bd7b813400353588b273b55b0c5234b97c0139dfec16834f02549081811461056f57816040917f149153f58b4da003a8cfd4523709a202402182cb5aa335046911277a1be6eede937ff768becf40f8e6bd7b813400353588b273b55b0c5234b97c0139dfec16834f0055807ff768becf40f8e6bd7b813400353588b273b55b0c5234b97c0139dfec16834f02556105407ff768becf40f8e6bd7b813400353588b273b55b0c5234b97c0139dfec16834f065443611536565b7ff768becf40f8e6bd7b813400353588b273b55b0c5234b97c0139dfec16834f015582519182526020820152a1005b507f974b974e000000000000000000000000000000000000000000000000000000005f5260045260245ffd5b7ff768becf40f8e6bd7b813400353588b273b55b0c5234b97c0139dfec16834f02547fbfce721d000000000000000000000000000000000000000000000000000000005f5260045260245260445ffd5b346101ad575f3660031901126101ad5760206001600160a01b037f6f2597a7d01bcf835242df16a0d751446053c991498e57422670c735c6c296005416604051908152f35b346101ad575f3660031901126101ad57604080519061064f81836114f8565b6005825260208201917f352e302e3000000000000000000000000000000000000000000000000000000083528151928391602083525180918160208501528484015e5f828201840152601f01601f19168101030190f35b346101ad575f3660031901126101ad577ff768becf40f8e6bd7b813400353588b273b55b0c5234b97c0139dfec16834f0154431161070b5760207ff768becf40f8e6bd7b813400353588b273b55b0c5234b97c0139dfec16834f00545b604051908152f35b60207ff768becf40f8e6bd7b813400353588b273b55b0c5234b97c0139dfec16834f0254610703565b346101ad5760203660031901126101ad576102046107506114e2565b610758611811565b6119c4565b346101ad575f3660031901126101ad5760206001600160a01b037f9016d09d72d40fdae2fd8ceac6b6234c7706214fd39c1cd1e609a0528c1993005416604051908152f35b346101ad576107b96107b33661148e565b9161170d565b1561080c5760207f8bd40d30000000000000000000000000000000000000000000000000000000005b7fffffffff0000000000000000000000000000000000000000000000000000000060405191168152f35b60207fffffffff000000000000000000000000000000000000000000000000000000006107e2565b346101ad575f3660031901126101ad5760205f51602061215c5f395f51905f5254604051908152f35b346101ad575f3660031901126101ad57336001600160a01b037f237e158222e3e6968b72b9db0d8043aacf074ad9f650f0d1606b4d82ee432c005416036108a75761020433611844565b7f118cdaa7000000000000000000000000000000000000000000000000000000005f523360045260245ffd5b346101ad575f3660031901126101ad57602060405160028152f35b346101ad5760203660031901126101ad576109076114e2565b6001600160a01b037f6f2597a7d01bcf835242df16a0d751446053c991498e57422670c735c6c29600541633036102065761020490611916565b346101ad575f3660031901126101ad57610959611811565b6001600160a01b03197f237e158222e3e6968b72b9db0d8043aacf074ad9f650f0d1606b4d82ee432c0054167f237e158222e3e6968b72b9db0d8043aacf074ad9f650f0d1606b4d82ee432c00555f6001600160a01b037f9016d09d72d40fdae2fd8ceac6b6234c7706214fd39c1cd1e609a0528c199300546001600160a01b031981167f9016d09d72d40fdae2fd8ceac6b6234c7706214fd39c1cd1e609a0528c19930055167f8be0079c531659141344cd1fd0a4f28419497f9722a3daafe3b4186f6b6457e08280a3005b346101ad575f3660031901126101ad576040518060205f51602061215c5f395f51905f5254928381520180925f51602061215c5f395f51905f525f5260205f20905f5b818110610aca5750505081610a7f9103826114f8565b604051918291602083019060208452518091526040830191905f5b818110610aa8575050500390f35b82516001600160a01b0316845285945060209384019390920191600101610a9a565b8254845260209093019260019283019201610a69565b346101ad5760a03660031901126101ad57610af96114e2565b6024356001600160a01b03811681036101ad576044359167ffffffffffffffff83116101ad57366023840112156101ad5782600401359267ffffffffffffffff8411610e8e578360051b9060405194610b5560208401876114f8565b855260246020860192820101903682116101ad57602401915b818310610e6e57505050606435917ff0c57e16840df040f15088dc2f81fe391c3923bec73e23a9662efc9c229c6a00549160ff8360401c16159267ffffffffffffffff811680159081610e66575b6001149081610e5c575b159081610e53575b50610e2b5767ffffffffffffffff1981166001177ff0c57e16840df040f15088dc2f81fe391c3923bec73e23a9662efc9c229c6a005583610dd6575b50610c13611d7d565b610c1b611d7d565b610c23611d7d565b3315610daa57610c3233611844565b610c3a611d7d565b610c42611d7d565b610c4d608435611a51565b5f5b8551811015610c7c57600190610c766001600160a01b0360208360051b8a01015116611b2a565b01610c4f565b50610d0c907f149153f58b4da003a8cfd4523709a202402182cb5aa335046911277a1be6eede6040610d119596610cb281611e0c565b807ff768becf40f8e6bd7b813400353588b273b55b0c5234b97c0139dfec16834f02555f7ff768becf40f8e6bd7b813400353588b273b55b0c5234b97c0139dfec16834f01558151905f82526020820152a1610758611d7d565b611916565b610d1757005b7fffffffffffffffffffffffffffffffffffffffffffffff00ffffffffffffffff7ff0c57e16840df040f15088dc2f81fe391c3923bec73e23a9662efc9c229c6a0054167ff0c57e16840df040f15088dc2f81fe391c3923bec73e23a9662efc9c229c6a00557fc7f505b2f371ae2175ee4913f4499e1f2633a7b5936321eed1cdaeb6115181d2602060405160018152a1005b7f1e4fbdf7000000000000000000000000000000000000000000000000000000005f525f60045260245ffd5b7fffffffffffffffffffffffffffffffffffffffffffffff0000000000000000001668010000000000000001177ff0c57e16840df040f15088dc2f81fe391c3923bec73e23a9662efc9c229c6a005585610c0a565b7ff92ee8a9000000000000000000000000000000000000000000000000000000005f5260045ffd5b90501587610bce565b303b159150610bc6565b859150610bbc565b82356001600160a01b03811681036101ad57815260209283019201610b6e565b634e487b7160e01b5f52604160045260245ffd5b346101ad575f3660031901126101ad576001600160a01b037f0000000000000000000000000000000000000000000000000000000000000000163003610f0c5760206040517f360894a13ba1a3210667c828492db98dca3e2076cc3735a920a3ca505d382bbc8152f35b7fe07c8dba000000000000000000000000000000000000000000000000000000005f5260045ffd5b60403660031901126101ad57610f486114e2565b6024359067ffffffffffffffff82116101ad57366023830112156101ad57816004013590610f758261151a565b91610f8360405193846114f8565b808352602083019336602483830101116101ad57815f926024602093018737840101526001600160a01b037f0000000000000000000000000000000000000000000000000000000000000000168030149081156111d2575b50610f0c57610fe8611811565b6001600160a01b038116926040517f52d1902d000000000000000000000000000000000000000000000000000000008152602081600481885afa5f918161119e575b506110425784634c9c8ce360e01b5f5260045260245ffd5b807f360894a13ba1a3210667c828492db98dca3e2076cc3735a920a3ca505d382bbc8692036111735750823b1561116157806001600160a01b03197f360894a13ba1a3210667c828492db98dca3e2076cc3735a920a3ca505d382bbc5416177f360894a13ba1a3210667c828492db98dca3e2076cc3735a920a3ca505d382bbc557fbc7cd75a20ee27fd9adebab32041f755214dbc6bffa90cc0225b39da2e5c2d3b5f80a282511561112f575f8091610204945190845af43d15611127573d9161110b8361151a565b9261111960405194856114f8565b83523d5f602085013e6120cf565b6060916120cf565b5050503461113957005b7fb398979f000000000000000000000000000000000000000000000000000000005f5260045ffd5b634c9c8ce360e01b5f5260045260245ffd5b7faa1d49a4000000000000000000000000000000000000000000000000000000005f5260045260245ffd5b9091506020813d6020116111ca575b816111ba602093836114f8565b810103126101ad5751908661102a565b3d91506111ad565b90506001600160a01b037f360894a13ba1a3210667c828492db98dca3e2076cc3735a920a3ca505d382bbc5416141584610fdb565b346101ad575f3660031901126101ad5760207ff768becf40f8e6bd7b813400353588b273b55b0c5234b97c0139dfec16834f0154604051908152f35b346101ad5760203660031901126101ad5761125c6114e2565b6001600160a01b037f6f2597a7d01bcf835242df16a0d751446053c991498e57422670c735c6c2960054163303610206576001600160a01b038116906112cc825f527ff768becf40f8e6bd7b813400353588b273b55b0c5234b97c0139dfec16834f0460205260405f2054151590565b156113d9575f51602061215c5f395f51905f52547ff768becf40f8e6bd7b813400353588b273b55b0c5234b97c0139dfec16834f025490818111156113ab57837f713c9233a40d653f1b03d400398b4a560a59469a58a25cfbf58a8b45af3a62a760206113978661135e7ff768becf40f8e6bd7b813400353588b273b55b0c5234b97c0139dfec16834f065443611536565b9182916001600160a01b03165f527ff768becf40f8e6bd7b813400353588b273b55b0c5234b97c0139dfec16834f0560205260405f2090565b556113a184611bfd565b50604051908152a2005b7f0ab7c8a2000000000000000000000000000000000000000000000000000000005f5260045260245260445ffd5b507f8b9bf59d000000000000000000000000000000000000000000000000000000005f5260045260245ffd5b346101ad5761141c6114163661148e565b916115e1565b1561080c576040517f1626ba7e000000000000000000000000000000000000000000000000000000008152602090f35b346101ad575f3660031901126101ad576020906001600160a01b037f6f2597a7d01bcf835242df16a0d751446053c991498e57422670c735c6c2960154168152f35b60406003198201126101ad576004359160243567ffffffffffffffff81116101ad57826023820112156101ad5780600401359267ffffffffffffffff84116101ad57602484830101116101ad576024019190565b600435906001600160a01b03821682036101ad57565b90601f8019910116810190811067ffffffffffffffff821117610e8e57604052565b67ffffffffffffffff8111610e8e57601f01601f191660200190565b9190820180921161154357565b634e487b7160e01b5f52601160045260245ffd5b6115946001600160a01b0382165f527ff768becf40f8e6bd7b813400353588b273b55b0c5234b97c0139dfec16834f0460205260405f2054151590565b90811561159f575090565b6115da91506001600160a01b03165f527ff768becf40f8e6bd7b813400353588b273b55b0c5234b97c0139dfec16834f0560205260405f2090565b5443111590565b7ff768becf40f8e6bd7b813400353588b273b55b0c5234b97c0139dfec16834f02549283158015611701575b6116f9576041900492831415806116a4575b61169d575f805b848210611637575050505050600190565b6001600160a01b0361166a91611661604185028701602081013590604081359101355f1a88611ebb565b90949194611f48565b166001600160a01b03821611156116945761168481611557565b1561169457600190910190611626565b50505050505f90565b5050505f90565b507ff768becf40f8e6bd7b813400353588b273b55b0c5234b97c0139dfec16834f00548314158061161f57507ff768becf40f8e6bd7b813400353588b273b55b0c5234b97c0139dfec16834f0154431161161f565b505050505f90565b5060418106151561160d565b915f927ff768becf40f8e6bd7b813400353588b273b55b0c5234b97c0139dfec16834f02549182158015611805575b61169457604190049182146117515750505090565b5f935090918390815b84831061176c57505050505050600190565b8561178f9161166160418602850160208101359060408135910135851a89611ebb565b6001600160a01b0380841691168111156117fb576117d7905f527ff768becf40f8e6bd7b813400353588b273b55b0c5234b97c0139dfec16834f0460205260405f2054151590565b6117e45750505050505090565b6117f35760019092019161175a565b505050505090565b5050505050505090565b5060418106151561173c565b6001600160a01b037f9016d09d72d40fdae2fd8ceac6b6234c7706214fd39c1cd1e609a0528c199300541633036108a757565b6001600160a01b03197f237e158222e3e6968b72b9db0d8043aacf074ad9f650f0d1606b4d82ee432c0054167f237e158222e3e6968b72b9db0d8043aacf074ad9f650f0d1606b4d82ee432c00556001600160a01b03807f9016d09d72d40fdae2fd8ceac6b6234c7706214fd39c1cd1e609a0528c19930054921691826001600160a01b03198216177f9016d09d72d40fdae2fd8ceac6b6234c7706214fd39c1cd1e609a0528c19930055167f8be0079c531659141344cd1fd0a4f28419497f9722a3daafe3b4186f6b6457e05f80a3565b61191f81611dd4565b6001600160a01b03807f6f2597a7d01bcf835242df16a0d751446053c991498e57422670c735c6c296015416911690816001600160a01b03197f6f2597a7d01bcf835242df16a0d751446053c991498e57422670c735c6c296015416177f6f2597a7d01bcf835242df16a0d751446053c991498e57422670c735c6c29601557fe7c312e1717b1bd16e4a200d96ad6b6a5988f02144cdd0abc57d20ffbdbcaecc5f80a3565b6119cd81611dd4565b6001600160a01b03807f6f2597a7d01bcf835242df16a0d751446053c991498e57422670c735c6c2960054921691826001600160a01b03198216177f6f2597a7d01bcf835242df16a0d751446053c991498e57422670c735c6c2960055167f6ec5d08ef190bf8ef6216a68bc53f462b4d68ac5b873b206963fca20b12a17c45f80a3565b7ff768becf40f8e6bd7b813400353588b273b55b0c5234b97c0139dfec16834f0654908015611b0257818114611ad6577f9f66fe84f526c6ae8705bb9ec89a274d0fb0428ce8266b154cef8232a5ba46b291816040927ff768becf40f8e6bd7b813400353588b273b55b0c5234b97c0139dfec16834f065582519182526020820152a1565b507f838c4b00000000000000000000000000000000000000000000000000000000005f5260045260245ffd5b7f20076c7f000000000000000000000000000000000000000000000000000000005f5260045ffd5b611b3381611dd4565b6001600160a01b03811690611b4782612007565b15611ba8576001600160a01b03165f9081527ff768becf40f8e6bd7b813400353588b273b55b0c5234b97c0139dfec16834f0560205260408120557f5b99bab45c72ce67e89466dbc47480b9c1fde1400e7268bbf463b8354ee4653f5f80a2565b507fd0380fb0000000000000000000000000000000000000000000000000000000005f5260045260245ffd5b8054821015611be9575f5260205f2001905f90565b634e487b7160e01b5f52603260045260245ffd5b5f8181527ff768becf40f8e6bd7b813400353588b273b55b0c5234b97c0139dfec16834f0460205260409020548015611d77575f198101818111611543575f51602061215c5f395f51905f52545f1981019190821161154357818103611cf2575b5050505f51602061215c5f395f51905f52548015611cde575f1901611c90815f51602061215c5f395f51905f52611bd4565b8154905f199060031b1b191690555f51602061215c5f395f51905f52555f527ff768becf40f8e6bd7b813400353588b273b55b0c5234b97c0139dfec16834f046020525f6040812055600190565b634e487b7160e01b5f52603160045260245ffd5b611d42611d0f611d2c935f51602061215c5f395f51905f52611bd4565b90549060031b1c9283925f51602061215c5f395f51905f52611bd4565b819391549060031b91821b915f19901b19161790565b90555f527ff768becf40f8e6bd7b813400353588b273b55b0c5234b97c0139dfec16834f0460205260405f20555f8080611c5e565b50505f90565b60ff7ff0c57e16840df040f15088dc2f81fe391c3923bec73e23a9662efc9c229c6a005460401c1615611dac57565b7fd7e6bcf8000000000000000000000000000000000000000000000000000000005f5260045ffd5b6001600160a01b031615611de457565b7fd92e233d000000000000000000000000000000000000000000000000000000005f5260045ffd5b8015611e935760028110611e63575f51602061215c5f395f51905f525490818111611e35575050565b7f3faf7472000000000000000000000000000000000000000000000000000000005f5260045260245260445ffd5b7f7da5e585000000000000000000000000000000000000000000000000000000005f52600452600260245260445ffd5b7f8b4b9358000000000000000000000000000000000000000000000000000000005f5260045ffd5b91907f7fffffffffffffffffffffffffffffff5d576e7357a4501ddfe92f46681b20a08411611f3d579160209360809260ff5f9560405194855216868401526040830152606082015282805260015afa15611f32575f516001600160a01b03811615611f2857905f905f90565b505f906001905f90565b6040513d5f823e3d90fd5b5050505f9160039190565b6004811015611ff35780611f5a575050565b60018103611f8a577ff645eedf000000000000000000000000000000000000000000000000000000005f5260045ffd5b60028103611fbe57507ffce698f7000000000000000000000000000000000000000000000000000000005f5260045260245ffd5b600314611fc85750565b7fd78bce0c000000000000000000000000000000000000000000000000000000005f5260045260245ffd5b634e487b7160e01b5f52602160045260245ffd5b805f527ff768becf40f8e6bd7b813400353588b273b55b0c5234b97c0139dfec16834f0460205260405f2054155f146120ca575f51602061215c5f395f51905f525468010000000000000000811015610e8e57612088611d2c8260018594015f51602061215c5f395f51905f52555f51602061215c5f395f51905f52611bd4565b90555f51602061215c5f395f51905f5254905f527ff768becf40f8e6bd7b813400353588b273b55b0c5234b97c0139dfec16834f0460205260405f2055600190565b505f90565b9061210c57508051156120e457805190602001fd5b7f1425ea42000000000000000000000000000000000000000000000000000000005f5260045ffd5b81511580612152575b61211d575090565b6001600160a01b03907f9996b315000000000000000000000000000000000000000000000000000000005f521660045260245ffd5b50803b1561211556fef768becf40f8e6bd7b813400353588b273b55b0c5234b97c0139dfec16834f03a2646970667358221220d7319dd9211dc1780cbb78fb5f74df638cb77f0f5963dc2d74bc77949a0381c764736f6c634300081d0033f0c57e16840df040f15088dc2f81fe391c3923bec73e23a9662efc9c229c6a00","linkReferences":{}},"methodIdentifiers":{"MIN_SIGNATURE_THRESHOLD()":"72fe3bfe","UPGRADE_INTERFACE_VERSION()":"ad3cb1cc","acceptOwnership()":"79ba5097","attesterValidUntilBlock(address)":"fd5853c1","disableAttester(address)":"2d025080","domainManager()":"b475f0c3","domainPauser()":"0f0be195","enableAttester(address)":"fae36879","initialize(address,address,address[],uint256,uint256)":"55592675","isAttesterEnabled(address)":"e516de82","isValidPersistentSignature(bytes32,bytes)":"8bd40d30","isValidSignature(bytes32,bytes)":"1626ba7e","nextSignatureThreshold()":"d5aef743","numPersistentEnabledAttesters()":"82806767","owner()":"8da5cb5b","pendingOwner()":"e30c3978","persistentEnabledAttesters()":"6e4379ac","persistentSignatureBufferDelayBlocks()":"d376dd4c","proxiableUUID()":"52d1902d","renounceOwnership()":"715018a6","setPersistentSignatureBufferDelay(uint256)":"d7e69627","setSignatureThreshold(uint256)":"bbde5374","signatureThreshold()":"a82f2e26","signatureThresholdValidUntilBlock()":"3b6c7b85","transferOwnership(address)":"f2fde38b","updateDomainManager(address)":"a07d72d5","updateDomainPauser(address)":"71af29cd","upgradeToAndCall(address,bytes)":"4f1ef286"},"id":175}