{"abi":[{"type":"constructor","inputs":[{"name":"gatewayMinterAddress","type":"address","internalType":"address"},{"name":"gatewayWalletAddress","type":"address","internalType":"address"},{"name":"tokenMessengerAddress","type":"address","internalType":"address"},{"name":"tokenMessengerV2Address","type":"address","internalType":"address"}],"stateMutability":"nonpayable"},{"type":"function","name":"UPGRADE_INTERFACE_VERSION","inputs":[],"outputs":[{"name":"","type":"string","internalType":"string"}],"stateMutability":"view"},{"type":"function","name":"acceptOwnership","inputs":[],"outputs":[],"stateMutability":"nonpayable"},{"type":"function","name":"addSupportedToken","inputs":[{"name":"token","type":"address","internalType":"address"}],"outputs":[],"stateMutability":"nonpayable"},{"type":"function","name":"balanceOfNativeCollateral","inputs":[{"name":"localToken","type":"address","internalType":"address"},{"name":"remoteDomain","type":"uint32","internalType":"uint32"}],"outputs":[{"name":"","type":"uint256","internalType":"uint256"}],"stateMutability":"view"},{"type":"function","name":"blocklist","inputs":[{"name":"remoteDomain","type":"uint32","internalType":"uint32"},{"name":"remoteAddress","type":"bytes32","internalType":"bytes32"}],"outputs":[],"stateMutability":"nonpayable"},{"type":"function","name":"blocklister","inputs":[],"outputs":[{"name":"","type":"address","internalType":"address"}],"stateMutability":"view"},{"type":"function","name":"decodeDepositIntent","inputs":[{"name":"data","type":"bytes","internalType":"bytes"}],"outputs":[{"name":"","type":"tuple","internalType":"struct DepositIntent","components":[{"name":"version","type":"uint32","internalType":"uint32"},{"name":"amount","type":"uint256","internalType":"uint256"},{"name":"remoteDomain","type":"uint32","internalType":"uint32"},{"name":"remoteToken","type":"bytes32","internalType":"bytes32"},{"name":"remoteRecipient","type":"bytes32","internalType":"bytes32"},{"name":"localToken","type":"bytes32","internalType":"bytes32"},{"name":"localDepositor","type":"bytes32","internalType":"bytes32"},{"name":"maxFee","type":"uint256","internalType":"uint256"},{"name":"nonce","type":"bytes32","internalType":"bytes32"},{"name":"hookData","type":"bytes","internalType":"bytes"}]}],"stateMutability":"view"},{"type":"function","name":"depositToRemote","inputs":[{"name":"value","type":"uint256","internalType":"uint256"},{"name":"remoteDomain","type":"uint32","internalType":"uint32"},{"name":"remoteRecipient","type":"bytes32","internalType":"bytes32"},{"name":"localToken","type":"address","internalType":"address"},{"name":"maxFee","type":"uint256","internalType":"uint256"},{"name":"hookData","type":"bytes","internalType":"bytes"}],"outputs":[],"stateMutability":"nonpayable"},{"type":"function","name":"depositToRemoteWithAuthorization","inputs":[{"name":"depositParams","type":"tuple","internalType":"struct DepositParams","components":[{"name":"value","type":"uint256","internalType":"uint256"},{"name":"remoteDomain","type":"uint32","internalType":"uint32"},{"name":"remoteRecipient","type":"bytes32","internalType":"bytes32"},{"name":"localToken","type":"address","internalType":"address"},{"name":"maxFee","type":"uint256","internalType":"uint256"},{"name":"hookData","type":"bytes","internalType":"bytes"}]},{"name":"authParams","type":"tuple","internalType":"struct AuthorizationParams","components":[{"name":"from","type":"address","internalType":"address"},{"name":"validAfter","type":"uint256","internalType":"uint256"},{"name":"validBefore","type":"uint256","internalType":"uint256"},{"name":"nonce","type":"bytes32","internalType":"bytes32"},{"name":"signature","type":"bytes","internalType":"bytes"}]}],"outputs":[],"stateMutability":"nonpayable"},{"type":"function","name":"depositToRemoteWithPermit","inputs":[{"name":"depositParams","type":"tuple","internalType":"struct DepositParams","components":[{"name":"value","type":"uint256","internalType":"uint256"},{"name":"remoteDomain","type":"uint32","internalType":"uint32"},{"name":"remoteRecipient","type":"bytes32","internalType":"bytes32"},{"name":"localToken","type":"address","internalType":"address"},{"name":"maxFee","type":"uint256","internalType":"uint256"},{"name":"hookData","type":"bytes","internalType":"bytes"}]},{"name":"permitParams","type":"tuple","internalType":"struct PermitParams","components":[{"name":"owner","type":"address","internalType":"address"},{"name":"deadline","type":"uint256","internalType":"uint256"},{"name":"signature","type":"bytes","internalType":"bytes"}]}],"outputs":[],"stateMutability":"nonpayable"},{"type":"function","name":"deregisterRemoteDomain","inputs":[{"name":"remoteDomain","type":"uint32","internalType":"uint32"}],"outputs":[],"stateMutability":"nonpayable"},{"type":"function","name":"deregisterRemoteToken","inputs":[{"name":"remoteDomain","type":"uint32","internalType":"uint32"},{"name":"remoteToken","type":"bytes32","internalType":"bytes32"}],"outputs":[],"stateMutability":"nonpayable"},{"type":"function","name":"domain","inputs":[],"outputs":[{"name":"","type":"uint32","internalType":"uint32"}],"stateMutability":"view"},{"type":"function","name":"domainDepositsPaused","inputs":[{"name":"domain","type":"uint32","internalType":"uint32"}],"outputs":[{"name":"","type":"bool","internalType":"bool"}],"stateMutability":"view"},{"type":"function","name":"domainWithdrawalsPaused","inputs":[{"name":"domain","type":"uint32","internalType":"uint32"}],"outputs":[{"name":"","type":"bool","internalType":"bool"}],"stateMutability":"view"},{"type":"function","name":"encodeDepositIntent","inputs":[{"name":"intent","type":"tuple","internalType":"struct DepositIntent","components":[{"name":"version","type":"uint32","internalType":"uint32"},{"name":"amount","type":"uint256","internalType":"uint256"},{"name":"remoteDomain","type":"uint32","internalType":"uint32"},{"name":"remoteToken","type":"bytes32","internalType":"bytes32"},{"name":"remoteRecipient","type":"bytes32","internalType":"bytes32"},{"name":"localToken","type":"bytes32","internalType":"bytes32"},{"name":"localDepositor","type":"bytes32","internalType":"bytes32"},{"name":"maxFee","type":"uint256","internalType":"uint256"},{"name":"nonce","type":"bytes32","internalType":"bytes32"},{"name":"hookData","type":"bytes","internalType":"bytes"}]}],"outputs":[{"name":"","type":"bytes","internalType":"bytes"}],"stateMutability":"pure"},{"type":"function","name":"gatewayMinter","inputs":[],"outputs":[{"name":"","type":"address","internalType":"address"}],"stateMutability":"view"},{"type":"function","name":"gatewayWallet","inputs":[],"outputs":[{"name":"","type":"address","internalType":"address"}],"stateMutability":"view"},{"type":"function","name":"getRemoteDomainDepositor","inputs":[{"name":"remoteDomain","type":"uint32","internalType":"uint32"}],"outputs":[{"name":"","type":"address","internalType":"address"}],"stateMutability":"view"},{"type":"function","name":"getRemoteDomainHookExecutor","inputs":[{"name":"remoteDomain","type":"uint32","internalType":"uint32"}],"outputs":[{"name":"","type":"address","internalType":"address"}],"stateMutability":"view"},{"type":"function","name":"getRemoteToken","inputs":[{"name":"remoteDomain","type":"uint32","internalType":"uint32"},{"name":"localToken","type":"address","internalType":"address"}],"outputs":[{"name":"","type":"bytes32","internalType":"bytes32"}],"stateMutability":"view"},{"type":"function","name":"initialize","inputs":[{"name":"domain_","type":"uint32","internalType":"uint32"},{"name":"pauser_","type":"address","internalType":"address"},{"name":"blocklister_","type":"address","internalType":"address"},{"name":"registrationManager_","type":"address","internalType":"address"},{"name":"supportedTokens_","type":"address[]","internalType":"address[]"},{"name":"remoteDomainDepositorImplementation_","type":"address","internalType":"address"}],"outputs":[],"stateMutability":"nonpayable"},{"type":"function","name":"isBlocklisted","inputs":[{"name":"remoteDomain","type":"uint32","internalType":"uint32"},{"name":"remoteAddress","type":"bytes32","internalType":"bytes32"}],"outputs":[{"name":"","type":"bool","internalType":"bool"}],"stateMutability":"view"},{"type":"function","name":"isRemoteDomainRegistered","inputs":[{"name":"remoteDomain","type":"uint32","internalType":"uint32"}],"outputs":[{"name":"","type":"bool","internalType":"bool"}],"stateMutability":"view"},{"type":"function","name":"isRemoteTokenRegistered","inputs":[{"name":"remoteDomain","type":"uint32","internalType":"uint32"},{"name":"remoteToken","type":"bytes32","internalType":"bytes32"}],"outputs":[{"name":"","type":"bool","internalType":"bool"}],"stateMutability":"view"},{"type":"function","name":"isTokenSupported","inputs":[{"name":"token","type":"address","internalType":"address"}],"outputs":[{"name":"","type":"bool","internalType":"bool"}],"stateMutability":"view"},{"type":"function","name":"owner","inputs":[],"outputs":[{"name":"","type":"address","internalType":"address"}],"stateMutability":"view"},{"type":"function","name":"pause","inputs":[],"outputs":[],"stateMutability":"nonpayable"},{"type":"function","name":"paused","inputs":[],"outputs":[{"name":"","type":"bool","internalType":"bool"}],"stateMutability":"view"},{"type":"function","name":"pauser","inputs":[],"outputs":[{"name":"","type":"address","internalType":"address"}],"stateMutability":"view"},{"type":"function","name":"pendingOwner","inputs":[],"outputs":[{"name":"","type":"address","internalType":"address"}],"stateMutability":"view"},{"type":"function","name":"proxiableUUID","inputs":[],"outputs":[{"name":"","type":"bytes32","internalType":"bytes32"}],"stateMutability":"view"},{"type":"function","name":"registerRemoteDomain","inputs":[{"name":"remoteDomain","type":"uint32","internalType":"uint32"},{"name":"domainManager","type":"address","internalType":"address"},{"name":"domainPauser","type":"address","internalType":"address"},{"name":"domainAttesters","type":"address[]","internalType":"address[]"},{"name":"signatureThreshold","type":"uint256","internalType":"uint256"},{"name":"persistentSignatureBufferDelayBlocks","type":"uint256","internalType":"uint256"},{"name":"remoteDomainHookExecutor","type":"address","internalType":"address"}],"outputs":[{"name":"remoteDomainDepositor","type":"address","internalType":"address"}],"stateMutability":"nonpayable"},{"type":"function","name":"registerRemoteToken","inputs":[{"name":"localToken","type":"address","internalType":"address"},{"name":"remoteDomain","type":"uint32","internalType":"uint32"},{"name":"remoteToken","type":"bytes32","internalType":"bytes32"}],"outputs":[],"stateMutability":"nonpayable"},{"type":"function","name":"registrationManager","inputs":[],"outputs":[{"name":"","type":"address","internalType":"address"}],"stateMutability":"view"},{"type":"function","name":"remoteDomainDepositorImplementation","inputs":[],"outputs":[{"name":"","type":"address","internalType":"address"}],"stateMutability":"view"},{"type":"function","name":"renounceOwnership","inputs":[],"outputs":[],"stateMutability":"nonpayable"},{"type":"function","name":"setDomainPauseState","inputs":[{"name":"domain","type":"uint32","internalType":"uint32"},{"name":"depositsPaused","type":"bool","internalType":"bool"},{"name":"withdrawalsPaused","type":"bool","internalType":"bool"}],"outputs":[],"stateMutability":"nonpayable"},{"type":"function","name":"setPersistentSignatureBufferDelay","inputs":[{"name":"remoteDomain","type":"uint32","internalType":"uint32"},{"name":"newDelay","type":"uint256","internalType":"uint256"}],"outputs":[],"stateMutability":"nonpayable"},{"type":"function","name":"setRemoteDomainHookExecutor","inputs":[{"name":"remoteDomain","type":"uint32","internalType":"uint32"},{"name":"newHookExecutor","type":"address","internalType":"address"}],"outputs":[],"stateMutability":"nonpayable"},{"type":"function","name":"setUnlimitedAllowances","inputs":[{"name":"tokens","type":"address[]","internalType":"address[]"}],"outputs":[],"stateMutability":"nonpayable"},{"type":"function","name":"tokenMessenger","inputs":[],"outputs":[{"name":"","type":"address","internalType":"address"}],"stateMutability":"view"},{"type":"function","name":"tokenMessengerV2","inputs":[],"outputs":[{"name":"","type":"address","internalType":"address"}],"stateMutability":"view"},{"type":"function","name":"transferOwnership","inputs":[{"name":"newOwner","type":"address","internalType":"address"}],"outputs":[],"stateMutability":"nonpayable"},{"type":"function","name":"unblocklist","inputs":[{"name":"remoteDomain","type":"uint32","internalType":"uint32"},{"name":"remoteAddress","type":"bytes32","internalType":"bytes32"}],"outputs":[],"stateMutability":"nonpayable"},{"type":"function","name":"unpause","inputs":[],"outputs":[],"stateMutability":"nonpayable"},{"type":"function","name":"updateBlocklister","inputs":[{"name":"blocklister_","type":"address","internalType":"address"}],"outputs":[],"stateMutability":"nonpayable"},{"type":"function","name":"updateDomainManager","inputs":[{"name":"remoteDomain","type":"uint32","internalType":"uint32"},{"name":"newDomainManager","type":"address","internalType":"address"}],"outputs":[],"stateMutability":"nonpayable"},{"type":"function","name":"updatePauser","inputs":[{"name":"newPauser","type":"address","internalType":"address"}],"outputs":[],"stateMutability":"nonpayable"},{"type":"function","name":"updateRegistrationManager","inputs":[{"name":"newManager","type":"address","internalType":"address"}],"outputs":[],"stateMutability":"nonpayable"},{"type":"function","name":"upgradeToAndCall","inputs":[{"name":"newImplementation","type":"address","internalType":"address"},{"name":"data","type":"bytes","internalType":"bytes"}],"outputs":[],"stateMutability":"payable"},{"type":"function","name":"withdraw","inputs":[{"name":"attestationPayload","type":"bytes","internalType":"bytes"},{"name":"signature","type":"bytes","internalType":"bytes"}],"outputs":[],"stateMutability":"nonpayable"},{"type":"event","name":"Blocklisted","inputs":[{"name":"remoteDomain","type":"uint32","indexed":true,"internalType":"uint32"},{"name":"remoteAddress","type":"bytes32","indexed":true,"internalType":"bytes32"}],"anonymous":false},{"type":"event","name":"BlocklisterUpdated","inputs":[{"name":"oldBlocklister","type":"address","indexed":true,"internalType":"address"},{"name":"newBlocklister","type":"address","indexed":true,"internalType":"address"}],"anonymous":false},{"type":"event","name":"DepositedToRemote","inputs":[{"name":"localToken","type":"address","indexed":true,"internalType":"address"},{"name":"value","type":"uint256","indexed":false,"internalType":"uint256"},{"name":"localDepositor","type":"address","indexed":true,"internalType":"address"},{"name":"remoteRecipient","type":"bytes32","indexed":true,"internalType":"bytes32"},{"name":"remoteDomain","type":"uint32","indexed":false,"internalType":"uint32"},{"name":"remoteToken","type":"bytes32","indexed":false,"internalType":"bytes32"},{"name":"maxFee","type":"uint256","indexed":false,"internalType":"uint256"},{"name":"hookData","type":"bytes","indexed":false,"internalType":"bytes"}],"anonymous":false},{"type":"event","name":"DomainPauseStateUpdated","inputs":[{"name":"domain","type":"uint32","indexed":true,"internalType":"uint32"},{"name":"depositsPaused","type":"bool","indexed":false,"internalType":"bool"},{"name":"withdrawalsPaused","type":"bool","indexed":false,"internalType":"bool"}],"anonymous":false},{"type":"event","name":"Initialized","inputs":[{"name":"version","type":"uint64","indexed":false,"internalType":"uint64"}],"anonymous":false},{"type":"event","name":"OwnershipTransferStarted","inputs":[{"name":"previousOwner","type":"address","indexed":true,"internalType":"address"},{"name":"newOwner","type":"address","indexed":true,"internalType":"address"}],"anonymous":false},{"type":"event","name":"OwnershipTransferred","inputs":[{"name":"previousOwner","type":"address","indexed":true,"internalType":"address"},{"name":"newOwner","type":"address","indexed":true,"internalType":"address"}],"anonymous":false},{"type":"event","name":"Paused","inputs":[{"name":"account","type":"address","indexed":false,"internalType":"address"}],"anonymous":false},{"type":"event","name":"PauserUpdated","inputs":[{"name":"oldPauser","type":"address","indexed":true,"internalType":"address"},{"name":"newPauser","type":"address","indexed":true,"internalType":"address"}],"anonymous":false},{"type":"event","name":"RegistrationManagerUpdated","inputs":[{"name":"oldManager","type":"address","indexed":true,"internalType":"address"},{"name":"newManager","type":"address","indexed":true,"internalType":"address"}],"anonymous":false},{"type":"event","name":"RemoteDomainDeregistered","inputs":[{"name":"remoteDomain","type":"uint32","indexed":true,"internalType":"uint32"}],"anonymous":false},{"type":"event","name":"RemoteDomainHookExecutorUpdated","inputs":[{"name":"remoteDomain","type":"uint32","indexed":true,"internalType":"uint32"},{"name":"oldHookExecutor","type":"address","indexed":true,"internalType":"address"},{"name":"newHookExecutor","type":"address","indexed":true,"internalType":"address"}],"anonymous":false},{"type":"event","name":"RemoteDomainRegistered","inputs":[{"name":"remoteDomain","type":"uint32","indexed":true,"internalType":"uint32"},{"name":"remoteDomainManager","type":"address","indexed":true,"internalType":"address"},{"name":"remoteDomainDepositor","type":"address","indexed":true,"internalType":"address"},{"name":"remoteDomainPauser","type":"address","indexed":false,"internalType":"address"},{"name":"remoteDomainAttesters","type":"address[]","indexed":false,"internalType":"address[]"},{"name":"signatureThreshold","type":"uint256","indexed":false,"internalType":"uint256"},{"name":"persistentSignatureBufferDelayBlocks","type":"uint256","indexed":false,"internalType":"uint256"},{"name":"remoteDomainHookExecutor","type":"address","indexed":false,"internalType":"address"}],"anonymous":false},{"type":"event","name":"RemoteTokenDeregistered","inputs":[{"name":"localToken","type":"address","indexed":true,"internalType":"address"},{"name":"remoteDomain","type":"uint32","indexed":true,"internalType":"uint32"},{"name":"remoteToken","type":"bytes32","indexed":true,"internalType":"bytes32"}],"anonymous":false},{"type":"event","name":"RemoteTokenRegistered","inputs":[{"name":"localToken","type":"address","indexed":true,"internalType":"address"},{"name":"remoteDomain","type":"uint32","indexed":true,"internalType":"uint32"},{"name":"remoteToken","type":"bytes32","indexed":true,"internalType":"bytes32"}],"anonymous":false},{"type":"event","name":"TokenSupported","inputs":[{"name":"token","type":"address","indexed":true,"internalType":"address"}],"anonymous":false},{"type":"event","name":"Unblocklisted","inputs":[{"name":"remoteDomain","type":"uint32","indexed":true,"internalType":"uint32"},{"name":"remoteAddress","type":"bytes32","indexed":true,"internalType":"bytes32"}],"anonymous":false},{"type":"event","name":"Unpaused","inputs":[{"name":"account","type":"address","indexed":false,"internalType":"address"}],"anonymous":false},{"type":"event","name":"Upgraded","inputs":[{"name":"implementation","type":"address","indexed":true,"internalType":"address"}],"anonymous":false},{"type":"event","name":"Withdrawn","inputs":[{"name":"localToken","type":"address","indexed":true,"internalType":"address"},{"name":"value","type":"uint256","indexed":false,"internalType":"uint256"},{"name":"remoteDepositor","type":"bytes32","indexed":true,"internalType":"bytes32"},{"name":"localRecipient","type":"address","indexed":true,"internalType":"address"},{"name":"remoteDomain","type":"uint32","indexed":false,"internalType":"uint32"},{"name":"remoteToken","type":"bytes32","indexed":false,"internalType":"bytes32"},{"name":"transferSpecHash","type":"bytes32","indexed":false,"internalType":"bytes32"}],"anonymous":false},{"type":"error","name":"AccountBlocklisted","inputs":[{"name":"remoteDomain","type":"uint32","internalType":"uint32"},{"name":"remoteAddress","type":"bytes32","internalType":"bytes32"}]},{"type":"error","name":"AddressEmptyCode","inputs":[{"name":"target","type":"address","internalType":"address"}]},{"type":"error","name":"AddressInsufficientBalance","inputs":[{"name":"account","type":"address","internalType":"address"}]},{"type":"error","name":"Create2EmptyBytecode","inputs":[]},{"type":"error","name":"Create2FailedDeployment","inputs":[]},{"type":"error","name":"Create2InsufficientBalance","inputs":[{"name":"balance","type":"uint256","internalType":"uint256"},{"name":"needed","type":"uint256","internalType":"uint256"}]},{"type":"error","name":"CursorOutOfBounds","inputs":[]},{"type":"error","name":"DepositPayloadDataTooShort","inputs":[{"name":"expected","type":"uint256","internalType":"uint256"},{"name":"actual","type":"uint256","internalType":"uint256"}]},{"type":"error","name":"DepositPayloadHeaderTooShort","inputs":[{"name":"expected","type":"uint256","internalType":"uint256"},{"name":"actual","type":"uint256","internalType":"uint256"}]},{"type":"error","name":"DepositPayloadOverallLengthMismatch","inputs":[{"name":"expected","type":"uint256","internalType":"uint256"},{"name":"actual","type":"uint256","internalType":"uint256"}]},{"type":"error","name":"DomainDepositsPaused","inputs":[{"name":"domain","type":"uint32","internalType":"uint32"}]},{"type":"error","name":"DomainWithdrawalsPaused","inputs":[{"name":"domain","type":"uint32","internalType":"uint32"}]},{"type":"error","name":"ERC1967InvalidImplementation","inputs":[{"name":"implementation","type":"address","internalType":"address"}]},{"type":"error","name":"ERC1967NonPayable","inputs":[]},{"type":"error","name":"EnforcedPause","inputs":[]},{"type":"error","name":"ExpectedPause","inputs":[]},{"type":"error","name":"FailedInnerCall","inputs":[]},{"type":"error","name":"ForwardingCalldataTooShort","inputs":[{"name":"length","type":"uint32","internalType":"uint32"}]},{"type":"error","name":"HookDataEmpty","inputs":[]},{"type":"error","name":"InvalidAddressPadding","inputs":[{"name":"invalidBytes32","type":"bytes32","internalType":"bytes32"}]},{"type":"error","name":"InvalidDepositAmount","inputs":[{"name":"amount","type":"uint256","internalType":"uint256"}]},{"type":"error","name":"InvalidDepositIntentHookData","inputs":[{"name":"expectedHookDataLength","type":"uint256","internalType":"uint256"},{"name":"depositIntentLength","type":"uint256","internalType":"uint256"}]},{"type":"error","name":"InvalidDepositIntentVersion","inputs":[{"name":"version","type":"uint32","internalType":"uint32"}]},{"type":"error","name":"InvalidDepositPayloadMagic","inputs":[{"name":"magic","type":"bytes4","internalType":"bytes4"}]},{"type":"error","name":"InvalidDestinationRecipient","inputs":[{"name":"destinationRecipient","type":"bytes32","internalType":"bytes32"}]},{"type":"error","name":"InvalidForwardingCalldata","inputs":[{"name":"forwardingCalldata","type":"bytes","internalType":"bytes"}]},{"type":"error","name":"InvalidForwardingContract","inputs":[{"name":"forwardingContract","type":"address","internalType":"address"}]},{"type":"error","name":"InvalidFunctionSelector","inputs":[{"name":"functionSelector","type":"bytes4","internalType":"bytes4"}]},{"type":"error","name":"InvalidImplementation","inputs":[]},{"type":"error","name":"InvalidInitialization","inputs":[]},{"type":"error","name":"InvalidWithdrawHookDataForwardingCalldata","inputs":[{"name":"expectedForwardingCalldataLength","type":"uint256","internalType":"uint256"},{"name":"withdrawHookDataLength","type":"uint256","internalType":"uint256"}]},{"type":"error","name":"InvalidWithdrawHookDataMagic","inputs":[{"name":"actualMagic","type":"bytes4","internalType":"bytes4"}]},{"type":"error","name":"InvalidWithdrawHookDataVersion","inputs":[{"name":"actualVersion","type":"uint32","internalType":"uint32"}]},{"type":"error","name":"LocalTokenAlreadyRegistered","inputs":[{"name":"remoteDomain","type":"uint32","internalType":"uint32"},{"name":"localToken","type":"address","internalType":"address"}]},{"type":"error","name":"LocalTokenNotRegistered","inputs":[{"name":"remoteDomain","type":"uint32","internalType":"uint32"},{"name":"localToken","type":"address","internalType":"address"}]},{"type":"error","name":"NotInitializing","inputs":[]},{"type":"error","name":"OwnableInvalidOwner","inputs":[{"name":"owner","type":"address","internalType":"address"}]},{"type":"error","name":"OwnableUnauthorizedAccount","inputs":[{"name":"account","type":"address","internalType":"address"}]},{"type":"error","name":"ReentrancyGuardReentrantCall","inputs":[]},{"type":"error","name":"RemoteDomainAlreadyRegistered","inputs":[{"name":"remoteDomain","type":"uint32","internalType":"uint32"}]},{"type":"error","name":"RemoteDomainNotRegistered","inputs":[{"name":"remoteDomain","type":"uint32","internalType":"uint32"}]},{"type":"error","name":"RemoteTokenAlreadyRegistered","inputs":[{"name":"remoteDomain","type":"uint32","internalType":"uint32"},{"name":"remoteToken","type":"bytes32","internalType":"bytes32"}]},{"type":"error","name":"RemoteTokenNotRegistered","inputs":[{"name":"remoteDomain","type":"uint32","internalType":"uint32"},{"name":"remoteToken","type":"bytes32","internalType":"bytes32"}]},{"type":"error","name":"SafeERC20FailedOperation","inputs":[{"name":"token","type":"address","internalType":"address"}]},{"type":"error","name":"TransferSpecInvalidHookData","inputs":[{"name":"expectedHookDataLength","type":"uint256","internalType":"uint256"},{"name":"transferSpecLength","type":"uint256","internalType":"uint256"}]},{"type":"error","name":"UUPSUnauthorizedCallContext","inputs":[]},{"type":"error","name":"UUPSUnsupportedProxiableUUID","inputs":[{"name":"slot","type":"bytes32","internalType":"bytes32"}]},{"type":"error","name":"UnauthorizedCaller","inputs":[]},{"type":"error","name":"UnauthorizedDomainPauser","inputs":[{"name":"domain","type":"uint32","internalType":"uint32"},{"name":"caller","type":"address","internalType":"address"}]},{"type":"error","name":"UnsupportedToken","inputs":[{"name":"token","type":"address","internalType":"address"}]},{"type":"error","name":"WithdrawHookDataHeaderTooShort","inputs":[{"name":"expectedMinimumLength","type":"uint256","internalType":"uint256"},{"name":"actualLength","type":"uint256","internalType":"uint256"}]},{"type":"error","name":"WithdrawHookDataOverallLengthMismatch","inputs":[{"name":"expectedTotalLength","type":"uint256","internalType":"uint256"},{"name":"actualTotalLength","type":"uint256","internalType":"uint256"}]},{"type":"error","name":"ZeroAddress","inputs":[]},{"type":"error","name":"ZeroBytes32","inputs":[]},{"type":"error","name":"ZeroValue","inputs":[]}],"bytecode":{"object":"0x610120346101c557601f61621038819003918201601f19168301916001600160401b038311848410176101c9578084926080946040528339810103126101c557610048816101dd565b90610055602082016101dd565b61006d6060610066604085016101dd565b93016101dd565b923060805261007b816101f1565b610084826101f1565b61008d836101f1565b610096846101f1565b60a05260c05260e052610100525f5160206161f05f395f51905f525460ff8160401c166101b6576002600160401b03196001600160401b03821601610160575b604051615fdf90816102118239608051818181611214015261169a015260a0518181816105e501526114eb015260c051818181610628015281816126d0015281816138dc01526141b1015260e05181818161105401528181613e9a015281816141db0152614eeb01526101005181818161246401528181613f6d0152818161420201526150390152f35b6001600160401b0319166001600160401b039081175f5160206161f05f395f51905f52556040519081527fc7f505b2f371ae2175ee4913f4499e1f2633a7b5936321eed1cdaeb6115181d290602090a15f6100d6565b63f92ee8a960e01b5f5260045ffd5b5f80fd5b634e487b7160e01b5f52604160045260245ffd5b51906001600160a01b03821682036101c557565b6001600160a01b03161561020157565b63d92e233d60e01b5f5260045ffdfe60806040526004361015610011575f80fd5b5f3560e01c80630853cd50146103545780630b7a290c1461034f5780630f41efea1461034a578063131b4c0e146103455780631db1f148146103405780632ac227251461033b57806335be904a146103365780633f4ba83a14610331578063440351661461032c57806346117830146103275780634a1b13ea146103225780634e4e94301461031d5780634f1ef286146103185780634f6503cf1461031357806350fbe2d91461030e57806352d1902d14610309578063554bab3c146103045780635c975abb146102ff578063632d2594146102fa5780636c77ee48146102f55780636d69fcaf146102f0578063715018a6146102eb578063730ce252146102e657806375151b63146102e157806379ba5097146102dc5780638456cb59146102d7578063898424bf146102d25780638da5cb5b146102cd5780639cc4ffd4146102c85780639e3d4b53146102c35780639fd0506d146102be578063a67acff1146102b9578063a6d289b7146102b4578063ad3cb1cc146102af578063ae0026a5146102aa578063b3467549146102a5578063b54d9497146102a0578063c25c30251461029b578063c2fb26a614610296578063c3d5fdf114610291578063c47cf5ef1461028c578063d22197f814610287578063e30c397814610282578063e9cafc831461027d578063ea5d0db014610278578063f2fde38b14610273578063f4733b8a1461026e578063f54a69c314610269578063f9b5aa9214610264578063faadb53b1461025f578063fc31b97c1461025a5763ffaeb9af14610255575f80fd5b612d08565b612cbe565b612c25565b612b40565b612b19565b612a5b565b61298c565b6128f9565b6128d2565b61288d565b612764565b6125de565b612590565b61254e565b612521565b6124dc565b612488565b612445565b6123e6565b61236b565b612336565b6122f1565b6121d1565b6120d9565b612094565b612029565b611f69565b611e4b565b611deb565b611c5a565b611b94565b611b6c565b6117f5565b611789565b611717565b6116ea565b611680565b611486565b61139b565b6111d1565b6110ec565b611078565b611035565b610e95565b610da1565b610ce2565b610ac4565b610668565b610609565b6105c6565b6104d9565b610382565b63ffffffff81160361036757565b5f80fd5b359061037682610359565b565b8015150361036757565b346103675760603660031901126103675760043561039f81610359565b6024356103ab81610378565b604435906103b882610378565b6001600160a01b036103e48463ffffffff165f525f516020615f8a5f395f51905f5260205260405f2090565b5416156104c057600460206001600160a01b0361040086613496565b16604051928380927f0f0be1950000000000000000000000000000000000000000000000000000000082525afa80156104bb576001600160a01b03915f9161048c575b5016330361045657610454926134c2565b005b7f38e8d6e9000000000000000000000000000000000000000000000000000000005f5263ffffffff83166004523360245260445ffd5b6104ae915060203d6020116104b4575b6104a68183610960565b810190612d4d565b5f610443565b503d61049c565b612d62565b63ffffffff836387f4e92160e01b5f521660045260245ffd5b34610367576040366003190112610367576004356104f681610359565b602435906001600160a01b037f0d198be05a52a5c37edefdb6959d3bbd2cec5830bf94c2b41b8b04fa134fb901541633036105945763ffffffff16805f527f0d198be05a52a5c37edefdb6959d3bbd2cec5830bf94c2b41b8b04fa134fb90060205260405f20825f5260205260405f2060ff1981541690557f7f7777cdbb9802648ab0296aeb4e3cf230d4237908888761ff9d4af47d4d15055f80a3005b7f5c427cd9000000000000000000000000000000000000000000000000000000005f5260045ffd5b5f91031261036757565b34610367575f3660031901126103675760206040516001600160a01b037f0000000000000000000000000000000000000000000000000000000000000000168152f35b34610367575f3660031901126103675760206040516001600160a01b037f0000000000000000000000000000000000000000000000000000000000000000168152f35b6001600160a01b0381160361036757565b35906103768261064c565b34610367576060366003190112610367576004356106858161064c565b6024359061069282610359565b604435916001600160a01b036106cf6001600160a01b037f5b4e4be47fb1acb1ed4bcf1ef4afe1634200c49767dcbd6314604c0214977905541690565b163303610594576001600160a01b036107028263ffffffff165f525f516020615f8a5f395f51905f5260205260405f2090565b541615610912576107408163ffffffff165f527f5b4e4be47fb1acb1ed4bcf1ef4afe1634200c49767dcbd6314604c021497790060205260405f2090565b835f526020526001600160a01b0360405f2054166108dc576107a9826107938363ffffffff165f527f5b4e4be47fb1acb1ed4bcf1ef4afe1634200c49767dcbd6314604c021497790160205260405f2090565b906001600160a01b03165f5260205260405f2090565b5461089d5763ffffffff6001600160a01b03916107c584614548565b6107ce85614558565b6107d784614134565b61080e8163ffffffff165f527f5b4e4be47fb1acb1ed4bcf1ef4afe1634200c49767dcbd6314604c021497790060205260405f2090565b855f526020526108378460405f20906001600160a01b03166001600160a01b0319825416179055565b84610873856107938463ffffffff165f527f5b4e4be47fb1acb1ed4bcf1ef4afe1634200c49767dcbd6314604c021497790160205260405f2090565b551691167f57caa911b78904f7a9d8fa8e3abdb4ea826a24f763a4a61b0cf4ec0323058fae5f80a4005b9063ffffffff6001600160a01b03927fa4d78ef4000000000000000000000000000000000000000000000000000000005f52166004521660245260445ffd5b63ffffffff91507f415ebb19000000000000000000000000000000000000000000000000000000005f521660045260245260445ffd5b63ffffffff906387f4e92160e01b5f521660045260245ffd5b634e487b7160e01b5f52604160045260245ffd5b60c0810190811067ffffffffffffffff82111761095b57604052565b61092b565b90601f8019910116810190811067ffffffffffffffff82111761095b57604052565b6040519061037661014083610960565b906103766040519283610960565b67ffffffffffffffff811161095b57601f01601f191660200190565b9291926109c8826109a0565b916109d66040519384610960565b829481845281830111610367578281602093845f960137010152565b9080601f8301121561036757816020610a0d933591016109bc565b90565b805180835260209291819084018484015e5f828201840152601f01601f1916010190565b610160610120610a0d9360208452610a5560208501825163ffffffff169052565b60208101516040850152610a766040820151606086019063ffffffff169052565b60608101516080850152608081015160a085015260a081015160c085015260c081015160e085015260e081015161010085015261010081015182850152015191610140808201520190610a10565b346103675760203660031901126103675760043567ffffffffffffffff811161036757610af59036906004016109f2565b610afd612d6d565b50610b06612d6d565b5080519060048210610c8d57610b1b90615618565b610b34610b27826150d1565b6001600160e01b03191690565b6001600160e01b03198116635a2e0acd60e01b03610c5857610c547affffffffffffffffffffffffffffffffffffffffffffffffffffff83167e5a2e0acd00000000000000000000000000000000000000000000000000000017610b9781614587565b610ba0816146cc565b90610baa81614a75565b90610bb4816146de565b610bbd82615224565b610bc68361527c565b610bcf846152d4565b90610bd98561532c565b92610c23610be687614a82565b95610bf9610bf389615384565b986146eb565b98610c11610c05610982565b63ffffffff909c168c52565b60208b015263ffffffff1660408a0152565b6060880152608087015260a086015260c085015260e084015261010083015261012082015260405191829182610a34565b0390f35b7f291c27fb000000000000000000000000000000000000000000000000000000005f526001600160e01b03191660045260245ffd5b507f47001b53000000000000000000000000000000000000000000000000000000005f526004805260245260445ffd5b604090600319011261036757600435610cd581610359565b90602435610a0d8161064c565b3461036757610cf036610cbd565b610cf8613592565b5f916001600160a01b03610d268263ffffffff165f525f516020615f8a5f395f51905f5260205260405f2090565b54161561091257610d3e6001600160a01b0391613496565b1690813b15610367576001600160a01b0360245f928360405195869485937fa07d72d50000000000000000000000000000000000000000000000000000000085521660048401525af180156104bb57610d95575080f35b61045491505f90610960565b34610367575f366003190112610367576001600160a01b037fc1b0aef4073b36d82bede1f3d73be2d41f403b88ee64d408639974796975b80054163303610594577fcd5ed15c6e187e77e9aee88184c21f4f2182ab5827cb3b7e07fbedcd63f033005460ff811615610e5f5760ff19167fcd5ed15c6e187e77e9aee88184c21f4f2182ab5827cb3b7e07fbedcd63f03300557f5db9ee0a495bf2e6ff9c91a7834c1ba4fdd244a5e8aa4e537bd38aeae4b073aa6020604051338152a1005b7f8dfc202b000000000000000000000000000000000000000000000000000000005f5260045ffd5b908160c09103126103675790565b346103675760403660031901126103675760043567ffffffffffffffff811161036757610ec6903690600401610e87565b6024359067ffffffffffffffff82116103675781600401916060600319823603011261036757610ef46135c5565b813592610f0360208401612dc9565b90610f226040850135926060860193610f1b85612dd3565b918861363c565b610f3d610f31610f3184612dd3565b6001600160a01b031690565b610f4682612dd3565b93610f5960446024830135920184612ddd565b929095813b15610367575f8991610fa382966040519a8b97889687957f9fd5a6cf000000000000000000000000000000000000000000000000000000008752309060048801612e30565b03925af19182156104bb57610ff295610fcf610f31610fe093610fed97610fe59761101b575b50612dd3565b3090610fda85612dd3565b90613746565b612dd3565b913690612e64565b613830565b61045460017f9b779b17422d0df92223018b32b4d1fa46e071723d6817e2486d003becc55f0055565b806110295f61102f93610960565b806105bc565b5f610fc9565b34610367575f3660031901126103675760206040516001600160a01b037f0000000000000000000000000000000000000000000000000000000000000000168152f35b3461036757602036600319011261036757602060ff6110cf60043561109c81610359565b63ffffffff165f527fc1b0aef4073b36d82bede1f3d73be2d41f403b88ee64d408639974796975b80160205260405f2090565b54166040519015158152f35b906020610a0d928181520190610a10565b346103675760203660031901126103675760043567ffffffffffffffff811161036757610140600319823603011261036757611126610982565b906111338160040161036b565b82526024810135602083015261114b6044820161036b565b6040830152606481013560608301526084810135608083015260a481013560a083015260c481013560c083015260e481013560e08301526101048101356101008301526101248101359167ffffffffffffffff8311610367576111ba6111c5926004610c5495369201016109f2565b610120820152613a7e565b604051918291826110db565b6040366003190112610367576004356111e98161064c565b60243567ffffffffffffffff8111610367576112099036906004016109f2565b906001600160a01b037f000000000000000000000000000000000000000000000000000000000000000016803014908115611366575b5061133e5761124c613592565b604051917f52d1902d0000000000000000000000000000000000000000000000000000000083526020836004816001600160a01b0386165afa5f938161130d575b506112ae57634c9c8ce360e01b5f526001600160a01b03821660045260245ffd5b907f360894a13ba1a3210667c828492db98dca3e2076cc3735a920a3ca505d382bbc83036112e05761045492506148a7565b7faa1d49a4000000000000000000000000000000000000000000000000000000005f52600483905260245ffd5b61133091945060203d602011611337575b6113288183610960565b810190613aec565b925f61128d565b503d61131e565b7fe07c8dba000000000000000000000000000000000000000000000000000000005f5260045ffd5b90506001600160a01b037f360894a13ba1a3210667c828492db98dca3e2076cc3735a920a3ca505d382bbc541614155f61123f565b34610367575f6040366003190112610367576004356113b981610359565b602435906113c5613592565b6001600160a01b036113f18263ffffffff165f525f516020615f8a5f395f51905f5260205260405f2090565b541615610912576114096001600160a01b0391613496565b1690813b15610367575f916024839260405194859384927fd7e6962700000000000000000000000000000000000000000000000000000000845260048401525af180156104bb57610d95575080f35b9181601f840112156103675782359167ffffffffffffffff8311610367576020838186019501011161036757565b346103675760403660031901126103675760043567ffffffffffffffff8111610367576114b7903690600401611458565b60243567ffffffffffffffff8111610367576114d7903690600401611458565b92906114e16135c5565b6001600160a01b037f00000000000000000000000000000000000000000000000000000000000000001693843b1561036757611551945f92836040518098819582947f9fb01cc50000000000000000000000000000000000000000000000000000000084528a8a60048601612ee2565b03925af19182156104bb57611576936115719361166c575b5036916109bc565b613afb565b608081015b61158c6115888251151590565b1590565b15610ff25761158861158c917fc06518a0df01a1d581a7acae597931a9669783104fef2072bdf3e0fd9ce950026115ca6115c586613c3b565b613d33565b6001600160a01b036115e4826115df81613d50565b613dcf565b94919290936116616115f582614a67565b9461160761160284615159565b614066565b97611632611617611602866151cc565b946001600160601b0380808360781c169260181c1691162090565b9185604051968796169a1697859094939263ffffffff6060936080840197845216602083015260408201520152565b0390a491505061157b565b806110295f61167a93610960565b5f611569565b34610367575f366003190112610367576001600160a01b037f000000000000000000000000000000000000000000000000000000000000000016300361133e5760206040517f360894a13ba1a3210667c828492db98dca3e2076cc3735a920a3ca505d382bbc8152f35b346103675760203660031901126103675761045460043561170a8161064c565b611712613592565b6140a5565b34610367575f36600319011261036757602060ff7fcd5ed15c6e187e77e9aee88184c21f4f2182ab5827cb3b7e07fbedcd63f0330054166040519015158152f35b9181601f840112156103675782359167ffffffffffffffff8311610367576020808501948460051b01011161036757565b346103675760203660031901126103675760043567ffffffffffffffff8111610367576117ba903690600401611758565b905f5b8281106117c657005b806117ef6117d76001938686612f1d565b356117e18161064c565b6117ea81614134565b61419f565b016117bd565b346103675760c03660031901126103675760043561181281610359565b6024359061181f8261064c565b6044359061182c8261064c565b606435916118398361064c565b60843567ffffffffffffffff811161036757611859903690600401611758565b91909260a435956118698761064c565b7ff0c57e16840df040f15088dc2f81fe391c3923bec73e23a9662efc9c229c6a00549060ff8260401c168015611b57575b611b2f577fffffffffffffffffffffffffffffffffffffffffffffff0000000000000000009190911668010000000000000002177ff0c57e16840df040f15088dc2f81fe391c3923bec73e23a9662efc9c229c6a0055611904906118fc6155c1565b6117126155c1565b61190c6155c1565b6001600160a01b0382168015611b075763ffffffff926119ab6001600160a01b037f0d198be05a52a5c37edefdb6959d3bbd2cec5830bf94c2b41b8b04fa134fb9015416916001600160a01b03166001600160a01b03197f0d198be05a52a5c37edefdb6959d3bbd2cec5830bf94c2b41b8b04fa134fb9015416177f0d198be05a52a5c37edefdb6959d3bbd2cec5830bf94c2b41b8b04fa134fb90155565b7fa9c03f0c41566a3ba656e6051bc59549787de0a353986cba9488fae5b46156845f80a36119d76155c1565b1663ffffffff197f8fadb1ee53eb9315f14ed344b360999a6bf6db266066acf6d0a7a70190dedf005416177f8fadb1ee53eb9315f14ed344b360999a6bf6db266066acf6d0a7a70190dedf0055611a2c6155c1565b5f5b818110611ae157611a3f8486614227565b611a476142d4565b611ab27fffffffffffffffffffffffffffffffffffffffffffffff00ffffffffffffffff7ff0c57e16840df040f15088dc2f81fe391c3923bec73e23a9662efc9c229c6a0054167ff0c57e16840df040f15088dc2f81fe391c3923bec73e23a9662efc9c229c6a0055565b604051600281527fc7f505b2f371ae2175ee4913f4499e1f2633a7b5936321eed1cdaeb6115181d290602090a1005b80611b01611af26001938587612f1d565b35611afc8161064c565b61430a565b01611a2e565b7fd92e233d000000000000000000000000000000000000000000000000000000005f5260045ffd5b7ff92ee8a9000000000000000000000000000000000000000000000000000000005f5260045ffd5b50600267ffffffffffffffff8316101561189a565b3461036757602036600319011261036757610454600435611b8c8161064c565b611afc613592565b34610367575f36600319011261036757611bac613592565b7f237e158222e3e6968b72b9db0d8043aacf074ad9f650f0d1606b4d82ee432c0080546001600160a01b03191690555f6001600160a01b037f9016d09d72d40fdae2fd8ceac6b6234c7706214fd39c1cd1e609a0528c199300546001600160a01b031981167f9016d09d72d40fdae2fd8ceac6b6234c7706214fd39c1cd1e609a0528c19930055167f8be0079c531659141344cd1fd0a4f28419497f9722a3daafe3b4186f6b6457e08280a3005b3461036757604036600319011261036757600435611c7781610359565b60243590611c83613592565b6001600160a01b03611caf8263ffffffff165f525f516020615f8a5f395f51905f5260205260405f2090565b54161561091257611ced8163ffffffff165f527f5b4e4be47fb1acb1ed4bcf1ef4afe1634200c49767dcbd6314604c021497790060205260405f2090565b825f526020526001600160a01b0360405f205416908115611dce5780611d69611d5985611d4c63ffffffff9563ffffffff165f527f5b4e4be47fb1acb1ed4bcf1ef4afe1634200c49767dcbd6314604c021497790060205260405f2090565b905f5260205260405f2090565b80546001600160a01b0319169055565b5f611da5846107938463ffffffff165f527f5b4e4be47fb1acb1ed4bcf1ef4afe1634200c49767dcbd6314604c021497790160205260405f2090565b5516907f5898a8a35af1fa742a812cc6c5f3fdbf7eccb455c6347be805d62454306f79ca5f80a4005b63ffffffff91506308b46c1960e01b5f521660045260245260445ffd5b34610367576020366003190112610367576001600160a01b03600435611e108161064c565b165f527f3630dbf8799c23cdb29523cafe2b04203ab0622ee7e77cc015c2780e9d22b100602052602060ff60405f2054166040519015158152f35b34610367575f36600319011261036757336001600160a01b037f237e158222e3e6968b72b9db0d8043aacf074ad9f650f0d1606b4d82ee432c00541603611f3d577f237e158222e3e6968b72b9db0d8043aacf074ad9f650f0d1606b4d82ee432c0080546001600160a01b03191690557f9016d09d72d40fdae2fd8ceac6b6234c7706214fd39c1cd1e609a0528c19930054336001600160a01b03198216177f9016d09d72d40fdae2fd8ceac6b6234c7706214fd39c1cd1e609a0528c199300556001600160a01b033391167f8be0079c531659141344cd1fd0a4f28419497f9722a3daafe3b4186f6b6457e05f80a3005b7f118cdaa7000000000000000000000000000000000000000000000000000000005f523360045260245ffd5b34610367575f366003190112610367576001600160a01b037fc1b0aef4073b36d82bede1f3d73be2d41f403b88ee64d408639974796975b8005416330361059457611fb261475a565b600160ff197fcd5ed15c6e187e77e9aee88184c21f4f2182ab5827cb3b7e07fbedcd63f033005416177fcd5ed15c6e187e77e9aee88184c21f4f2182ab5827cb3b7e07fbedcd63f03300557f62e78cea01bee320cd4e420270b5ea74000d11b0c9f74754ebdbfc544b05a2586020604051338152a1005b346103675760403660031901126103675760043561204681610359565b63ffffffff60243591165f527f0d198be05a52a5c37edefdb6959d3bbd2cec5830bf94c2b41b8b04fa134fb90060205260405f20905f52602052602060ff60405f2054166040519015158152f35b34610367575f3660031901126103675760206001600160a01b037f9016d09d72d40fdae2fd8ceac6b6234c7706214fd39c1cd1e609a0528c1993005416604051908152f35b346103675760203660031901126103675763ffffffff6004356120fb81610359565b612103613592565b6001600160a01b0361212f8263ffffffff165f525f516020615f8a5f395f51905f5260205260405f2090565b5416156121be5761215d611d598263ffffffff165f525f516020615f8a5f395f51905f5260205260405f2090565b612197611d598263ffffffff165f527f5b4e4be47fb1acb1ed4bcf1ef4afe1634200c49767dcbd6314604c021497790360205260405f2090565b167ff2ee813fdf36bc1a965ed167f94514dd23aad7036e6a292ff65a5d44e176ebc75f80a2005b6387f4e92160e01b5f521660045260245ffd5b346103675760403660031901126103675760043567ffffffffffffffff811161036757612202903690600401610e87565b6024359067ffffffffffffffff821161036757816004019160a06003198236030112610367576122306135c5565b813561225e610f31610f3161224760208701612dc9565b610fe06040880135916060890192610f1b84612dd3565b9061226885612dd3565b9160248401359160448501359461228760846064830135920189612ddd565b959091843b15610367575f9687936122d1926040519a8b998a9889977f88b7ab63000000000000000000000000000000000000000000000000000000008952309060048a01612f32565b03925af180156104bb57610ff293610fed92610fe59261101b5750612dd3565b34610367575f3660031901126103675760206001600160a01b037fc1b0aef4073b36d82bede1f3d73be2d41f403b88ee64d408639974796975b8005416604051908152f35b3461036757604036600319011261036757602061236160043561235881610359565b60243590612f72565b6040519015158152f35b346103675760203660031901126103675760206001600160a01b036123c860043561239581610359565b63ffffffff165f527f5b4e4be47fb1acb1ed4bcf1ef4afe1634200c49767dcbd6314604c021497790360205260405f2090565b5416604051908152f35b604051906123e1602083610960565b5f8252565b34610367575f36600319011261036757610c54604051612407604082610960565b600581527f352e302e300000000000000000000000000000000000000000000000000000006020820152604051918291602083526020830190610a10565b34610367575f3660031901126103675760206040516001600160a01b037f0000000000000000000000000000000000000000000000000000000000000000168152f35b346103675760206124d361079361249e36610cbd565b919063ffffffff165f527f5b4e4be47fb1acb1ed4bcf1ef4afe1634200c49767dcbd6314604c021497790160205260405f2090565b54604051908152f35b34610367575f3660031901126103675760206001600160a01b037f0d198be05a52a5c37edefdb6959d3bbd2cec5830bf94c2b41b8b04fa134fb9015416604051908152f35b34610367576020366003190112610367576104546004356125418161064c565b612549613592565b6143b9565b34610367575f36600319011261036757602063ffffffff7f8fadb1ee53eb9315f14ed344b360999a6bf6db266066acf6d0a7a70190dedf005416604051908152f35b34610367575f3660031901126103675760206001600160a01b037f5b4e4be47fb1acb1ed4bcf1ef4afe1634200c49767dcbd6314604c021497790554166001600160a01b0360405191168152f35b34610367576040366003190112610367576004356125fb8161064c565b60243561260781610359565b6001600160a01b036126338263ffffffff165f525f516020615f8a5f395f51905f5260205260405f2090565b54161561091257612675826107938363ffffffff165f527f5b4e4be47fb1acb1ed4bcf1ef4afe1634200c49767dcbd6314604c021497790160205260405f2090565b541561273e5761268c6001600160a01b0391613496565b81604051937f3ccb64ae0000000000000000000000000000000000000000000000000000000085521660048401521660248201526020816044816001600160a01b037f0000000000000000000000000000000000000000000000000000000000000000165afa80156104bb575f9061270a575b604051908152602090f35b506020813d602011612736575b8161272460209383610960565b8101031261036757610c5490516126ff565b3d9150612717565b9063ffffffff6001600160a01b03926302db0c7f60e01b5f52166004521660245260445ffd5b346103675761277236610cbd565b61277a613592565b6001600160a01b036127a68363ffffffff165f525f516020615f8a5f395f51905f5260205260405f2090565b5416156128745763ffffffff6001600160a01b03806127f28563ffffffff165f527f5b4e4be47fb1acb1ed4bcf1ef4afe1634200c49767dcbd6314604c021497790360205260405f2090565b541692169261284d846128328363ffffffff165f527f5b4e4be47fb1acb1ed4bcf1ef4afe1634200c49767dcbd6314604c021497790360205260405f2090565b906001600160a01b03166001600160a01b0319825416179055565b167f7a34cbf3a160918c03371c118eaf5731919edfd3192df714e73315109e6378cf5f80a4005b63ffffffff826387f4e92160e01b5f521660045260245ffd5b34610367575f3660031901126103675760206001600160a01b037f237e158222e3e6968b72b9db0d8043aacf074ad9f650f0d1606b4d82ee432c005416604051908152f35b346103675760203660031901126103675760206123616004356128f481610359565b613045565b346103675760e03660031901126103675760043561291681610359565b6024356129228161064c565b6044359161292f8361064c565b6064359167ffffffffffffffff831161036757610c5493612957612972943690600401611758565b906084359260a4359460c4359661296d8861064c565b613086565b6040516001600160a01b0390911681529081906020820190565b34610367576020366003190112610367576001600160a01b036004356129b18161064c565b6129b9613592565b16806001600160a01b03197f237e158222e3e6968b72b9db0d8043aacf074ad9f650f0d1606b4d82ee432c005416177f237e158222e3e6968b72b9db0d8043aacf074ad9f650f0d1606b4d82ee432c00556001600160a01b037f9016d09d72d40fdae2fd8ceac6b6234c7706214fd39c1cd1e609a0528c19930054167f38d16b8cac22d99fc7c124b9cd0de2d3fa1faef420bfe791d8c362d765e227005f80a3005b3461036757604036600319011261036757600435612a7881610359565b602435906001600160a01b037f0d198be05a52a5c37edefdb6959d3bbd2cec5830bf94c2b41b8b04fa134fb901541633036105945763ffffffff16805f527f0d198be05a52a5c37edefdb6959d3bbd2cec5830bf94c2b41b8b04fa134fb90060205260405f20825f5260205260405f20600160ff198254161790557f03680f8f1944cca4803ec9e741808c6da8c26ca833b0ac0ea0f55bc58a84a44f5f80a3005b34610367576020366003190112610367576020612361600435612b3b81610359565b613463565b3461036757602036600319011261036757600435612b5d8161064c565b612b65613592565b6001600160a01b038116908115611b0757612bff6001600160a01b037f0d198be05a52a5c37edefdb6959d3bbd2cec5830bf94c2b41b8b04fa134fb9015416916001600160a01b03166001600160a01b03197f0d198be05a52a5c37edefdb6959d3bbd2cec5830bf94c2b41b8b04fa134fb9015416177f0d198be05a52a5c37edefdb6959d3bbd2cec5830bf94c2b41b8b04fa134fb90155565b7fa9c03f0c41566a3ba656e6051bc59549787de0a353986cba9488fae5b46156845f80a3005b346103675760c036600319011261036757600435602435612c4581610359565b6044359160643590612c568261064c565b6084359160a4359467ffffffffffffffff861161036757612c90612c81612c98973690600401611458565b612c896135c5565b36916109bc565b9433936144d9565b60017f9b779b17422d0df92223018b32b4d1fa46e071723d6817e2486d003becc55f0055005b346103675760203660031901126103675760206001600160a01b036123c8600435612ce881610359565b63ffffffff165f525f516020615f8a5f395f51905f5260205260405f2090565b34610367575f3660031901126103675760206001600160a01b037f5b4e4be47fb1acb1ed4bcf1ef4afe1634200c49767dcbd6314604c02149779045416604051908152f35b908160209103126103675751610a0d8161064c565b6040513d5f823e3d90fd5b60405190610140820182811067ffffffffffffffff82111761095b576040526060610120835f81525f60208201525f60408201525f838201525f60808201525f60a08201525f60c08201525f60e08201525f6101008201520152565b35610a0d81610359565b35610a0d8161064c565b903590601e1981360301821215610367570180359067ffffffffffffffff82116103675760200191813603831361036757565b908060209392818452848401375f828201840152601f01601f1916010190565b91926001600160a01b0360a09481610a0d999794168552166020840152604083015260608201528160808201520191612e10565b919060c0838203126103675760405190612e7d8261093f565b8193803583526020810135612e9181610359565b602084015260408101356040840152612eac6060820161065d565b60608401526080810135608084015260a08101359167ffffffffffffffff83116103675760a092612edd92016109f2565b910152565b9290612efb90610a0d9593604086526040860191612e10565b926020818503910152612e10565b634e487b7160e01b5f52603260045260245ffd5b9190811015612f2d5760051b0190565b612f09565b9390926001600160a01b0360e0969381610a0d9b999616875216602086015260408501526060840152608083015260a08201528160c08201520191612e10565b612fa99063ffffffff165f527f5b4e4be47fb1acb1ed4bcf1ef4afe1634200c49767dcbd6314604c021497790060205260405f2090565b905f526020526001600160a01b0360405f205416151590565b6130016001600160a01b039163ffffffff165f527f5b4e4be47fb1acb1ed4bcf1ef4afe1634200c49767dcbd6314604c021497790360205260405f2090565b541690565b906107936130419263ffffffff165f527f5b4e4be47fb1acb1ed4bcf1ef4afe1634200c49767dcbd6314604c021497790160205260405f2090565b5490565b61307e60ff9163ffffffff165f527fc1b0aef4073b36d82bede1f3d73be2d41f403b88ee64d408639974796975b80160205260405f2090565b5460081c1690565b9695919293956001600160a01b036130c56001600160a01b037f5b4e4be47fb1acb1ed4bcf1ef4afe1634200c49767dcbd6314604c0214977905541690565b163303610594576001600160a01b036130f88963ffffffff165f525f516020615f8a5f395f51905f5260205260405f2090565b54166133465790849392916040516020810190806131238c8491909163ffffffff6020820193169052565b03601f19810182526131359082610960565b5190206102a861314760208201610992565b90808252615ce260208301397f5b4e4be47fb1acb1ed4bcf1ef4afe1634200c49767dcbd6314604c0214977904546001600160a01b0316906131876123d2565b60405192839161319a9160208401613378565b03601f19810183526131ac9083610960565b604051918291602083016131bf91613398565b6131c891613398565b03601f19810182526131da9082610960565b6131e391614467565b98896132098263ffffffff165f525f516020615f8a5f395f51905f5260205260405f2090565b9061322991906001600160a01b03166001600160a01b0319825416179055565b6001600160a01b03821661326a8263ffffffff165f527f5b4e4be47fb1acb1ed4bcf1ef4afe1634200c49767dcbd6314604c021497790360205260405f2090565b9061328a91906001600160a01b03166001600160a01b0319825416179055565b886001600160a01b038b16968793604051918291888d6001600160a01b038a169763ffffffff16966132bd948d876133ed565b037f2449721a2fd09474518486c8c1c720589b90e3bce68b08c9ac78de303e6a9cc891a4833b15610367576133265f96928793604051998a98899788967f5559267500000000000000000000000000000000000000000000000000000000885260048801613428565b03925af180156104bb57613338575090565b806110295f610a0d93610960565b63ffffffff887f69e5c7ea000000000000000000000000000000000000000000000000000000005f521660045260245ffd5b6040906001600160a01b03610a0d94931681528160208201520190610a10565b805191908290602001825e015f815290565b916020908281520191905f5b8181106133c35750505090565b9091926020806001926001600160a01b0387356133df8161064c565b1681520194019291016133b6565b94906080949796926001600160a01b0394856134179316885260a0602089015260a08801916133aa565b966040860152606085015216910152565b9290936001600160a01b0361345993816080979a99989a16865216602085015260a0604085015260a08401916133aa565b9460608201520152565b61348f6001600160a01b039163ffffffff165f525f516020615f8a5f395f51905f5260205260405f2090565b5416151590565b6130016001600160a01b039163ffffffff165f525f516020615f8a5f395f51905f5260205260405f2090565b63ffffffff6040917faeae9df21785d6fc7df188888bd18094a23b228565bc63c0d5f257b963bf028493946135248263ffffffff165f527fc1b0aef4073b36d82bede1f3d73be2d41f403b88ee64d408639974796975b80160205260405f2090565b60ff1981541660ff8815151617905561356a8263ffffffff165f527fc1b0aef4073b36d82bede1f3d73be2d41f403b88ee64d408639974796975b80160205260405f2090565b90151590805461ff008360081b169061ff0019161790558351951515865260208601521692a2565b6001600160a01b037f9016d09d72d40fdae2fd8ceac6b6234c7706214fd39c1cd1e609a0528c19930054163303611f3d57565b60027f9b779b17422d0df92223018b32b4d1fa46e071723d6817e2486d003becc55f0054146136145760027f9b779b17422d0df92223018b32b4d1fa46e071723d6817e2486d003becc55f0055565b7f3ee5aeb5000000000000000000000000000000000000000000000000000000005f5260045ffd5b9190911561371e5761364d83614548565b61365561475a565b60ff61368e8363ffffffff165f527fc1b0aef4073b36d82bede1f3d73be2d41f403b88ee64d408639974796975b80160205260405f2090565b54166136ec5761369d82613463565b15612874576136b5906136af84614134565b826147ad565b6136bf8282613006565b156136c8575050565b6302db0c7f60e01b5f5263ffffffff166004526001600160a01b031660245260445ffd5b63ffffffff827f14e2708f000000000000000000000000000000000000000000000000000000005f521660045260245ffd5b7f7c946ed7000000000000000000000000000000000000000000000000000000005f5260045ffd5b6040517f23b872dd0000000000000000000000000000000000000000000000000000000060208201526001600160a01b039283166024820152929091166044830152606480830193909352918152610376916137a3608483610960565b614837565b919263ffffffff60a094610a0d9796938552166020840152604083015260608201528160808201520190610a10565b60e060a0610a0d93602084528051602085015263ffffffff6020820151166040850152604081015160608501526001600160a01b03606082015116608085015260808101518285015201519160c0808201520190610a10565b906060820161384681516001600160a01b031690565b8351906040850151917f2eef4ec627e0f99d1cc55f26e234a6066090b7bc0b3f61245f1f2d7c91d3e5636001600160a01b0360208801966138b561388e895163ffffffff1690565b6138988782613006565b60808c01519060a08d01519286604051978897169a1698866137a8565b0390a46138ce6138c9835163ffffffff1690565b613496565b9061390a6001600160a01b037f00000000000000000000000000000000000000000000000000000000000000001691516001600160a01b031690565b90845190803b15610367576040517fb3db428b0000000000000000000000000000000000000000000000000000000081526001600160a01b03938416600482015293909216602484015260448301525f908290606490829084905af180156104bb576001600160a01b03926139929261398d92613a00575b505163ffffffff1690565b612fc2565b168061399c575050565b803b15610367576139e05f929183926040519485809481937fd0d756dc000000000000000000000000000000000000000000000000000000008352600483016137d7565b03925af180156104bb576139f2575b50565b806110295f61037693610960565b806110295f613a0e93610960565b5f613982565b97936001600160e01b0319809894610a0d9d9c98948260f09d9995635a2e0acd60e01b8e5260e01b1660048d015260088c015260e01b1660288a0152602c890152604c880152606c870152608c86015260ac85015260cc84015260e01b1660ec8201520190613398565b610a0d63ffffffff825116613ade60208401519363ffffffff604082015116606082015191608081015160a082015160c08301519060e0840151926101206101008601519501519663ffffffff885116966040519c8d9b60208d01613a14565b03601f198101835282610960565b90816020910312610367575190565b9060405160a0810181811067ffffffffffffffff82111761095b576040525f815260208101905f825260408101915f835260608201925f845260808301915f83525f613b47859861498a565b62ffffff19811686529552613b5e61158886614a31565b613b93575050505063ffffffff613b77610376926146cc565b6008602086015263ffffffff8116604086015216156080840152565b613ba792939596505f945084905260019052565b5290565b634e487b7160e01b5f52601160045260245ffd5b9060248201809211613bcd57565b613bab565b91908201809211613bcd57565b63ffffffff166028019063ffffffff8211613bcd57565b63ffffffff1660f0019063ffffffff8211613bcd57565b63ffffffff166070019063ffffffff8211613bcd57565b63ffffffff1663ffffffff8114613bcd5760010190565b608081018051613d0b57815162ffffff191691613c7d613c6f613c78613c6f6020850196613c698851613bbf565b90614a5b565b63ffffffff1690565b613bdf565b92613ca9613ca1613c92845162ffffff191690565b8351879063ff6fb33492614c79565b948251613bd2565b905263ffffffff613cf8613c6f6040613cec60608601613ce2613cd8613cd3835163ffffffff1690565b613c24565b63ffffffff168252565b5163ffffffff1690565b94015163ffffffff1690565b91161015613d04575090565b6001905290565b7f9b2914b8000000000000000000000000000000000000000000000000000000005f5260045ffd5b613d406004602483615434565b610a0d9160e09190911c90614a8f565b63ffffffff613d5e82614cdb565b16908115613dc057613d708282614b48565b915b62ffffff1983811614613d8457505090565b6001600160601b0392507f397c9446000000000000000000000000000000000000000000000000000000005f5260045260181c1660245260445ffd5b613dc981614af4565b91613d72565b9063ffffffff613dde82614cdb565b161561403e57613ded82614ce9565b613df682614e4e565b92613e0083615224565b8093613e0b816153dc565b8094613e1561475a565b613e2161158889613463565b61402557613e2e88613045565b613ff357613e3c84896147ad565b613e49611588838a612f72565b613fd557613e596116028461527c565b936001600160a01b038516928315613fca575050613e76906151cc565b613e7f81614066565b6001600160a01b0330911603613f9f57506001600160a01b037f0000000000000000000000000000000000000000000000000000000000000000168114159081613f6b575b81613f60575b50613f2b57613ed881614e5b565b600463ffffffff821610613efa575090613ef461037692614e68565b90614ed7565b7f06b758f4000000000000000000000000000000000000000000000000000000005f5263ffffffff1660045260245ffd5b7f6789bd6a000000000000000000000000000000000000000000000000000000005f526001600160a01b03821660045260245ffd5b90503014155f613eca565b7f00000000000000000000000000000000000000000000000000000000000000006001600160a01b03168114159150613ec4565b7f9e8b5d8d000000000000000000000000000000000000000000000000000000005f5260045260245ffd5b909750955050505050565b6308b46c1960e01b5f5263ffffffff8816600452602482905260445ffd5b7fb25734f3000000000000000000000000000000000000000000000000000000005f5263ffffffff881660045260245ffd5b6387f4e92160e01b5f5263ffffffff881660045260245ffd5b7f746cb28c000000000000000000000000000000000000000000000000000000005f5260045ffd5b8060a01c61407a576001600160a01b031690565b7f6dd67bf6000000000000000000000000000000000000000000000000000000005f5260045260245ffd5b6001600160a01b03168015611b07576001600160a01b037fc1b0aef4073b36d82bede1f3d73be2d41f403b88ee64d408639974796975b80054826001600160a01b03198216177fc1b0aef4073b36d82bede1f3d73be2d41f403b88ee64d408639974796975b80055167f1ff153f4b082245afbf3211a8d2d207da4c5df490e965f9a9ad141b0cd001dda5f80a3565b6001600160a01b0316805f527f3630dbf8799c23cdb29523cafe2b04203ab0622ee7e77cc015c2780e9d22b10060205260ff60405f205416156141745750565b7fbf16aab6000000000000000000000000000000000000000000000000000000005f5260045260245ffd5b6001600160a01b0361037691166141d67f0000000000000000000000000000000000000000000000000000000000000000826154d6565b6142007f0000000000000000000000000000000000000000000000000000000000000000826154d6565b7f0000000000000000000000000000000000000000000000000000000000000000906154d6565b906142306155c1565b6001600160a01b0382169182159081156142ca575b506142a257610376916001600160a01b03197f5b4e4be47fb1acb1ed4bcf1ef4afe1634200c49767dcbd6314604c02149779045416177f5b4e4be47fb1acb1ed4bcf1ef4afe1634200c49767dcbd6314604c0214977904556143b9565b7f68155f9a000000000000000000000000000000000000000000000000000000005f5260045ffd5b90503b155f614245565b6142dc6155c1565b6142e46155c1565b60017f9b779b17422d0df92223018b32b4d1fa46e071723d6817e2486d003becc55f0055565b61431381614548565b6001600160a01b03811690815f527f3630dbf8799c23cdb29523cafe2b04203ab0622ee7e77cc015c2780e9d22b10060205260ff60405f20541615614356575050565b81610376925f527f3630dbf8799c23cdb29523cafe2b04203ab0622ee7e77cc015c2780e9d22b10060205260405f20600160ff198254161790557fea3145306a87baeba6bb1a8b5c8d3744f840a81cb436b3509f64fc978600cdfb5f80a261419f565b6143c281614548565b6001600160a01b03807f5b4e4be47fb1acb1ed4bcf1ef4afe1634200c49767dcbd6314604c02149779055416911690816001600160a01b03197f5b4e4be47fb1acb1ed4bcf1ef4afe1634200c49767dcbd6314604c02149779055416177f5b4e4be47fb1acb1ed4bcf1ef4afe1634200c49767dcbd6314604c0214977905557f7798c6c27f2d52ec640632e7b35a9427ec45bfe52816e022564bf78474eb3a845f80a3565b908051156144b1576020815191015ff5906001600160a01b0382161561448957565b7f741752c2000000000000000000000000000000000000000000000000000000005f5260045ffd5b7f4ca249dc000000000000000000000000000000000000000000000000000000005f5260045ffd5b93949192610376969363ffffffff6001600160a01b03936144fc8484838b61363c565b30858a1603614535575b604051976145138961093f565b88521660208701526040860152166060840152608083015260a0820152613830565b61454388308b888816613746565b614506565b6001600160a01b031615611b0757565b1561455f57565b7fdff66326000000000000000000000000000000000000000000000000000000005f5260045ffd5b6001600160601b038160181c1660f0811061469c5763ffffffff6145b26145ad84615627565b613bf6565b168082036146655750506145c5816146cc565b600163ffffffff8216036146345750614600906145fb6145e4826152d4565b6145f66145f08461532c565b91614558565b614558565b614a75565b80156146095750565b7f412ed242000000000000000000000000000000000000000000000000000000005f5260045260245ffd5b7f44145da4000000000000000000000000000000000000000000000000000000005f5263ffffffff1660045260245ffd5b7fb4748504000000000000000000000000000000000000000000000000000000005f526004526001600160601b031660245260445ffd5b7f05edad6b000000000000000000000000000000000000000000000000000000005f5260f060045260245260445ffd5b6004806146d892615434565b60e01c90565b600460286146d892615434565b63ffffffff6146f982615627565b16906147058282614ba1565b9162ffffff198084161461471e575050610a0d90615634565b6001600160601b0392507ff8bb7b0b000000000000000000000000000000000000000000000000000000005f5260045260181c1660245260445ffd5b60ff7fcd5ed15c6e187e77e9aee88184c21f4f2182ab5827cb3b7e07fbedcd63f03300541661478557565b7fd93c0665000000000000000000000000000000000000000000000000000000005f5260045ffd5b63ffffffff16805f527f0d198be05a52a5c37edefdb6959d3bbd2cec5830bf94c2b41b8b04fa134fb90060205260405f20825f5260205260ff60405f2054166147f4575050565b7f11c79077000000000000000000000000000000000000000000000000000000005f5260045260245260445ffd5b908160209103126103675751610a0d81610378565b6001600160a01b0361484b91169182615ace565b805190811515918261488c575b50506148615750565b7f5274afe7000000000000000000000000000000000000000000000000000000005f5260045260245ffd5b61489f9250602080918301019101614822565b155f80614858565b90813b1561496e576001600160a01b038216806001600160a01b03197f360894a13ba1a3210667c828492db98dca3e2076cc3735a920a3ca505d382bbc5416177f360894a13ba1a3210667c828492db98dca3e2076cc3735a920a3ca505d382bbc557fbc7cd75a20ee27fd9adebab32041f755214dbc6bffa90cc0225b39da2e5c2d3b5f80a280511561493d576139ef91615759565b50503461494657565b7fb398979f000000000000000000000000000000000000000000000000000000005f5260045ffd5b6001600160a01b0382634c9c8ce360e01b5f521660045260245ffd5b8051614999916020015f615776565b631e12db7160e01b6149aa826150d1565b036149f0577affffffffffffffffffffffffffffffffffffffffffffffffffffff167e1e12db710000000000000000000000000000000000000000000000000000001790565b7affffffffffffffffffffffffffffffffffffffffffffffffffffff167eff6fb3340000000000000000000000000000000000000000000000000000001790565b614a42631e12db7160e01b916150d1565b1490565b60031b906107f860f8831692168203613bcd57565b6146d891600491615434565b6020610110610a0d92615434565b60206008610a0d92615434565b602060ac610a0d92615434565b906001600160601b03808360781c1616916028830192838111613bcd57820160280190818411613bcd57614ad7906001600160601b039081808260781c169160181c16011690565b10614aea57610a0d9163ca85def7615776565b505062ffffff1990565b6001600160601b03808260781c1616906101548201809211613bcd57614b2e906001600160601b039081808260781c169160181c16011690565b8111614b3f575f610a0d9181615776565b5062ffffff1990565b906001600160601b03808360781c161691610154830192838111613bcd5782016101540190818411613bcd57614b92906001600160601b039081808260781c169160181c16011690565b10614aea57610a0d915f615776565b906001600160601b03808360781c16169160f0830192838111613bcd57820160f00190818411613bcd57614b92906001600160601b039081808260781c169160181c16011690565b906001600160601b03808360781c1616916070830192838111613bcd57820160700190818411613bcd57614b92906001600160601b039081808260781c169160181c16011690565b906001600160601b03808360781c1616916004830192838111613bcd57820160040190818411613bcd57614b92906001600160601b039081808260781c169160181c16011690565b6001600160601b03808260781c1616918201809211613bcd5782820190818311613bcd57614cbb906001600160601b039081808260781c169160181c16011690565b10614cd05764ffffffffff610a0d9316615776565b50505062ffffff1990565b60046101506146d892615434565b614cf5610b27826150d1565b7f6b20f62a000000000000000000000000000000000000000000000000000000006001600160e01b0319821603614e1957506001600160601b03601882901c1690819060708210614ddf57614d49816146cc565b600163ffffffff821603614dae5750613c6f614d67614d6c92614e5b565b613c0d565b809103614d77575050565b7fb69052a7000000000000000000000000000000000000000000000000000000005f526004526001600160601b031660245260445ffd5b7f544ca5f7000000000000000000000000000000000000000000000000000000005f5263ffffffff1660045260245ffd5b7f92c0f32f000000000000000000000000000000000000000000000000000000005f5260706004526001600160601b03831660245260445ffd5b7ffbeaf2ea000000000000000000000000000000000000000000000000000000005f526001600160e01b03191660045260245ffd5b600460086146d892615434565b6004606c6146d892615434565b63ffffffff614e7682614e5b565b1690614e828282614be9565b9162ffffff1980841614614e9b575050610a0d90615634565b6001600160601b0392507f30a872aa000000000000000000000000000000000000000000000000000000005f5260045260181c1660245260445ffd5b6001600160a01b0381166001600160a01b037f000000000000000000000000000000000000000000000000000000000000000016811490811561502d575b5015614f2557906139ef91615ace565b50614f2f81615618565b90614f3c610b27836150d1565b7ffaadb53b000000000000000000000000000000000000000000000000000000006001600160e01b0319821603614ff8575060e4815110614fbe57614f99614f9461037693614f8e614fa894516157a4565b90614c31565b615634565b602080825183010191016157b3565b94919290936001600160a01b03309416926144d9565b614ff4906040519182917fee4a758e000000000000000000000000000000000000000000000000000000008352600483016110db565b0390fd5b7f432df3c4000000000000000000000000000000000000000000000000000000005f526001600160e01b03191660045260245ffd5b90506001600160a01b037f000000000000000000000000000000000000000000000000000000000000000016145f614f15565b1561506757565b608460405162461bcd60e51b815260206004820152603a60248201527f54797065644d656d566965772f696e646578202d20417474656d70746564207460448201527f6f20696e646578206d6f7265207468616e2033322062797465730000000000006064820152fd5b6001600160601b03808260181c16168060041161511c57506001600160601b0361510f916150ff6001615060565b60781c166001600160601b031690565b51600160ff1b601f1d1690565b60045f61513a926001600160601b0380614ff49660781c1616615848565b60405191829162461bcd60e51b83526020600484018181520190610a10565b6001600160601b03808260181c1616806090116151ad575061519161519d916151826001615060565b60781c6001600160601b031690565b6001600160601b031690565b60700151600160ff1b5f191d1690565b6020607061513a926001600160601b0380614ff49660781c1616615848565b6001600160601b03808260181c16168060d01161520557506151916151f5916151826001615060565b60b00151600160ff1b5f191d1690565b602060b061513a926001600160601b0380614ff49660781c1616615848565b6001600160601b03808260181c161680604c1161525d575061519161524d916151826001615060565b602c0151600160ff1b5f191d1690565b6020602c61513a926001600160601b0380614ff49660781c1616615848565b6001600160601b03808260181c161680606c116152b557506151916152a5916151826001615060565b604c0151600160ff1b5f191d1690565b6020604c61513a926001600160601b0380614ff49660781c1616615848565b6001600160601b03808260181c161680608c1161530d57506151916152fd916151826001615060565b606c0151600160ff1b5f191d1690565b6020606c61513a926001600160601b0380614ff49660781c1616615848565b6001600160601b03808260181c16168060ac116153655750615191615355916151826001615060565b608c0151600160ff1b5f191d1690565b6020608c61513a926001600160601b0380614ff49660781c1616615848565b6001600160601b03808260181c16168060ec116153bd57506151916153ad916151826001615060565b60cc0151600160ff1b5f191d1690565b602060cc61513a926001600160601b0380614ff49660781c1616615848565b6001600160601b03808260181c161680602c116154155750615191615405916151826001615060565b600c0151600160ff1b5f191d1690565b6020600c61513a926001600160601b0380614ff49660781c1616615848565b60ff831680156154ce57808301808411613bcd5761545e601884901c6001600160601b0316615191565b8091116154925750615191600160ff1b92615182602061547f941115615060565b9260ff5f199160031b16011d9101511690565b92614ff4936154b16151916154b6956001600160601b039060781c1690565b615848565b60405191829162461bcd60e51b8352600483016110db565b505050505f90565b6040519061553e6020830163095ea7b360e01b81526001600160a01b03851660248501525f19604485015260448452615510606485610960565b5f806001600160a01b0385169286519082855af19061552d61572a565b8261558f575b508161558857501590565b61554757505050565b60405163095ea7b360e01b60208201526001600160a01b0390931660248401525f6044840152610376926137a3906155828160648101613ade565b82614837565b3b15919050565b805191925081159182156155a7575b5050905f615533565b6155ba9250602080918301019101614822565b5f8061559e565b60ff7ff0c57e16840df040f15088dc2f81fe391c3923bec73e23a9662efc9c229c6a005460401c16156155f057565b7fd7e6bcf8000000000000000000000000000000000000000000000000000000005f5260045ffd5b8051610a0d916020015f615776565b600460ec6146d892615434565b906001600160601b038260181c1660405192602084019062ffffff1962ffffff198216146156c25761566d61566882615c31565b615a12565b615697615191615687601884901c6001600160601b031682565b9260781c6001600160601b031690565b9180604051116156bc57816156af9360045afa615a83565b6020818401016040528252565b60206060fd5b60848562461bcd60e51b815260206004820152602860248201527f54797065644d656d566965772f636f7079546f202d204e756c6c20706f696e7460448201527f65722064657265660000000000000000000000000000000000000000000000006064820152fd5b3d15615754573d9061573b826109a0565b916157496040519384610960565b82523d5f602084013e565b606090565b5f80610a0d93602081519101845af461577061572a565b91615ae6565b828201808311613bcd57806040511061579d575b15614cd05760601b1760601b1760181b90565b505f61578a565b600319810191908211613bcd57565b909160c0828403126103675781519260208301516157d081610359565b9260408101519260608201516157e58161064c565b9260808301519260a08101519067ffffffffffffffff8211610367570181601f8201121561036757805190615819826109a0565b926158276040519485610960565b8284526020838301011161036757815f9260208093018386015e8301015290565b600665ffffffffffff6159e7610a0d957fffffffffffff00000000000000000000000000000000000000000000000000008098816158a96158a1615899615891613ade9b615b72565b9c9050615b72565b969050615b72565b939050615b72565b9490506040519b8c9a7f54797065644d656d566965772f696e646578202d204f76657272616e2074686560208d01527f20766965772e20536c696365206973206174203078000000000000000000000060408d015260d01b1660558b01527f2077697468206c656e6774682030780000000000000000000000000000000000605b8b015260d01b16606a8901527f2e20417474656d7074656420746f20696e646578206174206f6666736574203060708901527f7800000000000000000000000000000000000000000000000000000000000000609089015260d01b1660918701526159bc60978701600f907f2077697468206c656e677468203078000000000000000000000000000000000081520190565b921660d01b7fffffffffffff0000000000000000000000000000000000000000000000000000168252565b016001907f2e0000000000000000000000000000000000000000000000000000000000000081520190565b15615a1957565b608460405162461bcd60e51b815260206004820152602b60248201527f54797065644d656d566965772f636f7079546f202d20496e76616c696420706f60448201527f696e7465722064657265660000000000000000000000000000000000000000006064820152fd5b15615a8a57565b606460405162461bcd60e51b815260206004820152600c60248201527f6964656e74697479204f4f4700000000000000000000000000000000000000006044820152fd5b5f80610a0d9360208151910182855af161577061572a565b90615b235750805115615afb57805190602001fd5b7f1425ea42000000000000000000000000000000000000000000000000000000005f5260045ffd5b81511580615b69575b615b34575090565b6001600160a01b03907f9996b315000000000000000000000000000000000000000000000000000000005f521660045260245ffd5b50803b15615b2c565b905f80601f5b60ff811691600f831115615bd857601090615bb9615bb2615bad615ba7615b9e87614a46565b8b9060ff161c90565b60ff1690565b615c6b565b61ffff1690565b179203615bcc575b5f190160ff16615b78565b60109190911b90615bc1565b9392915050600f5b60ff81169160ff831015615c2a57615c0c615bb2615bad615ba7615c0386614a46565b8a9060ff161c90565b1791615c1e575b5f190160ff16615be0565b60109190911b90615c13565b9394505050565b64ffffffffff8160d81c14615c6657615c5e906001600160601b039081808260781c169160181c16011690565b604051101590565b505f90565b60ff615c8c61ff00615c82600f8560041c16615c91565b60081b1692615c91565b161790565b600f1660405190615ca3604083610960565b601082527f303132333435363738396162636465660000000000000000000000000000000060208301526010811015612f2d57016020015160f81c9056fe60806040526102a88038038061001481610168565b92833981016040828203126101645781516001600160a01b03811692909190838303610164576020810151906001600160401b03821161016457019281601f8501121561016457835161006e610069826101a1565b610168565b9481865260208601936020838301011161016457815f926020809301865e86010152823b15610152577f360894a13ba1a3210667c828492db98dca3e2076cc3735a920a3ca505d382bbc80546001600160a01b031916821790557fbc7cd75a20ee27fd9adebab32041f755214dbc6bffa90cc0225b39da2e5c2d3b5f80a282511561013a575f8091610122945190845af43d15610132573d91610113610069846101a1565b9283523d5f602085013e6101bc565b505b604051608d908161021b8239f35b6060916101bc565b50505034156101245763b398979f60e01b5f5260045ffd5b634c9c8ce360e01b5f5260045260245ffd5b5f80fd5b6040519190601f01601f191682016001600160401b0381118382101761018d57604052565b634e487b7160e01b5f52604160045260245ffd5b6001600160401b03811161018d57601f01601f191660200190565b906101e057508051156101d157805190602001fd5b630a12f52160e11b5f5260045ffd5b81511580610211575b6101f1575090565b639996b31560e01b5f9081526001600160a01b0391909116600452602490fd5b50803b156101e956fe60806040525f8073ffffffffffffffffffffffffffffffffffffffff7f360894a13ba1a3210667c828492db98dca3e2076cc3735a920a3ca505d382bbc5416368280378136915af43d5f803e156053573d5ff35b3d5ffdfea26469706673582212202727c98b76d2de3ea5c540d7762bd3b329786532fe4cf66b9f6e88ddf94de10264736f6c634300081d00335b4e4be47fb1acb1ed4bcf1ef4afe1634200c49767dcbd6314604c0214977902a2646970667358221220a68fe9c22c5ea04f532850408f0e3a25122e5b001303fc8277c878a03f64fe9064736f6c634300081d0033f0c57e16840df040f15088dc2f81fe391c3923bec73e23a9662efc9c229c6a00","linkReferences":{}},"methodIdentifiers":{"UPGRADE_INTERFACE_VERSION()":"ad3cb1cc","acceptOwnership()":"79ba5097","addSupportedToken(address)":"6d69fcaf","balanceOfNativeCollateral(address,uint32)":"c47cf5ef","blocklist(uint32,bytes32)":"f4733b8a","blocklister()":"b54d9497","decodeDepositIntent(bytes)":"2ac22725","depositToRemote(uint256,uint32,bytes32,address,uint256,bytes)":"faadb53b","depositToRemoteWithAuthorization((uint256,uint32,bytes32,address,uint256,bytes),(address,uint256,uint256,bytes32,bytes))":"9e3d4b53","depositToRemoteWithPermit((uint256,uint32,bytes32,address,uint256,bytes),(address,uint256,bytes))":"44035166","deregisterRemoteDomain(uint32)":"9cc4ffd4","deregisterRemoteToken(uint32,bytes32)":"730ce252","domain()":"c2fb26a6","domainDepositsPaused(uint32)":"4a1b13ea","domainWithdrawalsPaused(uint32)":"e9cafc83","encodeDepositIntent((uint32,uint256,uint32,bytes32,bytes32,bytes32,bytes32,uint256,bytes32,bytes))":"4e4e9430","gatewayMinter()":"0f41efea","gatewayWallet()":"131b4c0e","getRemoteDomainDepositor(uint32)":"fc31b97c","getRemoteDomainHookExecutor(uint32)":"a6d289b7","getRemoteToken(uint32,address)":"b3467549","initialize(uint32,address,address,address,address[],address)":"6c77ee48","isBlocklisted(uint32,bytes32)":"898424bf","isRemoteDomainRegistered(uint32)":"f54a69c3","isRemoteTokenRegistered(uint32,bytes32)":"a67acff1","isTokenSupported(address)":"75151b63","owner()":"8da5cb5b","pause()":"8456cb59","paused()":"5c975abb","pauser()":"9fd0506d","pendingOwner()":"e30c3978","proxiableUUID()":"52d1902d","registerRemoteDomain(uint32,address,address,address[],uint256,uint256,address)":"ea5d0db0","registerRemoteToken(address,uint32,bytes32)":"1db1f148","registrationManager()":"c3d5fdf1","remoteDomainDepositorImplementation()":"ffaeb9af","renounceOwnership()":"715018a6","setDomainPauseState(uint32,bool,bool)":"0853cd50","setPersistentSignatureBufferDelay(uint32,uint256)":"4f6503cf","setRemoteDomainHookExecutor(uint32,address)":"d22197f8","setUnlimitedAllowances(address[])":"632d2594","tokenMessenger()":"46117830","tokenMessengerV2()":"ae0026a5","transferOwnership(address)":"f2fde38b","unblocklist(uint32,bytes32)":"0b7a290c","unpause()":"3f4ba83a","updateBlocklister(address)":"f9b5aa92","updateDomainManager(uint32,address)":"35be904a","updatePauser(address)":"554bab3c","updateRegistrationManager(address)":"c25c3025","upgradeToAndCall(address,bytes)":"4f1ef286","withdraw(bytes,bytes)":"50fbe2d9"},"id":222}