{"abi":[{"type":"constructor","inputs":[{"name":"gatewayMinterAddress","type":"address","internalType":"address"},{"name":"gatewayWalletAddress","type":"address","internalType":"address"},{"name":"tokenMessengerAddress","type":"address","internalType":"address"},{"name":"tokenMessengerV2Address","type":"address","internalType":"address"}],"stateMutability":"nonpayable"},{"type":"function","name":"UPGRADE_INTERFACE_VERSION","inputs":[],"outputs":[{"name":"","type":"string","internalType":"string"}],"stateMutability":"view"},{"type":"function","name":"acceptOwnership","inputs":[],"outputs":[],"stateMutability":"nonpayable"},{"type":"function","name":"addSupportedToken","inputs":[{"name":"token","type":"address","internalType":"address"}],"outputs":[],"stateMutability":"nonpayable"},{"type":"function","name":"balanceOfNativeCollateral","inputs":[{"name":"localToken","type":"address","internalType":"address"},{"name":"remoteDomain","type":"uint32","internalType":"uint32"}],"outputs":[{"name":"","type":"uint256","internalType":"uint256"}],"stateMutability":"view"},{"type":"function","name":"blocklist","inputs":[{"name":"remoteDomain","type":"uint32","internalType":"uint32"},{"name":"remoteAddress","type":"bytes32","internalType":"bytes32"}],"outputs":[],"stateMutability":"nonpayable"},{"type":"function","name":"blocklister","inputs":[],"outputs":[{"name":"","type":"address","internalType":"address"}],"stateMutability":"view"},{"type":"function","name":"decodeDepositIntent","inputs":[{"name":"data","type":"bytes","internalType":"bytes"}],"outputs":[{"name":"","type":"tuple","internalType":"struct DepositIntent","components":[{"name":"version","type":"uint32","internalType":"uint32"},{"name":"amount","type":"uint256","internalType":"uint256"},{"name":"remoteDomain","type":"uint32","internalType":"uint32"},{"name":"remoteToken","type":"bytes32","internalType":"bytes32"},{"name":"remoteRecipient","type":"bytes32","internalType":"bytes32"},{"name":"localToken","type":"bytes32","internalType":"bytes32"},{"name":"localDepositor","type":"bytes32","internalType":"bytes32"},{"name":"maxFee","type":"uint256","internalType":"uint256"},{"name":"nonce","type":"bytes32","internalType":"bytes32"},{"name":"hookData","type":"bytes","internalType":"bytes"}]}],"stateMutability":"view"},{"type":"function","name":"depositToRemote","inputs":[{"name":"value","type":"uint256","internalType":"uint256"},{"name":"remoteDomain","type":"uint32","internalType":"uint32"},{"name":"remoteRecipient","type":"bytes32","internalType":"bytes32"},{"name":"localToken","type":"address","internalType":"address"},{"name":"maxFee","type":"uint256","internalType":"uint256"},{"name":"hookData","type":"bytes","internalType":"bytes"}],"outputs":[],"stateMutability":"nonpayable"},{"type":"function","name":"deregisterRemoteDomain","inputs":[{"name":"remoteDomain","type":"uint32","internalType":"uint32"}],"outputs":[],"stateMutability":"nonpayable"},{"type":"function","name":"deregisterRemoteToken","inputs":[{"name":"remoteDomain","type":"uint32","internalType":"uint32"},{"name":"remoteToken","type":"bytes32","internalType":"bytes32"}],"outputs":[],"stateMutability":"nonpayable"},{"type":"function","name":"domain","inputs":[],"outputs":[{"name":"","type":"uint32","internalType":"uint32"}],"stateMutability":"view"},{"type":"function","name":"domainDepositsPaused","inputs":[{"name":"domain","type":"uint32","internalType":"uint32"}],"outputs":[{"name":"","type":"bool","internalType":"bool"}],"stateMutability":"view"},{"type":"function","name":"domainWithdrawalsPaused","inputs":[{"name":"domain","type":"uint32","internalType":"uint32"}],"outputs":[{"name":"","type":"bool","internalType":"bool"}],"stateMutability":"view"},{"type":"function","name":"encodeDepositIntent","inputs":[{"name":"intent","type":"tuple","internalType":"struct DepositIntent","components":[{"name":"version","type":"uint32","internalType":"uint32"},{"name":"amount","type":"uint256","internalType":"uint256"},{"name":"remoteDomain","type":"uint32","internalType":"uint32"},{"name":"remoteToken","type":"bytes32","internalType":"bytes32"},{"name":"remoteRecipient","type":"bytes32","internalType":"bytes32"},{"name":"localToken","type":"bytes32","internalType":"bytes32"},{"name":"localDepositor","type":"bytes32","internalType":"bytes32"},{"name":"maxFee","type":"uint256","internalType":"uint256"},{"name":"nonce","type":"bytes32","internalType":"bytes32"},{"name":"hookData","type":"bytes","internalType":"bytes"}]}],"outputs":[{"name":"","type":"bytes","internalType":"bytes"}],"stateMutability":"pure"},{"type":"function","name":"gatewayMinter","inputs":[],"outputs":[{"name":"","type":"address","internalType":"address"}],"stateMutability":"view"},{"type":"function","name":"gatewayWallet","inputs":[],"outputs":[{"name":"","type":"address","internalType":"address"}],"stateMutability":"view"},{"type":"function","name":"getRemoteDomainDepositor","inputs":[{"name":"remoteDomain","type":"uint32","internalType":"uint32"}],"outputs":[{"name":"","type":"address","internalType":"address"}],"stateMutability":"view"},{"type":"function","name":"getRemoteDomainHookExecutor","inputs":[{"name":"remoteDomain","type":"uint32","internalType":"uint32"}],"outputs":[{"name":"","type":"address","internalType":"address"}],"stateMutability":"view"},{"type":"function","name":"getRemoteToken","inputs":[{"name":"remoteDomain","type":"uint32","internalType":"uint32"},{"name":"localToken","type":"address","internalType":"address"}],"outputs":[{"name":"","type":"bytes32","internalType":"bytes32"}],"stateMutability":"view"},{"type":"function","name":"initialize","inputs":[{"name":"domain_","type":"uint32","internalType":"uint32"},{"name":"pauser_","type":"address","internalType":"address"},{"name":"blocklister_","type":"address","internalType":"address"},{"name":"registrationManager_","type":"address","internalType":"address"},{"name":"supportedTokens_","type":"address[]","internalType":"address[]"},{"name":"remoteDomainDepositorImplementation_","type":"address","internalType":"address"}],"outputs":[],"stateMutability":"nonpayable"},{"type":"function","name":"isBlocklisted","inputs":[{"name":"remoteDomain","type":"uint32","internalType":"uint32"},{"name":"remoteAddress","type":"bytes32","internalType":"bytes32"}],"outputs":[{"name":"","type":"bool","internalType":"bool"}],"stateMutability":"view"},{"type":"function","name":"isRemoteDomainRegistered","inputs":[{"name":"remoteDomain","type":"uint32","internalType":"uint32"}],"outputs":[{"name":"","type":"bool","internalType":"bool"}],"stateMutability":"view"},{"type":"function","name":"isRemoteTokenRegistered","inputs":[{"name":"remoteDomain","type":"uint32","internalType":"uint32"},{"name":"remoteToken","type":"bytes32","internalType":"bytes32"}],"outputs":[{"name":"","type":"bool","internalType":"bool"}],"stateMutability":"view"},{"type":"function","name":"isTokenSupported","inputs":[{"name":"token","type":"address","internalType":"address"}],"outputs":[{"name":"","type":"bool","internalType":"bool"}],"stateMutability":"view"},{"type":"function","name":"owner","inputs":[],"outputs":[{"name":"","type":"address","internalType":"address"}],"stateMutability":"view"},{"type":"function","name":"pause","inputs":[],"outputs":[],"stateMutability":"nonpayable"},{"type":"function","name":"paused","inputs":[],"outputs":[{"name":"","type":"bool","internalType":"bool"}],"stateMutability":"view"},{"type":"function","name":"pauser","inputs":[],"outputs":[{"name":"","type":"address","internalType":"address"}],"stateMutability":"view"},{"type":"function","name":"pendingOwner","inputs":[],"outputs":[{"name":"","type":"address","internalType":"address"}],"stateMutability":"view"},{"type":"function","name":"proxiableUUID","inputs":[],"outputs":[{"name":"","type":"bytes32","internalType":"bytes32"}],"stateMutability":"view"},{"type":"function","name":"registerRemoteDomain","inputs":[{"name":"remoteDomain","type":"uint32","internalType":"uint32"},{"name":"domainManager","type":"address","internalType":"address"},{"name":"domainPauser","type":"address","internalType":"address"},{"name":"domainAttesters","type":"address[]","internalType":"address[]"},{"name":"signatureThreshold","type":"uint256","internalType":"uint256"},{"name":"persistentSignatureBufferDelayBlocks","type":"uint256","internalType":"uint256"},{"name":"remoteDomainHookExecutor","type":"address","internalType":"address"}],"outputs":[{"name":"remoteDomainDepositor","type":"address","internalType":"address"}],"stateMutability":"nonpayable"},{"type":"function","name":"registerRemoteToken","inputs":[{"name":"localToken","type":"address","internalType":"address"},{"name":"remoteDomain","type":"uint32","internalType":"uint32"},{"name":"remoteToken","type":"bytes32","internalType":"bytes32"}],"outputs":[],"stateMutability":"nonpayable"},{"type":"function","name":"registrationManager","inputs":[],"outputs":[{"name":"","type":"address","internalType":"address"}],"stateMutability":"view"},{"type":"function","name":"remoteDomainDepositorImplementation","inputs":[],"outputs":[{"name":"","type":"address","internalType":"address"}],"stateMutability":"view"},{"type":"function","name":"renounceOwnership","inputs":[],"outputs":[],"stateMutability":"nonpayable"},{"type":"function","name":"setDomainPauseState","inputs":[{"name":"domain","type":"uint32","internalType":"uint32"},{"name":"depositsPaused","type":"bool","internalType":"bool"},{"name":"withdrawalsPaused","type":"bool","internalType":"bool"}],"outputs":[],"stateMutability":"nonpayable"},{"type":"function","name":"setPersistentSignatureBufferDelay","inputs":[{"name":"remoteDomain","type":"uint32","internalType":"uint32"},{"name":"newDelay","type":"uint256","internalType":"uint256"}],"outputs":[],"stateMutability":"nonpayable"},{"type":"function","name":"setRemoteDomainHookExecutor","inputs":[{"name":"remoteDomain","type":"uint32","internalType":"uint32"},{"name":"newHookExecutor","type":"address","internalType":"address"}],"outputs":[],"stateMutability":"nonpayable"},{"type":"function","name":"setUnlimitedAllowances","inputs":[{"name":"tokens","type":"address[]","internalType":"address[]"}],"outputs":[],"stateMutability":"nonpayable"},{"type":"function","name":"tokenMessenger","inputs":[],"outputs":[{"name":"","type":"address","internalType":"address"}],"stateMutability":"view"},{"type":"function","name":"tokenMessengerV2","inputs":[],"outputs":[{"name":"","type":"address","internalType":"address"}],"stateMutability":"view"},{"type":"function","name":"transferOwnership","inputs":[{"name":"newOwner","type":"address","internalType":"address"}],"outputs":[],"stateMutability":"nonpayable"},{"type":"function","name":"unblocklist","inputs":[{"name":"remoteDomain","type":"uint32","internalType":"uint32"},{"name":"remoteAddress","type":"bytes32","internalType":"bytes32"}],"outputs":[],"stateMutability":"nonpayable"},{"type":"function","name":"unpause","inputs":[],"outputs":[],"stateMutability":"nonpayable"},{"type":"function","name":"updateBlocklister","inputs":[{"name":"blocklister_","type":"address","internalType":"address"}],"outputs":[],"stateMutability":"nonpayable"},{"type":"function","name":"updateDomainManager","inputs":[{"name":"remoteDomain","type":"uint32","internalType":"uint32"},{"name":"newDomainManager","type":"address","internalType":"address"}],"outputs":[],"stateMutability":"nonpayable"},{"type":"function","name":"updatePauser","inputs":[{"name":"newPauser","type":"address","internalType":"address"}],"outputs":[],"stateMutability":"nonpayable"},{"type":"function","name":"updateRegistrationManager","inputs":[{"name":"newManager","type":"address","internalType":"address"}],"outputs":[],"stateMutability":"nonpayable"},{"type":"function","name":"upgradeToAndCall","inputs":[{"name":"newImplementation","type":"address","internalType":"address"},{"name":"data","type":"bytes","internalType":"bytes"}],"outputs":[],"stateMutability":"payable"},{"type":"function","name":"withdraw","inputs":[{"name":"attestationPayload","type":"bytes","internalType":"bytes"},{"name":"signature","type":"bytes","internalType":"bytes"}],"outputs":[],"stateMutability":"nonpayable"},{"type":"event","name":"Blocklisted","inputs":[{"name":"remoteDomain","type":"uint32","indexed":true,"internalType":"uint32"},{"name":"remoteAddress","type":"bytes32","indexed":true,"internalType":"bytes32"}],"anonymous":false},{"type":"event","name":"BlocklisterUpdated","inputs":[{"name":"oldBlocklister","type":"address","indexed":true,"internalType":"address"},{"name":"newBlocklister","type":"address","indexed":true,"internalType":"address"}],"anonymous":false},{"type":"event","name":"DepositedToRemote","inputs":[{"name":"localToken","type":"address","indexed":true,"internalType":"address"},{"name":"value","type":"uint256","indexed":false,"internalType":"uint256"},{"name":"localDepositor","type":"address","indexed":true,"internalType":"address"},{"name":"remoteRecipient","type":"bytes32","indexed":true,"internalType":"bytes32"},{"name":"remoteDomain","type":"uint32","indexed":false,"internalType":"uint32"},{"name":"remoteToken","type":"bytes32","indexed":false,"internalType":"bytes32"},{"name":"maxFee","type":"uint256","indexed":false,"internalType":"uint256"},{"name":"hookData","type":"bytes","indexed":false,"internalType":"bytes"}],"anonymous":false},{"type":"event","name":"DomainPauseStateUpdated","inputs":[{"name":"domain","type":"uint32","indexed":true,"internalType":"uint32"},{"name":"depositsPaused","type":"bool","indexed":false,"internalType":"bool"},{"name":"withdrawalsPaused","type":"bool","indexed":false,"internalType":"bool"}],"anonymous":false},{"type":"event","name":"Initialized","inputs":[{"name":"version","type":"uint64","indexed":false,"internalType":"uint64"}],"anonymous":false},{"type":"event","name":"OwnershipTransferStarted","inputs":[{"name":"previousOwner","type":"address","indexed":true,"internalType":"address"},{"name":"newOwner","type":"address","indexed":true,"internalType":"address"}],"anonymous":false},{"type":"event","name":"OwnershipTransferred","inputs":[{"name":"previousOwner","type":"address","indexed":true,"internalType":"address"},{"name":"newOwner","type":"address","indexed":true,"internalType":"address"}],"anonymous":false},{"type":"event","name":"Paused","inputs":[{"name":"account","type":"address","indexed":false,"internalType":"address"}],"anonymous":false},{"type":"event","name":"PauserUpdated","inputs":[{"name":"oldPauser","type":"address","indexed":true,"internalType":"address"},{"name":"newPauser","type":"address","indexed":true,"internalType":"address"}],"anonymous":false},{"type":"event","name":"RegistrationManagerUpdated","inputs":[{"name":"oldManager","type":"address","indexed":true,"internalType":"address"},{"name":"newManager","type":"address","indexed":true,"internalType":"address"}],"anonymous":false},{"type":"event","name":"RemoteDomainDeregistered","inputs":[{"name":"remoteDomain","type":"uint32","indexed":true,"internalType":"uint32"}],"anonymous":false},{"type":"event","name":"RemoteDomainHookExecutorUpdated","inputs":[{"name":"remoteDomain","type":"uint32","indexed":true,"internalType":"uint32"},{"name":"oldHookExecutor","type":"address","indexed":true,"internalType":"address"},{"name":"newHookExecutor","type":"address","indexed":true,"internalType":"address"}],"anonymous":false},{"type":"event","name":"RemoteDomainRegistered","inputs":[{"name":"remoteDomain","type":"uint32","indexed":true,"internalType":"uint32"},{"name":"remoteDomainManager","type":"address","indexed":true,"internalType":"address"},{"name":"remoteDomainDepositor","type":"address","indexed":true,"internalType":"address"},{"name":"remoteDomainPauser","type":"address","indexed":false,"internalType":"address"},{"name":"remoteDomainAttesters","type":"address[]","indexed":false,"internalType":"address[]"},{"name":"signatureThreshold","type":"uint256","indexed":false,"internalType":"uint256"},{"name":"persistentSignatureBufferDelayBlocks","type":"uint256","indexed":false,"internalType":"uint256"},{"name":"remoteDomainHookExecutor","type":"address","indexed":false,"internalType":"address"}],"anonymous":false},{"type":"event","name":"RemoteTokenDeregistered","inputs":[{"name":"localToken","type":"address","indexed":true,"internalType":"address"},{"name":"remoteDomain","type":"uint32","indexed":true,"internalType":"uint32"},{"name":"remoteToken","type":"bytes32","indexed":true,"internalType":"bytes32"}],"anonymous":false},{"type":"event","name":"RemoteTokenRegistered","inputs":[{"name":"localToken","type":"address","indexed":true,"internalType":"address"},{"name":"remoteDomain","type":"uint32","indexed":true,"internalType":"uint32"},{"name":"remoteToken","type":"bytes32","indexed":true,"internalType":"bytes32"}],"anonymous":false},{"type":"event","name":"TokenSupported","inputs":[{"name":"token","type":"address","indexed":true,"internalType":"address"}],"anonymous":false},{"type":"event","name":"Unblocklisted","inputs":[{"name":"remoteDomain","type":"uint32","indexed":true,"internalType":"uint32"},{"name":"remoteAddress","type":"bytes32","indexed":true,"internalType":"bytes32"}],"anonymous":false},{"type":"event","name":"Unpaused","inputs":[{"name":"account","type":"address","indexed":false,"internalType":"address"}],"anonymous":false},{"type":"event","name":"Upgraded","inputs":[{"name":"implementation","type":"address","indexed":true,"internalType":"address"}],"anonymous":false},{"type":"event","name":"Withdrawn","inputs":[{"name":"localToken","type":"address","indexed":true,"internalType":"address"},{"name":"value","type":"uint256","indexed":false,"internalType":"uint256"},{"name":"remoteDepositor","type":"bytes32","indexed":true,"internalType":"bytes32"},{"name":"localRecipient","type":"address","indexed":true,"internalType":"address"},{"name":"remoteDomain","type":"uint32","indexed":false,"internalType":"uint32"},{"name":"remoteToken","type":"bytes32","indexed":false,"internalType":"bytes32"},{"name":"transferSpecHash","type":"bytes32","indexed":false,"internalType":"bytes32"}],"anonymous":false},{"type":"error","name":"AccountBlocklisted","inputs":[{"name":"remoteDomain","type":"uint32","internalType":"uint32"},{"name":"remoteAddress","type":"bytes32","internalType":"bytes32"}]},{"type":"error","name":"AddressEmptyCode","inputs":[{"name":"target","type":"address","internalType":"address"}]},{"type":"error","name":"AddressInsufficientBalance","inputs":[{"name":"account","type":"address","internalType":"address"}]},{"type":"error","name":"Create2EmptyBytecode","inputs":[]},{"type":"error","name":"Create2FailedDeployment","inputs":[]},{"type":"error","name":"Create2InsufficientBalance","inputs":[{"name":"balance","type":"uint256","internalType":"uint256"},{"name":"needed","type":"uint256","internalType":"uint256"}]},{"type":"error","name":"CursorOutOfBounds","inputs":[]},{"type":"error","name":"DepositPayloadDataTooShort","inputs":[{"name":"expected","type":"uint256","internalType":"uint256"},{"name":"actual","type":"uint256","internalType":"uint256"}]},{"type":"error","name":"DepositPayloadHeaderTooShort","inputs":[{"name":"expected","type":"uint256","internalType":"uint256"},{"name":"actual","type":"uint256","internalType":"uint256"}]},{"type":"error","name":"DepositPayloadOverallLengthMismatch","inputs":[{"name":"expected","type":"uint256","internalType":"uint256"},{"name":"actual","type":"uint256","internalType":"uint256"}]},{"type":"error","name":"DomainDepositsPaused","inputs":[{"name":"domain","type":"uint32","internalType":"uint32"}]},{"type":"error","name":"DomainWithdrawalsPaused","inputs":[{"name":"domain","type":"uint32","internalType":"uint32"}]},{"type":"error","name":"ERC1967InvalidImplementation","inputs":[{"name":"implementation","type":"address","internalType":"address"}]},{"type":"error","name":"ERC1967NonPayable","inputs":[]},{"type":"error","name":"EnforcedPause","inputs":[]},{"type":"error","name":"ExpectedPause","inputs":[]},{"type":"error","name":"FailedInnerCall","inputs":[]},{"type":"error","name":"ForwardingCalldataTooShort","inputs":[{"name":"length","type":"uint32","internalType":"uint32"}]},{"type":"error","name":"HookDataEmpty","inputs":[]},{"type":"error","name":"InvalidAddressPadding","inputs":[{"name":"invalidBytes32","type":"bytes32","internalType":"bytes32"}]},{"type":"error","name":"InvalidDepositAmount","inputs":[{"name":"amount","type":"uint256","internalType":"uint256"}]},{"type":"error","name":"InvalidDepositIntentHookData","inputs":[{"name":"expectedHookDataLength","type":"uint256","internalType":"uint256"},{"name":"depositIntentLength","type":"uint256","internalType":"uint256"}]},{"type":"error","name":"InvalidDepositIntentVersion","inputs":[{"name":"version","type":"uint32","internalType":"uint32"}]},{"type":"error","name":"InvalidDepositPayloadMagic","inputs":[{"name":"magic","type":"bytes4","internalType":"bytes4"}]},{"type":"error","name":"InvalidDestinationRecipient","inputs":[{"name":"destinationRecipient","type":"bytes32","internalType":"bytes32"}]},{"type":"error","name":"InvalidForwardingCalldata","inputs":[{"name":"forwardingCalldata","type":"bytes","internalType":"bytes"}]},{"type":"error","name":"InvalidForwardingContract","inputs":[{"name":"forwardingContract","type":"address","internalType":"address"}]},{"type":"error","name":"InvalidFunctionSelector","inputs":[{"name":"functionSelector","type":"bytes4","internalType":"bytes4"}]},{"type":"error","name":"InvalidImplementation","inputs":[]},{"type":"error","name":"InvalidInitialization","inputs":[]},{"type":"error","name":"InvalidWithdrawHookDataForwardingCalldata","inputs":[{"name":"expectedForwardingCalldataLength","type":"uint256","internalType":"uint256"},{"name":"withdrawHookDataLength","type":"uint256","internalType":"uint256"}]},{"type":"error","name":"InvalidWithdrawHookDataMagic","inputs":[{"name":"actualMagic","type":"bytes4","internalType":"bytes4"}]},{"type":"error","name":"InvalidWithdrawHookDataVersion","inputs":[{"name":"actualVersion","type":"uint32","internalType":"uint32"}]},{"type":"error","name":"LocalTokenAlreadyRegistered","inputs":[{"name":"remoteDomain","type":"uint32","internalType":"uint32"},{"name":"localToken","type":"address","internalType":"address"}]},{"type":"error","name":"LocalTokenNotRegistered","inputs":[{"name":"remoteDomain","type":"uint32","internalType":"uint32"},{"name":"localToken","type":"address","internalType":"address"}]},{"type":"error","name":"NotInitializing","inputs":[]},{"type":"error","name":"OwnableInvalidOwner","inputs":[{"name":"owner","type":"address","internalType":"address"}]},{"type":"error","name":"OwnableUnauthorizedAccount","inputs":[{"name":"account","type":"address","internalType":"address"}]},{"type":"error","name":"ReentrancyGuardReentrantCall","inputs":[]},{"type":"error","name":"RemoteDomainAlreadyRegistered","inputs":[{"name":"remoteDomain","type":"uint32","internalType":"uint32"}]},{"type":"error","name":"RemoteDomainNotRegistered","inputs":[{"name":"remoteDomain","type":"uint32","internalType":"uint32"}]},{"type":"error","name":"RemoteTokenAlreadyRegistered","inputs":[{"name":"remoteDomain","type":"uint32","internalType":"uint32"},{"name":"remoteToken","type":"bytes32","internalType":"bytes32"}]},{"type":"error","name":"RemoteTokenNotRegistered","inputs":[{"name":"remoteDomain","type":"uint32","internalType":"uint32"},{"name":"remoteToken","type":"bytes32","internalType":"bytes32"}]},{"type":"error","name":"SafeERC20FailedOperation","inputs":[{"name":"token","type":"address","internalType":"address"}]},{"type":"error","name":"TransferSpecInvalidHookData","inputs":[{"name":"expectedHookDataLength","type":"uint256","internalType":"uint256"},{"name":"transferSpecLength","type":"uint256","internalType":"uint256"}]},{"type":"error","name":"UUPSUnauthorizedCallContext","inputs":[]},{"type":"error","name":"UUPSUnsupportedProxiableUUID","inputs":[{"name":"slot","type":"bytes32","internalType":"bytes32"}]},{"type":"error","name":"UnauthorizedCaller","inputs":[]},{"type":"error","name":"UnauthorizedDomainPauser","inputs":[{"name":"domain","type":"uint32","internalType":"uint32"},{"name":"caller","type":"address","internalType":"address"}]},{"type":"error","name":"UnsupportedToken","inputs":[{"name":"token","type":"address","internalType":"address"}]},{"type":"error","name":"WithdrawHookDataHeaderTooShort","inputs":[{"name":"expectedMinimumLength","type":"uint256","internalType":"uint256"},{"name":"actualLength","type":"uint256","internalType":"uint256"}]},{"type":"error","name":"WithdrawHookDataOverallLengthMismatch","inputs":[{"name":"expectedTotalLength","type":"uint256","internalType":"uint256"},{"name":"actualTotalLength","type":"uint256","internalType":"uint256"}]},{"type":"error","name":"ZeroAddress","inputs":[]},{"type":"error","name":"ZeroBytes32","inputs":[]},{"type":"error","name":"ZeroValue","inputs":[]}],"bytecode":{"object":"0x610120346101c557601f615e2b38819003918201601f19168301916001600160401b038311848410176101c9578084926080946040528339810103126101c557610048816101dd565b90610055602082016101dd565b61006d6060610066604085016101dd565b93016101dd565b923060805261007b816101f1565b610084826101f1565b61008d836101f1565b610096846101f1565b60a05260c05260e052610100525f516020615e0b5f395f51905f525460ff8160401c166101b6576002600160401b03196001600160401b03821601610160575b604051615bfa9081610211823960805181818161102e01526114e3015260a0518181816105c50152611305015260c051818181610608015281816123f901528181613a020152615077015260e051818181610e6e015281816136eb01528181613a2c01526147b401526101005181818161218d015281816137be01528181613a5301526149020152f35b6001600160401b0319166001600160401b039081175f516020615e0b5f395f51905f52556040519081527fc7f505b2f371ae2175ee4913f4499e1f2633a7b5936321eed1cdaeb6115181d290602090a15f6100d6565b63f92ee8a960e01b5f5260045ffd5b5f80fd5b634e487b7160e01b5f52604160045260245ffd5b51906001600160a01b03821682036101c557565b6001600160a01b03161561020157565b63d92e233d60e01b5f5260045ffdfe60806040526004361015610011575f80fd5b5f3560e01c80630853cd50146103345780630b7a290c1461032f5780630f41efea1461032a578063131b4c0e146103255780631db1f148146103205780632ac227251461031b57806335be904a146103165780633f4ba83a14610311578063461178301461030c5780634a1b13ea146103075780634e4e9430146103025780634f1ef286146102fd5780634f6503cf146102f857806350fbe2d9146102f357806352d1902d146102ee578063554bab3c146102e95780635c975abb146102e4578063632d2594146102df5780636c77ee48146102da5780636d69fcaf146102d5578063715018a6146102d0578063730ce252146102cb57806375151b63146102c657806379ba5097146102c15780638456cb59146102bc578063898424bf146102b75780638da5cb5b146102b25780639cc4ffd4146102ad5780639fd0506d146102a8578063a67acff1146102a3578063a6d289b71461029e578063ad3cb1cc14610299578063ae0026a514610294578063b34675491461028f578063b54d94971461028a578063c25c302514610285578063c2fb26a614610280578063c3d5fdf11461027b578063c47cf5ef14610276578063d22197f814610271578063e30c39781461026c578063e9cafc8314610267578063ea5d0db014610262578063f2fde38b1461025d578063f4733b8a14610258578063f54a69c314610253578063f9b5aa921461024e578063faadb53b14610249578063fc31b97c146102445763ffaeb9af1461023f575f80fd5b612a31565b6129e7565b61294e565b612869565b612842565b612784565b6126b5565b612622565b6125fb565b6125b6565b61248d565b612307565b6122b9565b612277565b61224a565b612205565b6121b1565b61216e565b61210f565b612094565b61205f565b61201a565b611f22565b611edd565b611e72565b611db2565b611c94565b611c34565b611aa3565b6119dd565b6119b5565b61163e565b6115d2565b611560565b611533565b6114c9565b6112a0565b6111b5565b610feb565b610f06565b610e92565b610e4f565b610d69565b610caa565b610a8c565b61063d565b6105e9565b6105a6565b6104b9565b610362565b63ffffffff81160361034757565b5f80fd5b359061035682610339565b565b8015150361034757565b346103475760603660031901126103475760043561037f81610339565b60243561038b81610358565b6044359061039882610358565b6001600160a01b036103c48463ffffffff165f525f516020615ba55f395f51905f5260205260405f2090565b5416156104a057600460206001600160a01b036103e0866130bf565b16604051928380927f0f0be1950000000000000000000000000000000000000000000000000000000082525afa801561049b576001600160a01b03915f9161046c575b5016330361043657610434926130eb565b005b7f38e8d6e9000000000000000000000000000000000000000000000000000000005f5263ffffffff83166004523360245260445ffd5b61048e915060203d602011610494575b6104868183610914565b810190612a76565b5f610423565b503d61047c565b612a8b565b63ffffffff836387f4e92160e01b5f521660045260245ffd5b34610347576040366003190112610347576004356104d681610339565b602435906001600160a01b037f0d198be05a52a5c37edefdb6959d3bbd2cec5830bf94c2b41b8b04fa134fb901541633036105745763ffffffff16805f527f0d198be05a52a5c37edefdb6959d3bbd2cec5830bf94c2b41b8b04fa134fb90060205260405f20825f5260205260405f2060ff1981541690557f7f7777cdbb9802648ab0296aeb4e3cf230d4237908888761ff9d4af47d4d15055f80a3005b7f5c427cd9000000000000000000000000000000000000000000000000000000005f5260045ffd5b5f91031261034757565b34610347575f3660031901126103475760206040516001600160a01b037f0000000000000000000000000000000000000000000000000000000000000000168152f35b34610347575f3660031901126103475760206040516001600160a01b037f0000000000000000000000000000000000000000000000000000000000000000168152f35b6001600160a01b0381160361034757565b346103475760603660031901126103475760043561065a8161062c565b6024359061066782610339565b604435916001600160a01b036106a46001600160a01b037f5b4e4be47fb1acb1ed4bcf1ef4afe1634200c49767dcbd6314604c0214977905541690565b163303610574576001600160a01b036106d78263ffffffff165f525f516020615ba55f395f51905f5260205260405f2090565b5416156108e7576107158163ffffffff165f527f5b4e4be47fb1acb1ed4bcf1ef4afe1634200c49767dcbd6314604c021497790060205260405f2090565b835f526020526001600160a01b0360405f2054166108b15761077e826107688363ffffffff165f527f5b4e4be47fb1acb1ed4bcf1ef4afe1634200c49767dcbd6314604c021497790160205260405f2090565b906001600160a01b03165f5260205260405f2090565b546108725763ffffffff6001600160a01b039161079a84613e93565b6107a385613ea3565b6107ac84613985565b6107e38163ffffffff165f527f5b4e4be47fb1acb1ed4bcf1ef4afe1634200c49767dcbd6314604c021497790060205260405f2090565b855f5260205261080c8460405f20906001600160a01b03166001600160a01b0319825416179055565b84610848856107688463ffffffff165f527f5b4e4be47fb1acb1ed4bcf1ef4afe1634200c49767dcbd6314604c021497790160205260405f2090565b551691167f57caa911b78904f7a9d8fa8e3abdb4ea826a24f763a4a61b0cf4ec0323058fae5f80a4005b9063ffffffff6001600160a01b03927fa4d78ef4000000000000000000000000000000000000000000000000000000005f52166004521660245260445ffd5b63ffffffff91507f415ebb19000000000000000000000000000000000000000000000000000000005f521660045260245260445ffd5b63ffffffff906387f4e92160e01b5f521660045260245ffd5b634e487b7160e01b5f52604160045260245ffd5b90601f8019910116810190811067ffffffffffffffff82111761093657604052565b610900565b6040519061035661014083610914565b6040519061035660c083610914565b906103566040519283610914565b67ffffffffffffffff811161093657601f01601f191660200190565b92919261099082610968565b9161099e6040519384610914565b829481845281830111610347578281602093845f960137010152565b9080601f83011215610347578160206109d593359101610984565b90565b805180835260209291819084018484015e5f828201840152601f01601f1916010190565b6101606101206109d59360208452610a1d60208501825163ffffffff169052565b60208101516040850152610a3e6040820151606086019063ffffffff169052565b60608101516080850152608081015160a085015260a081015160c085015260c081015160e085015260e0810151610100850152610100810151828501520151916101408082015201906109d8565b346103475760203660031901126103475760043567ffffffffffffffff811161034757610abd9036906004016109ba565b610ac5612a96565b50610ace612a96565b5080519060048210610c5557610ae3906151ae565b610afc610aef8261499a565b6001600160e01b03191690565b6001600160e01b03198116635a2e0acd60e01b03610c2057610c1c7affffffffffffffffffffffffffffffffffffffffffffffffffffff83167e5a2e0acd00000000000000000000000000000000000000000000000000000017610b5f81613ed2565b610b6881614017565b90610b7281614276565b90610b7c81614029565b610b8582614aed565b610b8e83614b45565b610b9784614b9d565b90610ba185614bf5565b92610beb610bae87614283565b95610bc1610bbb89614c4d565b98614036565b98610bd9610bcd61093b565b63ffffffff909c168c52565b60208b015263ffffffff1660408a0152565b6060880152608087015260a086015260c085015260e0840152610100830152610120820152604051918291826109fc565b0390f35b7f291c27fb000000000000000000000000000000000000000000000000000000005f526001600160e01b03191660045260245ffd5b507f47001b53000000000000000000000000000000000000000000000000000000005f526004805260245260445ffd5b604090600319011261034757600435610c9d81610339565b906024356109d58161062c565b3461034757610cb836610c85565b610cc06131bb565b5f916001600160a01b03610cee8263ffffffff165f525f516020615ba55f395f51905f5260205260405f2090565b5416156108e757610d066001600160a01b03916130bf565b1690813b15610347576001600160a01b0360245f928360405195869485937fa07d72d50000000000000000000000000000000000000000000000000000000085521660048401525af1801561049b57610d5d575080f35b61043491505f90610914565b34610347575f366003190112610347576001600160a01b037fc1b0aef4073b36d82bede1f3d73be2d41f403b88ee64d408639974796975b80054163303610574577fcd5ed15c6e187e77e9aee88184c21f4f2182ab5827cb3b7e07fbedcd63f033005460ff811615610e275760ff19167fcd5ed15c6e187e77e9aee88184c21f4f2182ab5827cb3b7e07fbedcd63f03300557f5db9ee0a495bf2e6ff9c91a7834c1ba4fdd244a5e8aa4e537bd38aeae4b073aa6020604051338152a1005b7f8dfc202b000000000000000000000000000000000000000000000000000000005f5260045ffd5b34610347575f3660031901126103475760206040516001600160a01b037f0000000000000000000000000000000000000000000000000000000000000000168152f35b3461034757602036600319011261034757602060ff610ee9600435610eb681610339565b63ffffffff165f527fc1b0aef4073b36d82bede1f3d73be2d41f403b88ee64d408639974796975b80160205260405f2090565b54166040519015158152f35b9060206109d59281815201906109d8565b346103475760203660031901126103475760043567ffffffffffffffff811161034757610140600319823603011261034757610f4061093b565b90610f4d8160040161034b565b825260248101356020830152610f656044820161034b565b6040830152606481013560608301526084810135608083015260a481013560a083015260c481013560c083015260e481013560e08301526101048101356101008301526101248101359167ffffffffffffffff831161034757610fd4610fdf926004610c1c95369201016109ba565b610120820152613258565b60405191829182610ef5565b6040366003190112610347576004356110038161062c565b60243567ffffffffffffffff8111610347576110239036906004016109ba565b906001600160a01b037f000000000000000000000000000000000000000000000000000000000000000016803014908115611180575b50611158576110666131bb565b604051917f52d1902d0000000000000000000000000000000000000000000000000000000083526020836004816001600160a01b0386165afa5f9381611127575b506110c857634c9c8ce360e01b5f526001600160a01b03821660045260245ffd5b907f360894a13ba1a3210667c828492db98dca3e2076cc3735a920a3ca505d382bbc83036110fa5761043492506140a5565b7faa1d49a4000000000000000000000000000000000000000000000000000000005f52600483905260245ffd5b61114a91945060203d602011611151575b6111428183610914565b8101906132c6565b925f6110a7565b503d611138565b7fe07c8dba000000000000000000000000000000000000000000000000000000005f5260045ffd5b90506001600160a01b037f360894a13ba1a3210667c828492db98dca3e2076cc3735a920a3ca505d382bbc541614155f611059565b34610347575f6040366003190112610347576004356111d381610339565b602435906111df6131bb565b6001600160a01b0361120b8263ffffffff165f525f516020615ba55f395f51905f5260205260405f2090565b5416156108e7576112236001600160a01b03916130bf565b1690813b15610347575f916024839260405194859384927fd7e6962700000000000000000000000000000000000000000000000000000000845260048401525af1801561049b57610d5d575080f35b9181601f840112156103475782359167ffffffffffffffff8311610347576020838186019501011161034757565b346103475760403660031901126103475760043567ffffffffffffffff8111610347576112d1903690600401611272565b60243567ffffffffffffffff8111610347576112f1903690600401611272565b92906112fb6132d5565b6001600160a01b037f00000000000000000000000000000000000000000000000000000000000000001693843b156103475761136b945f92836040518098819582947f9fb01cc50000000000000000000000000000000000000000000000000000000084528a8a60048601612b50565b03925af191821561049b576113909361138b936114af575b503691610984565b61334c565b608081015b6113a66113a28251151590565b1590565b15611486576113a26113a6917fc06518a0df01a1d581a7acae597931a9669783104fef2072bdf3e0fd9ce950026113e46113df8661348c565b613584565b6001600160a01b036113fe826113f9816135a1565b613620565b949192909361147b61140f82614268565b9461142161141c84614a22565b6138b7565b9761144c61143161141c86614a95565b946001600160601b0380808360781c169260181c1691162090565b9185604051968796169a1697859094939263ffffffff6060936080840197845216602083015260408201520152565b0390a4915050611395565b61043460017f9b779b17422d0df92223018b32b4d1fa46e071723d6817e2486d003becc55f0055565b806114bd5f6114c393610914565b8061059c565b5f611383565b34610347575f366003190112610347576001600160a01b037f00000000000000000000000000000000000000000000000000000000000000001630036111585760206040517f360894a13ba1a3210667c828492db98dca3e2076cc3735a920a3ca505d382bbc8152f35b34610347576020366003190112610347576104346004356115538161062c565b61155b6131bb565b6138f6565b34610347575f36600319011261034757602060ff7fcd5ed15c6e187e77e9aee88184c21f4f2182ab5827cb3b7e07fbedcd63f0330054166040519015158152f35b9181601f840112156103475782359167ffffffffffffffff8311610347576020808501948460051b01011161034757565b346103475760203660031901126103475760043567ffffffffffffffff8111610347576116039036906004016115a1565b905f5b82811061160f57005b806116386116206001938686612b8b565b3561162a8161062c565b61163381613985565b6139f0565b01611606565b346103475760c03660031901126103475760043561165b81610339565b602435906116688261062c565b604435906116758261062c565b606435916116828361062c565b60843567ffffffffffffffff8111610347576116a29036906004016115a1565b91909260a435956116b28761062c565b7ff0c57e16840df040f15088dc2f81fe391c3923bec73e23a9662efc9c229c6a00549060ff8260401c1680156119a0575b611978577fffffffffffffffffffffffffffffffffffffffffffffff0000000000000000009190911668010000000000000002177ff0c57e16840df040f15088dc2f81fe391c3923bec73e23a9662efc9c229c6a005561174d90611745614e8f565b61155b614e8f565b611755614e8f565b6001600160a01b03821680156119505763ffffffff926117f46001600160a01b037f0d198be05a52a5c37edefdb6959d3bbd2cec5830bf94c2b41b8b04fa134fb9015416916001600160a01b03166001600160a01b03197f0d198be05a52a5c37edefdb6959d3bbd2cec5830bf94c2b41b8b04fa134fb9015416177f0d198be05a52a5c37edefdb6959d3bbd2cec5830bf94c2b41b8b04fa134fb90155565b7fa9c03f0c41566a3ba656e6051bc59549787de0a353986cba9488fae5b46156845f80a3611820614e8f565b1663ffffffff197f8fadb1ee53eb9315f14ed344b360999a6bf6db266066acf6d0a7a70190dedf005416177f8fadb1ee53eb9315f14ed344b360999a6bf6db266066acf6d0a7a70190dedf0055611875614e8f565b5f5b81811061192a576118888486613a78565b611890613b25565b6118fb7fffffffffffffffffffffffffffffffffffffffffffffff00ffffffffffffffff7ff0c57e16840df040f15088dc2f81fe391c3923bec73e23a9662efc9c229c6a0054167ff0c57e16840df040f15088dc2f81fe391c3923bec73e23a9662efc9c229c6a0055565b604051600281527fc7f505b2f371ae2175ee4913f4499e1f2633a7b5936321eed1cdaeb6115181d290602090a1005b8061194a61193b6001938587612b8b565b356119458161062c565b613b5b565b01611877565b7fd92e233d000000000000000000000000000000000000000000000000000000005f5260045ffd5b7ff92ee8a9000000000000000000000000000000000000000000000000000000005f5260045ffd5b50600267ffffffffffffffff831610156116e3565b34610347576020366003190112610347576104346004356119d58161062c565b6119456131bb565b34610347575f366003190112610347576119f56131bb565b7f237e158222e3e6968b72b9db0d8043aacf074ad9f650f0d1606b4d82ee432c0080546001600160a01b03191690555f6001600160a01b037f9016d09d72d40fdae2fd8ceac6b6234c7706214fd39c1cd1e609a0528c199300546001600160a01b031981167f9016d09d72d40fdae2fd8ceac6b6234c7706214fd39c1cd1e609a0528c19930055167f8be0079c531659141344cd1fd0a4f28419497f9722a3daafe3b4186f6b6457e08280a3005b3461034757604036600319011261034757600435611ac081610339565b60243590611acc6131bb565b6001600160a01b03611af88263ffffffff165f525f516020615ba55f395f51905f5260205260405f2090565b5416156108e757611b368163ffffffff165f527f5b4e4be47fb1acb1ed4bcf1ef4afe1634200c49767dcbd6314604c021497790060205260405f2090565b825f526020526001600160a01b0360405f205416908115611c175780611bb2611ba285611b9563ffffffff9563ffffffff165f527f5b4e4be47fb1acb1ed4bcf1ef4afe1634200c49767dcbd6314604c021497790060205260405f2090565b905f5260205260405f2090565b80546001600160a01b0319169055565b5f611bee846107688463ffffffff165f527f5b4e4be47fb1acb1ed4bcf1ef4afe1634200c49767dcbd6314604c021497790160205260405f2090565b5516907f5898a8a35af1fa742a812cc6c5f3fdbf7eccb455c6347be805d62454306f79ca5f80a4005b63ffffffff91506308b46c1960e01b5f521660045260245260445ffd5b34610347576020366003190112610347576001600160a01b03600435611c598161062c565b165f527f3630dbf8799c23cdb29523cafe2b04203ab0622ee7e77cc015c2780e9d22b100602052602060ff60405f2054166040519015158152f35b34610347575f36600319011261034757336001600160a01b037f237e158222e3e6968b72b9db0d8043aacf074ad9f650f0d1606b4d82ee432c00541603611d86577f237e158222e3e6968b72b9db0d8043aacf074ad9f650f0d1606b4d82ee432c0080546001600160a01b03191690557f9016d09d72d40fdae2fd8ceac6b6234c7706214fd39c1cd1e609a0528c19930054336001600160a01b03198216177f9016d09d72d40fdae2fd8ceac6b6234c7706214fd39c1cd1e609a0528c199300556001600160a01b033391167f8be0079c531659141344cd1fd0a4f28419497f9722a3daafe3b4186f6b6457e05f80a3005b7f118cdaa7000000000000000000000000000000000000000000000000000000005f523360045260245ffd5b34610347575f366003190112610347576001600160a01b037fc1b0aef4073b36d82bede1f3d73be2d41f403b88ee64d408639974796975b8005416330361057457611dfb61465c565b600160ff197fcd5ed15c6e187e77e9aee88184c21f4f2182ab5827cb3b7e07fbedcd63f033005416177fcd5ed15c6e187e77e9aee88184c21f4f2182ab5827cb3b7e07fbedcd63f03300557f62e78cea01bee320cd4e420270b5ea74000d11b0c9f74754ebdbfc544b05a2586020604051338152a1005b3461034757604036600319011261034757600435611e8f81610339565b63ffffffff60243591165f527f0d198be05a52a5c37edefdb6959d3bbd2cec5830bf94c2b41b8b04fa134fb90060205260405f20905f52602052602060ff60405f2054166040519015158152f35b34610347575f3660031901126103475760206001600160a01b037f9016d09d72d40fdae2fd8ceac6b6234c7706214fd39c1cd1e609a0528c1993005416604051908152f35b346103475760203660031901126103475763ffffffff600435611f4481610339565b611f4c6131bb565b6001600160a01b03611f788263ffffffff165f525f516020615ba55f395f51905f5260205260405f2090565b54161561200757611fa6611ba28263ffffffff165f525f516020615ba55f395f51905f5260205260405f2090565b611fe0611ba28263ffffffff165f527f5b4e4be47fb1acb1ed4bcf1ef4afe1634200c49767dcbd6314604c021497790360205260405f2090565b167ff2ee813fdf36bc1a965ed167f94514dd23aad7036e6a292ff65a5d44e176ebc75f80a2005b6387f4e92160e01b5f521660045260245ffd5b34610347575f3660031901126103475760206001600160a01b037fc1b0aef4073b36d82bede1f3d73be2d41f403b88ee64d408639974796975b8005416604051908152f35b3461034757604036600319011261034757602061208a60043561208181610339565b60243590612ba0565b6040519015158152f35b346103475760203660031901126103475760206001600160a01b036120f16004356120be81610339565b63ffffffff165f527f5b4e4be47fb1acb1ed4bcf1ef4afe1634200c49767dcbd6314604c021497790360205260405f2090565b5416604051908152f35b6040519061210a602083610914565b5f8252565b34610347575f36600319011261034757610c1c604051612130604082610914565b600581527f352e302e3000000000000000000000000000000000000000000000000000000060208201526040519182916020835260208301906109d8565b34610347575f3660031901126103475760206040516001600160a01b037f0000000000000000000000000000000000000000000000000000000000000000168152f35b346103475760206121fc6107686121c736610c85565b919063ffffffff165f527f5b4e4be47fb1acb1ed4bcf1ef4afe1634200c49767dcbd6314604c021497790160205260405f2090565b54604051908152f35b34610347575f3660031901126103475760206001600160a01b037f0d198be05a52a5c37edefdb6959d3bbd2cec5830bf94c2b41b8b04fa134fb9015416604051908152f35b346103475760203660031901126103475761043460043561226a8161062c565b6122726131bb565b613c0a565b34610347575f36600319011261034757602063ffffffff7f8fadb1ee53eb9315f14ed344b360999a6bf6db266066acf6d0a7a70190dedf005416604051908152f35b34610347575f3660031901126103475760206001600160a01b037f5b4e4be47fb1acb1ed4bcf1ef4afe1634200c49767dcbd6314604c021497790554166001600160a01b0360405191168152f35b34610347576040366003190112610347576004356123248161062c565b60243561233081610339565b6001600160a01b0361235c8263ffffffff165f525f516020615ba55f395f51905f5260205260405f2090565b5416156108e75761239e826107688363ffffffff165f527f5b4e4be47fb1acb1ed4bcf1ef4afe1634200c49767dcbd6314604c021497790160205260405f2090565b5415612467576123b56001600160a01b03916130bf565b81604051937f3ccb64ae0000000000000000000000000000000000000000000000000000000085521660048401521660248201526020816044816001600160a01b037f0000000000000000000000000000000000000000000000000000000000000000165afa801561049b575f90612433575b604051908152602090f35b506020813d60201161245f575b8161244d60209383610914565b8101031261034757610c1c9051612428565b3d9150612440565b9063ffffffff6001600160a01b03926302db0c7f60e01b5f52166004521660245260445ffd5b346103475761249b36610c85565b6124a36131bb565b6001600160a01b036124cf8363ffffffff165f525f516020615ba55f395f51905f5260205260405f2090565b54161561259d5763ffffffff6001600160a01b038061251b8563ffffffff165f527f5b4e4be47fb1acb1ed4bcf1ef4afe1634200c49767dcbd6314604c021497790360205260405f2090565b54169216926125768461255b8363ffffffff165f527f5b4e4be47fb1acb1ed4bcf1ef4afe1634200c49767dcbd6314604c021497790360205260405f2090565b906001600160a01b03166001600160a01b0319825416179055565b167f7a34cbf3a160918c03371c118eaf5731919edfd3192df714e73315109e6378cf5f80a4005b63ffffffff826387f4e92160e01b5f521660045260245ffd5b34610347575f3660031901126103475760206001600160a01b037f237e158222e3e6968b72b9db0d8043aacf074ad9f650f0d1606b4d82ee432c005416604051908152f35b3461034757602036600319011261034757602061208a60043561261d81610339565b612c6e565b346103475760e03660031901126103475760043561263f81610339565b60243561264b8161062c565b604435916126588361062c565b6064359167ffffffffffffffff831161034757610c1c9361268061269b9436906004016115a1565b906084359260a4359460c435966126968861062c565b612caf565b6040516001600160a01b0390911681529081906020820190565b34610347576020366003190112610347576001600160a01b036004356126da8161062c565b6126e26131bb565b16806001600160a01b03197f237e158222e3e6968b72b9db0d8043aacf074ad9f650f0d1606b4d82ee432c005416177f237e158222e3e6968b72b9db0d8043aacf074ad9f650f0d1606b4d82ee432c00556001600160a01b037f9016d09d72d40fdae2fd8ceac6b6234c7706214fd39c1cd1e609a0528c19930054167f38d16b8cac22d99fc7c124b9cd0de2d3fa1faef420bfe791d8c362d765e227005f80a3005b34610347576040366003190112610347576004356127a181610339565b602435906001600160a01b037f0d198be05a52a5c37edefdb6959d3bbd2cec5830bf94c2b41b8b04fa134fb901541633036105745763ffffffff16805f527f0d198be05a52a5c37edefdb6959d3bbd2cec5830bf94c2b41b8b04fa134fb90060205260405f20825f5260205260405f20600160ff198254161790557f03680f8f1944cca4803ec9e741808c6da8c26ca833b0ac0ea0f55bc58a84a44f5f80a3005b3461034757602036600319011261034757602061208a60043561286481610339565b61308c565b34610347576020366003190112610347576004356128868161062c565b61288e6131bb565b6001600160a01b038116908115611950576129286001600160a01b037f0d198be05a52a5c37edefdb6959d3bbd2cec5830bf94c2b41b8b04fa134fb9015416916001600160a01b03166001600160a01b03197f0d198be05a52a5c37edefdb6959d3bbd2cec5830bf94c2b41b8b04fa134fb9015416177f0d198be05a52a5c37edefdb6959d3bbd2cec5830bf94c2b41b8b04fa134fb90155565b7fa9c03f0c41566a3ba656e6051bc59549787de0a353986cba9488fae5b46156845f80a3005b346103475760c03660031901126103475760043560243561296e81610339565b604435916064359061297f8261062c565b6084359160a4359467ffffffffffffffff8611610347576129b96129aa6129c1973690600401611272565b6129b26132d5565b3691610984565b943393613d2a565b60017f9b779b17422d0df92223018b32b4d1fa46e071723d6817e2486d003becc55f0055005b346103475760203660031901126103475760206001600160a01b036120f1600435612a1181610339565b63ffffffff165f525f516020615ba55f395f51905f5260205260405f2090565b34610347575f3660031901126103475760206001600160a01b037f5b4e4be47fb1acb1ed4bcf1ef4afe1634200c49767dcbd6314604c02149779045416604051908152f35b9081602091031261034757516109d58161062c565b6040513d5f823e3d90fd5b60405190610140820182811067ffffffffffffffff821117610936576040526060610120835f81525f60208201525f60408201525f838201525f60808201525f60a08201525f60c08201525f60e08201525f6101008201520152565b612b2b60ff9163ffffffff165f527fc1b0aef4073b36d82bede1f3d73be2d41f403b88ee64d408639974796975b80160205260405f2090565b541690565b908060209392818452848401375f828201840152601f01601f1916010190565b9290612b69906109d59593604086526040860191612b30565b926020818503910152612b30565b634e487b7160e01b5f52603260045260245ffd5b9190811015612b9b5760051b0190565b612b77565b612bd79063ffffffff165f527f5b4e4be47fb1acb1ed4bcf1ef4afe1634200c49767dcbd6314604c021497790060205260405f2090565b905f526020526001600160a01b0360405f205416151590565b612b2b6001600160a01b039163ffffffff165f527f5b4e4be47fb1acb1ed4bcf1ef4afe1634200c49767dcbd6314604c021497790360205260405f2090565b90610768612c6a9263ffffffff165f527f5b4e4be47fb1acb1ed4bcf1ef4afe1634200c49767dcbd6314604c021497790160205260405f2090565b5490565b612ca760ff9163ffffffff165f527fc1b0aef4073b36d82bede1f3d73be2d41f403b88ee64d408639974796975b80160205260405f2090565b5460081c1690565b9695919293956001600160a01b03612cee6001600160a01b037f5b4e4be47fb1acb1ed4bcf1ef4afe1634200c49767dcbd6314604c0214977905541690565b163303610574576001600160a01b03612d218963ffffffff165f525f516020615ba55f395f51905f5260205260405f2090565b5416612f6f579084939291604051602081019080612d4c8c8491909163ffffffff6020820193169052565b03601f1981018252612d5e9082610914565b5190206102a8612d706020820161095a565b908082526158fd60208301397f5b4e4be47fb1acb1ed4bcf1ef4afe1634200c49767dcbd6314604c0214977904546001600160a01b031690612db06120fb565b604051928391612dc39160208401612fa1565b03601f1981018352612dd59083610914565b60405191829160208301612de891612fc1565b612df191612fc1565b03601f1981018252612e039082610914565b612e0c91613cb8565b9889612e328263ffffffff165f525f516020615ba55f395f51905f5260205260405f2090565b90612e5291906001600160a01b03166001600160a01b0319825416179055565b6001600160a01b038216612e938263ffffffff165f527f5b4e4be47fb1acb1ed4bcf1ef4afe1634200c49767dcbd6314604c021497790360205260405f2090565b90612eb391906001600160a01b03166001600160a01b0319825416179055565b886001600160a01b038b16968793604051918291888d6001600160a01b038a169763ffffffff1696612ee6948d87613016565b037f2449721a2fd09474518486c8c1c720589b90e3bce68b08c9ac78de303e6a9cc891a4833b1561034757612f4f5f96928793604051998a98899788967f5559267500000000000000000000000000000000000000000000000000000000885260048801613051565b03925af1801561049b57612f61575090565b806114bd5f6109d593610914565b63ffffffff887f69e5c7ea000000000000000000000000000000000000000000000000000000005f521660045260245ffd5b6040906001600160a01b036109d5949316815281602082015201906109d8565b805191908290602001825e015f815290565b916020908281520191905f5b818110612fec5750505090565b9091926020806001926001600160a01b0387356130088161062c565b168152019401929101612fdf565b94906080949796926001600160a01b0394856130409316885260a0602089015260a0880191612fd3565b966040860152606085015216910152565b9290936001600160a01b0361308293816080979a99989a16865216602085015260a0604085015260a0840191612fd3565b9460608201520152565b6130b86001600160a01b039163ffffffff165f525f516020615ba55f395f51905f5260205260405f2090565b5416151590565b612b2b6001600160a01b039163ffffffff165f525f516020615ba55f395f51905f5260205260405f2090565b63ffffffff6040917faeae9df21785d6fc7df188888bd18094a23b228565bc63c0d5f257b963bf0284939461314d8263ffffffff165f527fc1b0aef4073b36d82bede1f3d73be2d41f403b88ee64d408639974796975b80160205260405f2090565b60ff1981541660ff881515161790556131938263ffffffff165f527fc1b0aef4073b36d82bede1f3d73be2d41f403b88ee64d408639974796975b80160205260405f2090565b90151590805461ff008360081b169061ff0019161790558351951515865260208601521692a2565b6001600160a01b037f9016d09d72d40fdae2fd8ceac6b6234c7706214fd39c1cd1e609a0528c19930054163303611d8657565b97936001600160e01b03198098946109d59d9c98948260f09d9995635a2e0acd60e01b8e5260e01b1660048d015260088c015260e01b1660288a0152602c890152604c880152606c870152608c86015260ac85015260cc84015260e01b1660ec8201520190612fc1565b6109d563ffffffff8251166132b860208401519363ffffffff604082015116606082015191608081015160a082015160c08301519060e0840151926101206101008601519501519663ffffffff885116966040519c8d9b60208d016131ee565b03601f198101835282610914565b90816020910312610347575190565b60027f9b779b17422d0df92223018b32b4d1fa46e071723d6817e2486d003becc55f0054146133245760027f9b779b17422d0df92223018b32b4d1fa46e071723d6817e2486d003becc55f0055565b7f3ee5aeb5000000000000000000000000000000000000000000000000000000005f5260045ffd5b9060405160a0810181811067ffffffffffffffff821117610936576040525f815260208101905f825260408101915f835260608201925f845260808301915f83525f613398859861418b565b62ffffff198116865295526133af6113a286614232565b6133e4575050505063ffffffff6133c861035692614017565b6008602086015263ffffffff8116604086015216156080840152565b6133f892939596505f945084905260019052565b5290565b634e487b7160e01b5f52601160045260245ffd5b906024820180921161341e57565b6133fc565b9190820180921161341e57565b63ffffffff166028019063ffffffff821161341e57565b63ffffffff1660f0019063ffffffff821161341e57565b63ffffffff166070019063ffffffff821161341e57565b63ffffffff1663ffffffff811461341e5760010190565b60808101805161355c57815162ffffff1916916134ce6134c06134c96134c060208501966134ba8851613410565b9061425c565b63ffffffff1690565b613430565b926134fa6134f26134e3845162ffffff191690565b8351879063ff6fb3349261447a565b948251613423565b905263ffffffff6135496134c0604061353d60608601613533613529613524835163ffffffff1690565b613475565b63ffffffff168252565b5163ffffffff1690565b94015163ffffffff1690565b91161015613555575090565b6001905290565b7f9b2914b8000000000000000000000000000000000000000000000000000000005f5260045ffd5b6135916004602483614cfd565b6109d59160e09190911c90614290565b63ffffffff6135af826144dc565b16908115613611576135c18282614349565b915b62ffffff19838116146135d557505090565b6001600160601b0392507f397c9446000000000000000000000000000000000000000000000000000000005f5260045260181c1660245260445ffd5b61361a816142f5565b916135c3565b9063ffffffff61362f826144dc565b161561388f5761363e826144ea565b6136478261464f565b9261365183614aed565b809361365c81614ca5565b809461366661465c565b6136726113a28961308c565b6138765761367f88612c6e565b6138445761368d84896146af565b61369a6113a2838a612ba0565b613826576136aa61141c84614b45565b936001600160a01b03851692831561381b5750506136c790614a95565b6136d0816138b7565b6001600160a01b03309116036137f057506001600160a01b037f00000000000000000000000000000000000000000000000000000000000000001681141590816137bc575b816137b1575b5061377c5761372981614724565b600463ffffffff82161061374b57509061374561035692614731565b906147a0565b7f06b758f4000000000000000000000000000000000000000000000000000000005f5263ffffffff1660045260245ffd5b7f6789bd6a000000000000000000000000000000000000000000000000000000005f526001600160a01b03821660045260245ffd5b90503014155f61371b565b7f00000000000000000000000000000000000000000000000000000000000000006001600160a01b03168114159150613715565b7f9e8b5d8d000000000000000000000000000000000000000000000000000000005f5260045260245ffd5b909750955050505050565b6308b46c1960e01b5f5263ffffffff8816600452602482905260445ffd5b7fb25734f3000000000000000000000000000000000000000000000000000000005f5263ffffffff881660045260245ffd5b6387f4e92160e01b5f5263ffffffff881660045260245ffd5b7f746cb28c000000000000000000000000000000000000000000000000000000005f5260045ffd5b8060a01c6138cb576001600160a01b031690565b7f6dd67bf6000000000000000000000000000000000000000000000000000000005f5260045260245ffd5b6001600160a01b03168015611950576001600160a01b037fc1b0aef4073b36d82bede1f3d73be2d41f403b88ee64d408639974796975b80054826001600160a01b03198216177fc1b0aef4073b36d82bede1f3d73be2d41f403b88ee64d408639974796975b80055167f1ff153f4b082245afbf3211a8d2d207da4c5df490e965f9a9ad141b0cd001dda5f80a3565b6001600160a01b0316805f527f3630dbf8799c23cdb29523cafe2b04203ab0622ee7e77cc015c2780e9d22b10060205260ff60405f205416156139c55750565b7fbf16aab6000000000000000000000000000000000000000000000000000000005f5260045260245ffd5b6001600160a01b036103569116613a277f000000000000000000000000000000000000000000000000000000000000000082614d9f565b613a517f000000000000000000000000000000000000000000000000000000000000000082614d9f565b7f000000000000000000000000000000000000000000000000000000000000000090614d9f565b90613a81614e8f565b6001600160a01b038216918215908115613b1b575b50613af357610356916001600160a01b03197f5b4e4be47fb1acb1ed4bcf1ef4afe1634200c49767dcbd6314604c02149779045416177f5b4e4be47fb1acb1ed4bcf1ef4afe1634200c49767dcbd6314604c021497790455613c0a565b7f68155f9a000000000000000000000000000000000000000000000000000000005f5260045ffd5b90503b155f613a96565b613b2d614e8f565b613b35614e8f565b60017f9b779b17422d0df92223018b32b4d1fa46e071723d6817e2486d003becc55f0055565b613b6481613e93565b6001600160a01b03811690815f527f3630dbf8799c23cdb29523cafe2b04203ab0622ee7e77cc015c2780e9d22b10060205260ff60405f20541615613ba7575050565b81610356925f527f3630dbf8799c23cdb29523cafe2b04203ab0622ee7e77cc015c2780e9d22b10060205260405f20600160ff198254161790557fea3145306a87baeba6bb1a8b5c8d3744f840a81cb436b3509f64fc978600cdfb5f80a26139f0565b613c1381613e93565b6001600160a01b03807f5b4e4be47fb1acb1ed4bcf1ef4afe1634200c49767dcbd6314604c02149779055416911690816001600160a01b03197f5b4e4be47fb1acb1ed4bcf1ef4afe1634200c49767dcbd6314604c02149779055416177f5b4e4be47fb1acb1ed4bcf1ef4afe1634200c49767dcbd6314604c0214977905557f7798c6c27f2d52ec640632e7b35a9427ec45bfe52816e022564bf78474eb3a845f80a3565b90805115613d02576020815191015ff5906001600160a01b03821615613cda57565b7f741752c2000000000000000000000000000000000000000000000000000000005f5260045ffd5b7f4ca249dc000000000000000000000000000000000000000000000000000000005f5260045ffd5b93949196959290968415613e6b57613d4182613e93565b613d4961465c565b613d5288612af2565b613e3957613d5f8861308c565b15613e2057613d6d82613985565b613d7781896146af565b613d818289612c2f565b15613dfa5790613dd191613dbc6103569899306001600160a01b038a1603613de0575b613dac61094b565b97885263ffffffff166020880152565b60408601526001600160a01b03166060850152565b608083015260a0820152614fcb565b613df588308b6001600160a01b038816614ee6565b613da4565b6302db0c7f60e01b5f5263ffffffff88166004526001600160a01b03821660245260445ffd5b63ffffffff886387f4e92160e01b5f521660045260245ffd5b63ffffffff887f14e2708f000000000000000000000000000000000000000000000000000000005f521660045260245ffd5b7f7c946ed7000000000000000000000000000000000000000000000000000000005f5260045ffd5b6001600160a01b03161561195057565b15613eaa57565b7fdff66326000000000000000000000000000000000000000000000000000000005f5260045ffd5b6001600160601b038160181c1660f08110613fe75763ffffffff613efd613ef8846151bd565b613447565b16808203613fb0575050613f1081614017565b600163ffffffff821603613f7f5750613f4b90613f46613f2f82614b9d565b613f41613f3b84614bf5565b91613ea3565b613ea3565b614276565b8015613f545750565b7f412ed242000000000000000000000000000000000000000000000000000000005f5260045260245ffd5b7f44145da4000000000000000000000000000000000000000000000000000000005f5263ffffffff1660045260245ffd5b7fb4748504000000000000000000000000000000000000000000000000000000005f526004526001600160601b031660245260445ffd5b7f05edad6b000000000000000000000000000000000000000000000000000000005f5260f060045260245260445ffd5b60048061402392614cfd565b60e01c90565b6004602861402392614cfd565b63ffffffff614044826151bd565b169061405082826143a2565b9162ffffff19808416146140695750506109d5906151ca565b6001600160601b0392507ff8bb7b0b000000000000000000000000000000000000000000000000000000005f5260045260181c1660245260445ffd5b90813b1561416f576001600160a01b038216806001600160a01b03197f360894a13ba1a3210667c828492db98dca3e2076cc3735a920a3ca505d382bbc5416177f360894a13ba1a3210667c828492db98dca3e2076cc3735a920a3ca505d382bbc557fbc7cd75a20ee27fd9adebab32041f755214dbc6bffa90cc0225b39da2e5c2d3b5f80a280511561413e5761413b916152ef565b50565b50503461414757565b7fb398979f000000000000000000000000000000000000000000000000000000005f5260045ffd5b6001600160a01b0382634c9c8ce360e01b5f521660045260245ffd5b805161419a916020015f61530c565b631e12db7160e01b6141ab8261499a565b036141f1577affffffffffffffffffffffffffffffffffffffffffffffffffffff167e1e12db710000000000000000000000000000000000000000000000000000001790565b7affffffffffffffffffffffffffffffffffffffffffffffffffffff167eff6fb3340000000000000000000000000000000000000000000000000000001790565b614243631e12db7160e01b9161499a565b1490565b60031b906107f860f883169216820361341e57565b61402391600491614cfd565b60206101106109d592614cfd565b602060086109d592614cfd565b602060ac6109d592614cfd565b906001600160601b03808360781c161691602883019283811161341e5782016028019081841161341e576142d8906001600160601b039081808260781c169160181c16011690565b106142eb576109d59163ca85def761530c565b505062ffffff1990565b6001600160601b03808260781c161690610154820180921161341e5761432f906001600160601b039081808260781c169160181c16011690565b8111614340575f6109d5918161530c565b5062ffffff1990565b906001600160601b03808360781c16169161015483019283811161341e578201610154019081841161341e57614393906001600160601b039081808260781c169160181c16011690565b106142eb576109d5915f61530c565b906001600160601b03808360781c16169160f083019283811161341e57820160f0019081841161341e57614393906001600160601b039081808260781c169160181c16011690565b906001600160601b03808360781c161691607083019283811161341e5782016070019081841161341e57614393906001600160601b039081808260781c169160181c16011690565b906001600160601b03808360781c161691600483019283811161341e5782016004019081841161341e57614393906001600160601b039081808260781c169160181c16011690565b6001600160601b03808260781c161691820180921161341e578282019081831161341e576144bc906001600160601b039081808260781c169160181c16011690565b106144d15764ffffffffff6109d5931661530c565b50505062ffffff1990565b600461015061402392614cfd565b6144f6610aef8261499a565b7f6b20f62a000000000000000000000000000000000000000000000000000000006001600160e01b031982160361461a57506001600160601b03601882901c16908190607082106145e05761454a81614017565b600163ffffffff8216036145af57506134c061456861456d92614724565b61345e565b809103614578575050565b7fb69052a7000000000000000000000000000000000000000000000000000000005f526004526001600160601b031660245260445ffd5b7f544ca5f7000000000000000000000000000000000000000000000000000000005f5263ffffffff1660045260245ffd5b7f92c0f32f000000000000000000000000000000000000000000000000000000005f5260706004526001600160601b03831660245260445ffd5b7ffbeaf2ea000000000000000000000000000000000000000000000000000000005f526001600160e01b03191660045260245ffd5b6004600861402392614cfd565b60ff7fcd5ed15c6e187e77e9aee88184c21f4f2182ab5827cb3b7e07fbedcd63f03300541661468757565b7fd93c0665000000000000000000000000000000000000000000000000000000005f5260045ffd5b63ffffffff16805f527f0d198be05a52a5c37edefdb6959d3bbd2cec5830bf94c2b41b8b04fa134fb90060205260405f20825f5260205260ff60405f2054166146f6575050565b7f11c79077000000000000000000000000000000000000000000000000000000005f5260045260245260445ffd5b6004606c61402392614cfd565b63ffffffff61473f82614724565b169061474b82826143ea565b9162ffffff19808416146147645750506109d5906151ca565b6001600160601b0392507f30a872aa000000000000000000000000000000000000000000000000000000005f5260045260181c1660245260445ffd5b6001600160a01b0381166001600160a01b037f00000000000000000000000000000000000000000000000000000000000000001681149081156148f6575b50156147ee579061413b91615775565b506147f8816151ae565b90614805610aef8361499a565b7ffaadb53b000000000000000000000000000000000000000000000000000000006001600160e01b03198216036148c1575060e48151106148875761486261485d61035693614857614871945161533a565b90614432565b6151ca565b60208082518301019101615349565b94919290936001600160a01b0330941692613d2a565b6148bd906040519182917fee4a758e00000000000000000000000000000000000000000000000000000000835260048301610ef5565b0390fd5b7f432df3c4000000000000000000000000000000000000000000000000000000005f526001600160e01b03191660045260245ffd5b90506001600160a01b037f000000000000000000000000000000000000000000000000000000000000000016145f6147de565b1561493057565b608460405162461bcd60e51b815260206004820152603a60248201527f54797065644d656d566965772f696e646578202d20417474656d70746564207460448201527f6f20696e646578206d6f7265207468616e2033322062797465730000000000006064820152fd5b6001600160601b03808260181c1616806004116149e557506001600160601b036149d8916149c86001614929565b60781c166001600160601b031690565b51600160ff1b601f1d1690565b60045f614a03926001600160601b03806148bd9660781c16166153de565b60405191829162461bcd60e51b835260206004840181815201906109d8565b6001600160601b03808260181c161680609011614a765750614a5a614a6691614a4b6001614929565b60781c6001600160601b031690565b6001600160601b031690565b60700151600160ff1b5f191d1690565b60206070614a03926001600160601b03806148bd9660781c16166153de565b6001600160601b03808260181c16168060d011614ace5750614a5a614abe91614a4b6001614929565b60b00151600160ff1b5f191d1690565b602060b0614a03926001600160601b03806148bd9660781c16166153de565b6001600160601b03808260181c161680604c11614b265750614a5a614b1691614a4b6001614929565b602c0151600160ff1b5f191d1690565b6020602c614a03926001600160601b03806148bd9660781c16166153de565b6001600160601b03808260181c161680606c11614b7e5750614a5a614b6e91614a4b6001614929565b604c0151600160ff1b5f191d1690565b6020604c614a03926001600160601b03806148bd9660781c16166153de565b6001600160601b03808260181c161680608c11614bd65750614a5a614bc691614a4b6001614929565b606c0151600160ff1b5f191d1690565b6020606c614a03926001600160601b03806148bd9660781c16166153de565b6001600160601b03808260181c16168060ac11614c2e5750614a5a614c1e91614a4b6001614929565b608c0151600160ff1b5f191d1690565b6020608c614a03926001600160601b03806148bd9660781c16166153de565b6001600160601b03808260181c16168060ec11614c865750614a5a614c7691614a4b6001614929565b60cc0151600160ff1b5f191d1690565b602060cc614a03926001600160601b03806148bd9660781c16166153de565b6001600160601b03808260181c161680602c11614cde5750614a5a614cce91614a4b6001614929565b600c0151600160ff1b5f191d1690565b6020600c614a03926001600160601b03806148bd9660781c16166153de565b60ff83168015614d975780830180841161341e57614d27601884901c6001600160601b0316614a5a565b809111614d5b5750614a5a600160ff1b92614a4b6020614d48941115614929565b9260ff5f199160031b16011d9101511690565b926148bd93614d7a614a5a614d7f956001600160601b039060781c1690565b6153de565b60405191829162461bcd60e51b835260048301610ef5565b505050505f90565b60405190614e076020830163095ea7b360e01b81526001600160a01b03851660248501525f19604485015260448452614dd9606485610914565b5f806001600160a01b0385169286519082855af190614df66152c0565b82614e5d575b5081614e5657501590565b614e1057505050565b60405163095ea7b360e01b60208201526001600160a01b0390931660248401525f604484015261035692614e5190614e4b81606481016132b8565b826155bd565b6155bd565b3b15919050565b80519192508115918215614e75575b5050905f614dfc565b614e8892506020809183010191016155a8565b5f80614e6c565b60ff7ff0c57e16840df040f15088dc2f81fe391c3923bec73e23a9662efc9c229c6a005460401c1615614ebe57565b7fd7e6bcf8000000000000000000000000000000000000000000000000000000005f5260045ffd5b6040517f23b872dd0000000000000000000000000000000000000000000000000000000060208201526001600160a01b03928316602482015292909116604483015260648083019390935291815261035691614e51608483610914565b919263ffffffff60a0946109d597969385521660208401526040830152606082015281608082015201906109d8565b60e060a06109d593602084528051602085015263ffffffff6020820151166040850152604081015160608501526001600160a01b03606082015116608085015260808101518285015201519160c08082015201906109d8565b9060608201614fe181516001600160a01b031690565b8351906040850151917f2eef4ec627e0f99d1cc55f26e234a6066090b7bc0b3f61245f1f2d7c91d3e5636001600160a01b036020880196615050615029895163ffffffff1690565b6150338782612c2f565b60808c01519060a08d01519286604051978897169a169886614f43565b0390a4615069615064835163ffffffff1690565b6130bf565b906150a56001600160a01b037f00000000000000000000000000000000000000000000000000000000000000001691516001600160a01b031690565b90845190803b15610347576040517fb3db428b0000000000000000000000000000000000000000000000000000000081526001600160a01b03938416600482015293909216602484015260448301525f908290606490829084905af1801561049b576001600160a01b039261512d926151289261519a575b505163ffffffff1690565b612bf0565b1680615137575050565b803b156103475761517b5f929183926040519485809481937fd0d756dc00000000000000000000000000000000000000000000000000000000835260048301614f72565b03925af1801561049b5761518c5750565b806114bd5f61035693610914565b806114bd5f6151a893610914565b5f61511d565b80516109d5916020015f61530c565b600460ec61402392614cfd565b906001600160601b038260181c1660405192602084019062ffffff1962ffffff19821614615258576152036151fe8261584c565b61562d565b61522d614a5a61521d601884901c6001600160601b031682565b9260781c6001600160601b031690565b91806040511161525257816152459360045afa61569e565b6020818401016040528252565b60206060fd5b60848562461bcd60e51b815260206004820152602860248201527f54797065644d656d566965772f636f7079546f202d204e756c6c20706f696e7460448201527f65722064657265660000000000000000000000000000000000000000000000006064820152fd5b3d156152ea573d906152d182610968565b916152df6040519384610914565b82523d5f602084013e565b606090565b5f806109d593602081519101845af46153066152c0565b916156e9565b82820180831161341e578060405110615333575b156144d15760601b1760601b1760181b90565b505f615320565b60031981019190821161341e57565b909160c08284031261034757815192602083015161536681610339565b92604081015192606082015161537b8161062c565b9260808301519260a08101519067ffffffffffffffff8211610347570181601f82011215610347578051906153af82610968565b926153bd6040519485610914565b8284526020838301011161034757815f9260208093018386015e8301015290565b600665ffffffffffff61557d6109d5957fffffffffffff000000000000000000000000000000000000000000000000000080988161543f61543761542f6154276132b89b61578d565b9c905061578d565b96905061578d565b93905061578d565b9490506040519b8c9a7f54797065644d656d566965772f696e646578202d204f76657272616e2074686560208d01527f20766965772e20536c696365206973206174203078000000000000000000000060408d015260d01b1660558b01527f2077697468206c656e6774682030780000000000000000000000000000000000605b8b015260d01b16606a8901527f2e20417474656d7074656420746f20696e646578206174206f6666736574203060708901527f7800000000000000000000000000000000000000000000000000000000000000609089015260d01b16609187015261555260978701600f907f2077697468206c656e677468203078000000000000000000000000000000000081520190565b921660d01b7fffffffffffff0000000000000000000000000000000000000000000000000000168252565b016001907f2e0000000000000000000000000000000000000000000000000000000000000081520190565b9081602091031261034757516109d581610358565b6001600160a01b036155d191169182615775565b8051908115159182615612575b50506155e75750565b7f5274afe7000000000000000000000000000000000000000000000000000000005f5260045260245ffd5b61562592506020809183010191016155a8565b155f806155de565b1561563457565b608460405162461bcd60e51b815260206004820152602b60248201527f54797065644d656d566965772f636f7079546f202d20496e76616c696420706f60448201527f696e7465722064657265660000000000000000000000000000000000000000006064820152fd5b156156a557565b606460405162461bcd60e51b815260206004820152600c60248201527f6964656e74697479204f4f4700000000000000000000000000000000000000006044820152fd5b9061572657508051156156fe57805190602001fd5b7f1425ea42000000000000000000000000000000000000000000000000000000005f5260045ffd5b8151158061576c575b615737575090565b6001600160a01b03907f9996b315000000000000000000000000000000000000000000000000000000005f521660045260245ffd5b50803b1561572f565b5f806109d59360208151910182855af16153066152c0565b905f80601f5b60ff811691600f8311156157f3576010906157d46157cd6157c86157c26157b987614247565b8b9060ff161c90565b60ff1690565b615886565b61ffff1690565b1792036157e7575b5f190160ff16615793565b60109190911b906157dc565b9392915050600f5b60ff81169160ff831015615845576158276157cd6157c86157c261581e86614247565b8a9060ff161c90565b1791615839575b5f190160ff166157fb565b60109190911b9061582e565b9394505050565b64ffffffffff8160d81c1461588157615879906001600160601b039081808260781c169160181c16011690565b604051101590565b505f90565b60ff6158a761ff0061589d600f8560041c166158ac565b60081b16926158ac565b161790565b600f16604051906158be604083610914565b601082527f303132333435363738396162636465660000000000000000000000000000000060208301526010811015612b9b57016020015160f81c9056fe60806040526102a88038038061001481610168565b92833981016040828203126101645781516001600160a01b03811692909190838303610164576020810151906001600160401b03821161016457019281601f8501121561016457835161006e610069826101a1565b610168565b9481865260208601936020838301011161016457815f926020809301865e86010152823b15610152577f360894a13ba1a3210667c828492db98dca3e2076cc3735a920a3ca505d382bbc80546001600160a01b031916821790557fbc7cd75a20ee27fd9adebab32041f755214dbc6bffa90cc0225b39da2e5c2d3b5f80a282511561013a575f8091610122945190845af43d15610132573d91610113610069846101a1565b9283523d5f602085013e6101bc565b505b604051608d908161021b8239f35b6060916101bc565b50505034156101245763b398979f60e01b5f5260045ffd5b634c9c8ce360e01b5f5260045260245ffd5b5f80fd5b6040519190601f01601f191682016001600160401b0381118382101761018d57604052565b634e487b7160e01b5f52604160045260245ffd5b6001600160401b03811161018d57601f01601f191660200190565b906101e057508051156101d157805190602001fd5b630a12f52160e11b5f5260045ffd5b81511580610211575b6101f1575090565b639996b31560e01b5f9081526001600160a01b0391909116600452602490fd5b50803b156101e956fe60806040525f8073ffffffffffffffffffffffffffffffffffffffff7f360894a13ba1a3210667c828492db98dca3e2076cc3735a920a3ca505d382bbc5416368280378136915af43d5f803e156053573d5ff35b3d5ffdfea26469706673582212202727c98b76d2de3ea5c540d7762bd3b329786532fe4cf66b9f6e88ddf94de10264736f6c634300081d00335b4e4be47fb1acb1ed4bcf1ef4afe1634200c49767dcbd6314604c0214977902a26469706673582212207cae134ae43fe493a43f777fa8971d565aa088a82c9243157064900bf5c2c57464736f6c634300081d0033f0c57e16840df040f15088dc2f81fe391c3923bec73e23a9662efc9c229c6a00","linkReferences":{}},"methodIdentifiers":{"UPGRADE_INTERFACE_VERSION()":"ad3cb1cc","acceptOwnership()":"79ba5097","addSupportedToken(address)":"6d69fcaf","balanceOfNativeCollateral(address,uint32)":"c47cf5ef","blocklist(uint32,bytes32)":"f4733b8a","blocklister()":"b54d9497","decodeDepositIntent(bytes)":"2ac22725","depositToRemote(uint256,uint32,bytes32,address,uint256,bytes)":"faadb53b","deregisterRemoteDomain(uint32)":"9cc4ffd4","deregisterRemoteToken(uint32,bytes32)":"730ce252","domain()":"c2fb26a6","domainDepositsPaused(uint32)":"4a1b13ea","domainWithdrawalsPaused(uint32)":"e9cafc83","encodeDepositIntent((uint32,uint256,uint32,bytes32,bytes32,bytes32,bytes32,uint256,bytes32,bytes))":"4e4e9430","gatewayMinter()":"0f41efea","gatewayWallet()":"131b4c0e","getRemoteDomainDepositor(uint32)":"fc31b97c","getRemoteDomainHookExecutor(uint32)":"a6d289b7","getRemoteToken(uint32,address)":"b3467549","initialize(uint32,address,address,address,address[],address)":"6c77ee48","isBlocklisted(uint32,bytes32)":"898424bf","isRemoteDomainRegistered(uint32)":"f54a69c3","isRemoteTokenRegistered(uint32,bytes32)":"a67acff1","isTokenSupported(address)":"75151b63","owner()":"8da5cb5b","pause()":"8456cb59","paused()":"5c975abb","pauser()":"9fd0506d","pendingOwner()":"e30c3978","proxiableUUID()":"52d1902d","registerRemoteDomain(uint32,address,address,address[],uint256,uint256,address)":"ea5d0db0","registerRemoteToken(address,uint32,bytes32)":"1db1f148","registrationManager()":"c3d5fdf1","remoteDomainDepositorImplementation()":"ffaeb9af","renounceOwnership()":"715018a6","setDomainPauseState(uint32,bool,bool)":"0853cd50","setPersistentSignatureBufferDelay(uint32,uint256)":"4f6503cf","setRemoteDomainHookExecutor(uint32,address)":"d22197f8","setUnlimitedAllowances(address[])":"632d2594","tokenMessenger()":"46117830","tokenMessengerV2()":"ae0026a5","transferOwnership(address)":"f2fde38b","unblocklist(uint32,bytes32)":"0b7a290c","unpause()":"3f4ba83a","updateBlocklister(address)":"f9b5aa92","updateDomainManager(uint32,address)":"35be904a","updatePauser(address)":"554bab3c","updateRegistrationManager(address)":"c25c3025","upgradeToAndCall(address,bytes)":"4f1ef286","withdraw(bytes,bytes)":"50fbe2d9"},"id":221}